{"abi":[{"type":"constructor","inputs":[{"name":"_initialOwner","type":"address","internalType":"address"}],"stateMutability":"nonpayable"},{"type":"function","name":"addAdmin","inputs":[{"name":"_admin","type":"address","internalType":"address"}],"outputs":[],"stateMutability":"nonpayable"},{"type":"function","name":"addDaoAccount","inputs":[{"name":"_daoAccount","type":"address","internalType":"address"}],"outputs":[],"stateMutability":"nonpayable"},{"type":"function","name":"addGuardian","inputs":[{"name":"_guardian","type":"address","internalType":"address"}],"outputs":[],"stateMutability":"nonpayable"},{"type":"function","name":"addStrategist","inputs":[{"name":"_strategist","type":"address","internalType":"address"}],"outputs":[],"stateMutability":"nonpayable"},{"type":"function","name":"cancelOwnershipHandover","inputs":[],"outputs":[],"stateMutability":"payable"},{"type":"function","name":"completeOwnershipHandover","inputs":[{"name":"pendingOwner","type":"address","internalType":"address"}],"outputs":[],"stateMutability":"payable"},{"type":"function","name":"grantRoles","inputs":[{"name":"user","type":"address","internalType":"address"},{"name":"roles","type":"uint256","internalType":"uint256"}],"outputs":[],"stateMutability":"payable"},{"type":"function","name":"hasAllRoles","inputs":[{"name":"user","type":"address","internalType":"address"},{"name":"roles","type":"uint256","internalType":"uint256"}],"outputs":[{"name":"result","type":"bool","internalType":"bool"}],"stateMutability":"view"},{"type":"function","name":"hasAnyRole","inputs":[{"name":"user","type":"address","internalType":"address"},{"name":"roles","type":"uint256","internalType":"uint256"}],"outputs":[{"name":"result","type":"bool","internalType":"bool"}],"stateMutability":"view"},{"type":"function","name":"isAdmin","inputs":[{"name":"_account","type":"address","internalType":"address"}],"outputs":[{"name":"","type":"bool","internalType":"bool"}],"stateMutability":"view"},{"type":"function","name":"isDao","inputs":[{"name":"_account","type":"address","internalType":"address"}],"outputs":[{"name":"","type":"bool","internalType":"bool"}],"stateMutability":"view"},{"type":"function","name":"isGuardian","inputs":[{"name":"_account","type":"address","internalType":"address"}],"outputs":[{"name":"","type":"bool","internalType":"bool"}],"stateMutability":"view"},{"type":"function","name":"isStrategist","inputs":[{"name":"_account","type":"address","internalType":"address"}],"outputs":[{"name":"","type":"bool","internalType":"bool"}],"stateMutability":"view"},{"type":"function","name":"ordinalsFromRoles","inputs":[{"name":"roles","type":"uint256","internalType":"uint256"}],"outputs":[{"name":"ordinals","type":"uint8[]","internalType":"uint8[]"}],"stateMutability":"pure"},{"type":"function","name":"owner","inputs":[],"outputs":[{"name":"result","type":"address","internalType":"address"}],"stateMutability":"view"},{"type":"function","name":"ownershipHandoverExpiresAt","inputs":[{"name":"pendingOwner","type":"address","internalType":"address"}],"outputs":[{"name":"result","type":"uint256","internalType":"uint256"}],"stateMutability":"view"},{"type":"function","name":"ownershipHandoverValidFor","inputs":[],"outputs":[{"name":"","type":"uint64","internalType":"uint64"}],"stateMutability":"view"},{"type":"function","name":"removeAdmin","inputs":[{"name":"_admin","type":"address","internalType":"address"}],"outputs":[],"stateMutability":"nonpayable"},{"type":"function","name":"removeDaoAccount","inputs":[{"name":"_daoAccount","type":"address","internalType":"address"}],"outputs":[],"stateMutability":"nonpayable"},{"type":"function","name":"removeGuardian","inputs":[{"name":"_guardian","type":"address","internalType":"address"}],"outputs":[],"stateMutability":"nonpayable"},{"type":"function","name":"removeStrategist","inputs":[{"name":"_strategist","type":"address","internalType":"address"}],"outputs":[],"stateMutability":"nonpayable"},{"type":"function","name":"renounceOwnership","inputs":[],"outputs":[],"stateMutability":"payable"},{"type":"function","name":"renounceRoles","inputs":[{"name":"roles","type":"uint256","internalType":"uint256"}],"outputs":[],"stateMutability":"payable"},{"type":"function","name":"requestOwnershipHandover","inputs":[],"outputs":[],"stateMutability":"payable"},{"type":"function","name":"revokeRoles","inputs":[{"name":"user","type":"address","internalType":"address"},{"name":"roles","type":"uint256","internalType":"uint256"}],"outputs":[],"stateMutability":"payable"},{"type":"function","name":"rolesFromOrdinals","inputs":[{"name":"ordinals","type":"uint8[]","internalType":"uint8[]"}],"outputs":[{"name":"roles","type":"uint256","internalType":"uint256"}],"stateMutability":"pure"},{"type":"function","name":"rolesOf","inputs":[{"name":"user","type":"address","internalType":"address"}],"outputs":[{"name":"roles","type":"uint256","internalType":"uint256"}],"stateMutability":"view"},{"type":"function","name":"transferOwnership","inputs":[{"name":"newOwner","type":"address","internalType":"address"}],"outputs":[],"stateMutability":"payable"},{"type":"event","name":"OwnershipHandoverCanceled","inputs":[{"name":"pendingOwner","type":"address","indexed":true,"internalType":"address"}],"anonymous":false},{"type":"event","name":"OwnershipHandoverRequested","inputs":[{"name":"pendingOwner","type":"address","indexed":true,"internalType":"address"}],"anonymous":false},{"type":"event","name":"OwnershipTransferred","inputs":[{"name":"oldOwner","type":"address","indexed":true,"internalType":"address"},{"name":"newOwner","type":"address","indexed":true,"internalType":"address"}],"anonymous":false},{"type":"event","name":"RolesUpdated","inputs":[{"name":"user","type":"address","indexed":true,"internalType":"address"},{"name":"roles","type":"uint256","indexed":true,"internalType":"uint256"}],"anonymous":false},{"type":"error","name":"NewOwnerIsZeroAddress","inputs":[]},{"type":"error","name":"NoHandoverRequest","inputs":[]},{"type":"error","name":"Unauthorized","inputs":[]}],"bytecode":{"object":"0x608060405234801561000f575f80fd5b506040516111c93803806111c983398181016040528101906100319190610138565b6100408161005760201b60201c565b61005181600261009160201b60201c565b50610163565b8060601b60601c905080638b78c6d81955805f7f8be0079c531659141344cd1fd0a4f28419497f9722a3daafe3b4186f6b6457e05f80a350565b638b78c6d88260601b175f5260205f2081815417808255808460601b60601c7f715ad5ce61fc9595c7b415289d59cf203f23a94fa06f04af7e489a0a76e1fe265f80a350505050565b5f80fd5b5f73ffffffffffffffffffffffffffffffffffffffff82169050919050565b5f610107826100de565b9050919050565b610117816100fd565b8114610121575f80fd5b50565b5f815190506101328161010e565b92915050565b5f6020828403121561014d5761014c6100da565b5b5f61015a84828501610124565b91505092915050565b611059806101705f395ff3fe6080604052600436106101b6575f3560e01c80636734faee116100eb5780639431383a11610089578063d7533f0211610063578063d7533f02146105b2578063f04e283e146105dc578063f2fde38b146105f8578063fee81cf414610614576101b6565b80639431383a1461053a5780639d21577714610562578063a526d83b1461058a576101b6565b8063715018a6116100c5578063715018a6146104a25780637359e41f146104ac57806381f8ed51146104e85780638da5cb5b14610510576101b6565b80636734faee146104165780637048027514610452578063714041561461047a576101b6565b80632319c534116101585780632de94807116101325780632de94807146103785780634a4ee7b1146103b4578063514e62fc146103d057806354d1f13d1461040c576101b6565b80632319c5341461030a57806324d7806c14610332578063256929621461036e576101b6565b8063183a4f6e11610194578063183a4f6e1461025a5780631c10893f146102765780631cd64df4146102925780631f9d8a60146102ce576101b6565b80630c68ba21146101ba57806313a661ed146101f65780631785f53c14610232575b5f80fd5b3480156101c5575f80fd5b506101e060048036038101906101db9190610bfa565b610650565b6040516101ed9190610c3f565b60405180910390f35b348015610201575f80fd5b5061021c60048036038101906102179190610dde565b610663565b6040516102299190610e3d565b60405180910390f35b34801561023d575f80fd5b5061025860048036038101906102539190610bfa565b610695565b005b610274600480360381019061026f9190610e80565b6106bd565b005b610290600480360381019061028b9190610eab565b6106ca565b005b34801561029d575f80fd5b506102b860048036038101906102b39190610eab565b6106f2565b6040516102c59190610c3f565b60405180910390f35b3480156102d9575f80fd5b506102f460048036038101906102ef9190610bfa565b610710565b6040516103019190610c3f565b60405180910390f35b348015610315575f80fd5b50610330600480360381019061032b9190610bfa565b610723565b005b34801561033d575f80fd5b5061035860048036038101906103539190610bfa565b61074b565b6040516103659190610c3f565b60405180910390f35b61037661075e565b005b348015610383575f80fd5b5061039e60048036038101906103999190610bfa565b6107af565b6040516103ab9190610e3d565b60405180910390f35b6103ce60048036038101906103c99190610eab565b6107c8565b005b3480156103db575f80fd5b506103f660048036038101906103f19190610eab565b6107f0565b6040516104039190610c3f565b60405180910390f35b61041461080e565b005b348015610421575f80fd5b5061043c60048036038101906104379190610bfa565b610847565b6040516104499190610c3f565b60405180910390f35b34801561045d575f80fd5b5061047860048036038101906104739190610bfa565b61085a565b005b348015610485575f80fd5b506104a0600480360381019061049b9190610bfa565b610882565b005b6104aa6108aa565b005b3480156104b7575f80fd5b506104d260048036038101906104cd9190610e80565b6108f4565b6040516104df9190610fa0565b60405180910390f35b3480156104f3575f80fd5b5061050e60048036038101906105099190610bfa565b610945565b005b34801561051b575f80fd5b5061052461096d565b6040516105319190610fcf565b60405180910390f35b348015610545575f80fd5b50610560600480360381019061055b9190610bfa565b61097a565b005b34801561056d575f80fd5b5061058860048036038101906105839190610bfa565b6109a2565b005b348015610595575f80fd5b506105b060048036038101906105ab9190610bfa565b6109ca565b005b3480156105bd575f80fd5b506105c66109f2565b6040516105d3919061100a565b60405180910390f35b6105f660048036038101906105f19190610bfa565b6109fc565b005b610612600480360381019061060d9190610bfa565b610a7a565b005b34801561061f575f80fd5b5061063a60048036038101906106359190610bfa565b610ae0565b6040516106479190610e3d565b60405180910390f35b5f61065c8260046107f0565b9050919050565b5f60208201825160051b81015b80821461068e57600160ff8351161b83179250602082019150610670565b5050919050565b638b78c6d8195433146106af576382b429005f526004601cfd5b6106ba816002610af9565b50565b6106c73382610af9565b50565b638b78c6d8195433146106e4576382b429005f526004601cfd5b6106ee8282610b46565b5050565b5f638b78c6d88360601b175f52818260205f20541614905092915050565b5f61071c8260106107f0565b9050919050565b638b78c6d81954331461073d576382b429005f526004601cfd5b610748816008610b46565b50565b5f6107578260026107f0565b9050919050565b5f6107676109f2565b67ffffffffffffffff164201905063389a75e13360601b175f528060205f2055337fdbf36a107da19e49527a7176a1babf963b4b0ff8cde35ee35d6cd8f1f9ac7e1d5f80a250565b5f638b78c6d88260601b175f5260205f20549050919050565b638b78c6d8195433146107e2576382b429005f526004601cfd5b6107ec8282610af9565b5050565b5f638b78c6d88360601b175f528160205f2054161515905092915050565b63389a75e13360601b175f525f60205f2055337ffa7b8eab7da67f412cc9575ed43464468f9bfbae89d1675917346ca6d8fe3c925f80a2565b5f6108538260086107f0565b9050919050565b638b78c6d819543314610874576382b429005f526004601cfd5b61087f816002610b46565b50565b638b78c6d81954331461089c576382b429005f526004601cfd5b6108a7816004610af9565b50565b638b78c6d8195433146108c4576382b429005f526004601cfd5b5f337f8be0079c531659141344cd1fd0a4f28419497f9722a3daafe3b4186f6b6457e05f80a35f638b78c6d81955565b60606020604051015f5b60011561092a578082526001841660051b820191508360011c9350831561092a576001810190506108fe565b5060405191508060405260208201810360051c825250919050565b638b78c6d81954331461095f576382b429005f526004601cfd5b61096a816010610af9565b50565b5f638b78c6d81954905090565b638b78c6d819543314610994576382b429005f526004601cfd5b61099f816010610b46565b50565b638b78c6d8195433146109bc576382b429005f526004601cfd5b6109c7816008610af9565b50565b638b78c6d8195433146109e4576382b429005f526004601cfd5b6109ef816004610b46565b50565b5f6202a300905090565b638b78c6d819543314610a16576382b429005f526004601cfd5b8060601b60601c905063389a75e18160601b175f5260205f208054421115610a4557636f5e88185f526004601cfd5b5f815581337f8be0079c531659141344cd1fd0a4f28419497f9722a3daafe3b4186f6b6457e05f80a381638b78c6d819555050565b638b78c6d819543314610a94576382b429005f526004601cfd5b8060601b60601c905080610aaf57637448fbae5f526004601cfd5b80337f8be0079c531659141344cd1fd0a4f28419497f9722a3daafe3b4186f6b6457e05f80a380638b78c6d8195550565b5f63389a75e18260601b175f5260205f20549050919050565b638b78c6d88260601b175f5260205f2080548281168118808355808560601b60601c7f715ad5ce61fc9595c7b415289d59cf203f23a94fa06f04af7e489a0a76e1fe265f80a35050505050565b638b78c6d88260601b175f5260205f2081815417808255808460601b60601c7f715ad5ce61fc9595c7b415289d59cf203f23a94fa06f04af7e489a0a76e1fe265f80a350505050565b5f604051905090565b5f80fd5b5f80fd5b5f73ffffffffffffffffffffffffffffffffffffffff82169050919050565b5f610bc982610ba0565b9050919050565b610bd981610bbf565b8114610be3575f80fd5b50565b5f81359050610bf481610bd0565b92915050565b5f60208284031215610c0f57610c0e610b98565b5b5f610c1c84828501610be6565b91505092915050565b5f8115159050919050565b610c3981610c25565b82525050565b5f602082019050610c525f830184610c30565b92915050565b5f80fd5b5f601f19601f8301169050919050565b7f4e487b71000000000000000000000000000000000000000000000000000000005f52604160045260245ffd5b610ca282610c5c565b810181811067ffffffffffffffff82111715610cc157610cc0610c6c565b5b80604052505050565b5f610cd3610b8f565b9050610cdf8282610c99565b919050565b5f67ffffffffffffffff821115610cfe57610cfd610c6c565b5b602082029050602081019050919050565b5f80fd5b5f60ff82169050919050565b610d2881610d13565b8114610d32575f80fd5b50565b5f81359050610d4381610d1f565b92915050565b5f610d5b610d5684610ce4565b610cca565b90508083825260208201905060208402830185811115610d7e57610d7d610d0f565b5b835b81811015610da75780610d938882610d35565b845260208401935050602081019050610d80565b5050509392505050565b5f82601f830112610dc557610dc4610c58565b5b8135610dd5848260208601610d49565b91505092915050565b5f60208284031215610df357610df2610b98565b5b5f82013567ffffffffffffffff811115610e1057610e0f610b9c565b5b610e1c84828501610db1565b91505092915050565b5f819050919050565b610e3781610e25565b82525050565b5f602082019050610e505f830184610e2e565b92915050565b610e5f81610e25565b8114610e69575f80fd5b50565b5f81359050610e7a81610e56565b92915050565b5f60208284031215610e9557610e94610b98565b5b5f610ea284828501610e6c565b91505092915050565b5f8060408385031215610ec157610ec0610b98565b5b5f610ece85828601610be6565b9250506020610edf85828601610e6c565b9150509250929050565b5f81519050919050565b5f82825260208201905092915050565b5f819050602082019050919050565b610f1b81610d13565b82525050565b5f610f2c8383610f12565b60208301905092915050565b5f602082019050919050565b5f610f4e82610ee9565b610f588185610ef3565b9350610f6383610f03565b805f5b83811015610f93578151610f7a8882610f21565b9750610f8583610f38565b925050600181019050610f66565b5085935050505092915050565b5f6020820190508181035f830152610fb88184610f44565b905092915050565b610fc981610bbf565b82525050565b5f602082019050610fe25f830184610fc0565b92915050565b5f67ffffffffffffffff82169050919050565b61100481610fe8565b82525050565b5f60208201905061101d5f830184610ffb565b9291505056fea264697066735822122057a04b1363dd75fdb3bfb5459a8a180a736613c1790793c6255111a67dc66d9164736f6c63430008190033","linkReferences":{}},"methodIdentifiers":{"addAdmin(address)":"70480275","addDaoAccount(address)":"9431383a","addGuardian(address)":"a526d83b","addStrategist(address)":"2319c534","cancelOwnershipHandover()":"54d1f13d","completeOwnershipHandover(address)":"f04e283e","grantRoles(address,uint256)":"1c10893f","hasAllRoles(address,uint256)":"1cd64df4","hasAnyRole(address,uint256)":"514e62fc","isAdmin(address)":"24d7806c","isDao(address)":"1f9d8a60","isGuardian(address)":"0c68ba21","isStrategist(address)":"6734faee","ordinalsFromRoles(uint256)":"7359e41f","owner()":"8da5cb5b","ownershipHandoverExpiresAt(address)":"fee81cf4","ownershipHandoverValidFor()":"d7533f02","removeAdmin(address)":"1785f53c","removeDaoAccount(address)":"81f8ed51","removeGuardian(address)":"71404156","removeStrategist(address)":"9d215777","renounceOwnership()":"715018a6","renounceRoles(uint256)":"183a4f6e","requestOwnershipHandover()":"25692962","revokeRoles(address,uint256)":"4a4ee7b1","rolesFromOrdinals(uint8[])":"13a661ed","rolesOf(address)":"2de94807","transferOwnership(address)":"f2fde38b"},"id":68}