{"abi":[{"type":"function","name":"adminManager","inputs":[],"outputs":[{"name":"","type":"address","internalType":"contract IEscrowAdminManager"}],"stateMutability":"view"},{"type":"function","name":"approve","inputs":[{"name":"_contractId","type":"uint256","internalType":"uint256"},{"name":"_amountApprove","type":"uint256","internalType":"uint256"},{"name":"_receiver","type":"address","internalType":"address"}],"outputs":[],"stateMutability":"nonpayable"},{"type":"function","name":"approveReturn","inputs":[{"name":"_contractId","type":"uint256","internalType":"uint256"}],"outputs":[],"stateMutability":"nonpayable"},{"type":"function","name":"cancelReturn","inputs":[{"name":"_contractId","type":"uint256","internalType":"uint256"},{"name":"_status","type":"uint8","internalType":"enum Enums.Status"}],"outputs":[],"stateMutability":"nonpayable"},{"type":"function","name":"claim","inputs":[{"name":"_contractId","type":"uint256","internalType":"uint256"}],"outputs":[],"stateMutability":"nonpayable"},{"type":"function","name":"client","inputs":[],"outputs":[{"name":"","type":"address","internalType":"address"}],"stateMutability":"view"},{"type":"function","name":"createDispute","inputs":[{"name":"_contractId","type":"uint256","internalType":"uint256"}],"outputs":[],"stateMutability":"nonpayable"},{"type":"function","name":"deposit","inputs":[{"name":"_deposit","type":"tuple","internalType":"struct IEscrowFixedPrice.Deposit","components":[{"name":"contractor","type":"address","internalType":"address"},{"name":"paymentToken","type":"address","internalType":"address"},{"name":"amount","type":"uint256","internalType":"uint256"},{"name":"amountToClaim","type":"uint256","internalType":"uint256"},{"name":"amountToWithdraw","type":"uint256","internalType":"uint256"},{"name":"contractorData","type":"bytes32","internalType":"bytes32"},{"name":"feeConfig","type":"uint8","internalType":"enum Enums.FeeConfig"},{"name":"status","type":"uint8","internalType":"enum Enums.Status"}]}],"outputs":[],"stateMutability":"nonpayable"},{"type":"function","name":"deposits","inputs":[{"name":"contractId","type":"uint256","internalType":"uint256"}],"outputs":[{"name":"contractor","type":"address","internalType":"address"},{"name":"paymentToken","type":"address","internalType":"address"},{"name":"amount","type":"uint256","internalType":"uint256"},{"name":"amountToClaim","type":"uint256","internalType":"uint256"},{"name":"amountToWithdraw","type":"uint256","internalType":"uint256"},{"name":"contractorData","type":"bytes32","internalType":"bytes32"},{"name":"feeConfig","type":"uint8","internalType":"enum Enums.FeeConfig"},{"name":"status","type":"uint8","internalType":"enum Enums.Status"}],"stateMutability":"view"},{"type":"function","name":"getContractorDataHash","inputs":[{"name":"_data","type":"bytes","internalType":"bytes"},{"name":"_salt","type":"bytes32","internalType":"bytes32"}],"outputs":[{"name":"","type":"bytes32","internalType":"bytes32"}],"stateMutability":"pure"},{"type":"function","name":"getCurrentContractId","inputs":[],"outputs":[{"name":"","type":"uint256","internalType":"uint256"}],"stateMutability":"view"},{"type":"function","name":"initialize","inputs":[{"name":"_client","type":"address","internalType":"address"},{"name":"_adminManager","type":"address","internalType":"address"},{"name":"_registry","type":"address","internalType":"address"}],"outputs":[],"stateMutability":"nonpayable"},{"type":"function","name":"initialized","inputs":[],"outputs":[{"name":"","type":"bool","internalType":"bool"}],"stateMutability":"view"},{"type":"function","name":"isValidSignature","inputs":[{"name":"_hash","type":"bytes32","internalType":"bytes32"},{"name":"_signature","type":"bytes","internalType":"bytes"}],"outputs":[{"name":"","type":"bytes4","internalType":"bytes4"}],"stateMutability":"view"},{"type":"function","name":"refill","inputs":[{"name":"_contractId","type":"uint256","internalType":"uint256"},{"name":"_amountAdditional","type":"uint256","internalType":"uint256"}],"outputs":[],"stateMutability":"nonpayable"},{"type":"function","name":"registry","inputs":[],"outputs":[{"name":"","type":"address","internalType":"contract IEscrowRegistry"}],"stateMutability":"view"},{"type":"function","name":"requestReturn","inputs":[{"name":"_contractId","type":"uint256","internalType":"uint256"}],"outputs":[],"stateMutability":"nonpayable"},{"type":"function","name":"resolveDispute","inputs":[{"name":"_contractId","type":"uint256","internalType":"uint256"},{"name":"_winner","type":"uint8","internalType":"enum Enums.Winner"},{"name":"_clientAmount","type":"uint256","internalType":"uint256"},{"name":"_contractorAmount","type":"uint256","internalType":"uint256"}],"outputs":[],"stateMutability":"nonpayable"},{"type":"function","name":"submit","inputs":[{"name":"_contractId","type":"uint256","internalType":"uint256"},{"name":"_data","type":"bytes","internalType":"bytes"},{"name":"_salt","type":"bytes32","internalType":"bytes32"}],"outputs":[],"stateMutability":"nonpayable"},{"type":"function","name":"transferClientOwnership","inputs":[{"name":"_newAccount","type":"address","internalType":"address"}],"outputs":[],"stateMutability":"nonpayable"},{"type":"function","name":"transferContractorOwnership","inputs":[{"name":"_contractId","type":"uint256","internalType":"uint256"},{"name":"_newAccount","type":"address","internalType":"address"}],"outputs":[],"stateMutability":"nonpayable"},{"type":"function","name":"updateAdminManager","inputs":[{"name":"_adminManager","type":"address","internalType":"address"}],"outputs":[],"stateMutability":"nonpayable"},{"type":"function","name":"updateRegistry","inputs":[{"name":"_registry","type":"address","internalType":"address"}],"outputs":[],"stateMutability":"nonpayable"},{"type":"function","name":"withdraw","inputs":[{"name":"_contractId","type":"uint256","internalType":"uint256"}],"outputs":[],"stateMutability":"nonpayable"},{"type":"event","name":"AdminManagerUpdated","inputs":[{"name":"adminManager","type":"address","indexed":false,"internalType":"address"}],"anonymous":false},{"type":"event","name":"Approved","inputs":[{"name":"approver","type":"address","indexed":true,"internalType":"address"},{"name":"contractId","type":"uint256","indexed":true,"internalType":"uint256"},{"name":"amountApprove","type":"uint256","indexed":false,"internalType":"uint256"},{"name":"receiver","type":"address","indexed":true,"internalType":"address"}],"anonymous":false},{"type":"event","name":"Claimed","inputs":[{"name":"contractor","type":"address","indexed":true,"internalType":"address"},{"name":"contractId","type":"uint256","indexed":true,"internalType":"uint256"},{"name":"amount","type":"uint256","indexed":false,"internalType":"uint256"},{"name":"feeAmount","type":"uint256","indexed":false,"internalType":"uint256"}],"anonymous":false},{"type":"event","name":"ClientOwnershipTransferred","inputs":[{"name":"previousOwner","type":"address","indexed":true,"internalType":"address"},{"name":"newOwner","type":"address","indexed":true,"internalType":"address"}],"anonymous":false},{"type":"event","name":"ContractorOwnershipTransferred","inputs":[{"name":"contractId","type":"uint256","indexed":true,"internalType":"uint256"},{"name":"previousOwner","type":"address","indexed":true,"internalType":"address"},{"name":"newOwner","type":"address","indexed":true,"internalType":"address"}],"anonymous":false},{"type":"event","name":"Deposited","inputs":[{"name":"depositor","type":"address","indexed":true,"internalType":"address"},{"name":"contractId","type":"uint256","indexed":true,"internalType":"uint256"},{"name":"totalDepositAmount","type":"uint256","indexed":false,"internalType":"uint256"},{"name":"contractor","type":"address","indexed":true,"internalType":"address"}],"anonymous":false},{"type":"event","name":"DisputeCreated","inputs":[{"name":"sender","type":"address","indexed":true,"internalType":"address"},{"name":"contractId","type":"uint256","indexed":false,"internalType":"uint256"}],"anonymous":false},{"type":"event","name":"DisputeResolved","inputs":[{"name":"approver","type":"address","indexed":true,"internalType":"address"},{"name":"contractId","type":"uint256","indexed":false,"internalType":"uint256"},{"name":"winner","type":"uint8","indexed":false,"internalType":"enum Enums.Winner"},{"name":"clientAmount","type":"uint256","indexed":false,"internalType":"uint256"},{"name":"contractorAmount","type":"uint256","indexed":false,"internalType":"uint256"}],"anonymous":false},{"type":"event","name":"Refilled","inputs":[{"name":"sender","type":"address","indexed":true,"internalType":"address"},{"name":"contractId","type":"uint256","indexed":true,"internalType":"uint256"},{"name":"amountAdditional","type":"uint256","indexed":false,"internalType":"uint256"}],"anonymous":false},{"type":"event","name":"RegistryUpdated","inputs":[{"name":"registry","type":"address","indexed":false,"internalType":"address"}],"anonymous":false},{"type":"event","name":"ReturnApproved","inputs":[{"name":"approver","type":"address","indexed":true,"internalType":"address"},{"name":"contractId","type":"uint256","indexed":false,"internalType":"uint256"}],"anonymous":false},{"type":"event","name":"ReturnCanceled","inputs":[{"name":"sender","type":"address","indexed":true,"internalType":"address"},{"name":"contractId","type":"uint256","indexed":false,"internalType":"uint256"}],"anonymous":false},{"type":"event","name":"ReturnRequested","inputs":[{"name":"sender","type":"address","indexed":true,"internalType":"address"},{"name":"contractId","type":"uint256","indexed":false,"internalType":"uint256"}],"anonymous":false},{"type":"event","name":"Submitted","inputs":[{"name":"sender","type":"address","indexed":true,"internalType":"address"},{"name":"contractId","type":"uint256","indexed":true,"internalType":"uint256"}],"anonymous":false},{"type":"event","name":"Withdrawn","inputs":[{"name":"withdrawer","type":"address","indexed":true,"internalType":"address"},{"name":"contractId","type":"uint256","indexed":true,"internalType":"uint256"},{"name":"amount","type":"uint256","indexed":false,"internalType":"uint256"},{"name":"feeAmount","type":"uint256","indexed":false,"internalType":"uint256"}],"anonymous":false},{"type":"error","name":"Escrow__AlreadyInitialized","inputs":[]},{"type":"error","name":"Escrow__BlacklistedAccount","inputs":[]},{"type":"error","name":"Escrow__ContractorMismatch","inputs":[]},{"type":"error","name":"Escrow__CreateDisputeNotAllowed","inputs":[]},{"type":"error","name":"Escrow__DisputeNotActiveForThisDeposit","inputs":[]},{"type":"error","name":"Escrow__FeeTooHigh","inputs":[]},{"type":"error","name":"Escrow__InvalidAmount","inputs":[]},{"type":"error","name":"Escrow__InvalidContractorDataHash","inputs":[]},{"type":"error","name":"Escrow__InvalidFeeConfig","inputs":[]},{"type":"error","name":"Escrow__InvalidRange","inputs":[]},{"type":"error","name":"Escrow__InvalidStatusForApprove","inputs":[]},{"type":"error","name":"Escrow__InvalidStatusForSubmit","inputs":[]},{"type":"error","name":"Escrow__InvalidStatusProvided","inputs":[]},{"type":"error","name":"Escrow__InvalidStatusToClaim","inputs":[]},{"type":"error","name":"Escrow__InvalidStatusToWithdraw","inputs":[]},{"type":"error","name":"Escrow__InvalidWinnerSpecified","inputs":[]},{"type":"error","name":"Escrow__NoFundsAvailableForWithdraw","inputs":[]},{"type":"error","name":"Escrow__NoReturnRequested","inputs":[]},{"type":"error","name":"Escrow__NotApproved","inputs":[]},{"type":"error","name":"Escrow__NotEnoughDeposit","inputs":[]},{"type":"error","name":"Escrow__NotSetFeeManager","inputs":[]},{"type":"error","name":"Escrow__NotSupportedPaymentToken","inputs":[]},{"type":"error","name":"Escrow__OutOfRange","inputs":[]},{"type":"error","name":"Escrow__ResolutionExceedsDepositedAmount","inputs":[]},{"type":"error","name":"Escrow__ReturnNotAllowed","inputs":[]},{"type":"error","name":"Escrow__UnauthorizedAccount","inputs":[{"name":"account","type":"address","internalType":"address"}]},{"type":"error","name":"Escrow__UnauthorizedReceiver","inputs":[]},{"type":"error","name":"Escrow__UnauthorizedToApproveDispute","inputs":[]},{"type":"error","name":"Escrow__UnauthorizedToApproveReturn","inputs":[]},{"type":"error","name":"Escrow__ZeroAddressProvided","inputs":[]},{"type":"error","name":"Escrow__ZeroDepositAmount","inputs":[]}],"bytecode":{"object":"0x6080604052348015600e575f80fd5b506146178061001c5f395ff3fe608060405234801561000f575f80fd5b5060043610610156575f3560e01c80637b103999116100c1578063b02c43d01161007a578063b02c43d014610384578063b7019253146103bb578063c0c53b8b146103d7578063cce3de81146103f3578063d077a4f81461040f578063f9e1302a1461042b57610156565b80637b103999146102d65780638588ea3d146102f45780638c62e5941461031057806398ebf85d1461032c57806399c4b24c14610348578063a210b6a41461036657610156565b80633d20c71e116101135780633d20c71e1461021a5780634334bd9d1461024a5780634ac8a5291461026657806358676582146102825780635a3c88ea1461029e5780636d079469146102ba57610156565b8063109e94cf1461015a578063158ef93e146101785780631626ba7e146101965780631a5da6c8146101c65780632e1a7d4d146101e2578063379607f5146101fe575b5f80fd5b610162610447565b60405161016f9190613983565b60405180910390f35b61018061046c565b60405161018d91906139b6565b60405180910390f35b6101b060048036038101906101ab9190613a6b565b61047e565b6040516101bd9190613b02565b60405180910390f35b6101e060048036038101906101db9190613b45565b6104b0565b005b6101fc60048036038101906101f79190613ba3565b610667565b005b61021860048036038101906102139190613ba3565b610a55565b005b610234600480360381019061022f9190613bce565b610f11565b6040516102419190613c3a565b60405180910390f35b610264600480360381019061025f9190613c76565b610f26565b005b610280600480360381019061027b9190613ba3565b6113ba565b005b61029c60048036038101906102979190613ba3565b6115e2565b005b6102b860048036038101906102b39190613ba3565b61183d565b005b6102d460048036038101906102cf9190613ca2565b611a75565b005b6102de611cae565b6040516102eb9190613d3b565b60405180910390f35b61030e60048036038101906103099190613d77565b611cd3565b005b61032a60048036038101906103259190613b45565b611f59565b005b61034660048036038101906103419190613db5565b612132565b005b61035061239e565b60405161035d9190613e02565b60405180910390f35b61036e6123a7565b60405161037b9190613e3b565b60405180910390f35b61039e60048036038101906103999190613ba3565b6123ca565b6040516103b2989796959493929190613f0d565b60405180910390f35b6103d560048036038101906103d09190613f89565b612465565b005b6103f160048036038101906103ec9190613fd9565b6127db565b005b61040d60048036038101906104089190613b45565b6129d1565b005b6104296004803603810190610424919061404c565b612bf1565b005b610445600480360381019061044091906140b0565b612f5e565b005b60025f9054906101000a900473ffffffffffffffffffffffffffffffffffffffff1681565b60045f9054906101000a900460ff1681565b5f61048a8484846131d4565b1561049e57631626ba7e60e01b90506104a9565b63ffffffff60e01b90505b9392505050565b5f8054906101000a900473ffffffffffffffffffffffffffffffffffffffff1673ffffffffffffffffffffffffffffffffffffffff166324d7806c336040518263ffffffff1660e01b81526004016105089190613983565b602060405180830381865afa158015610523573d5f803e3d5ffd5b505050506040513d601f19601f82011682018060405250810190610547919061414b565b61058857336040517f65823a2000000000000000000000000000000000000000000000000000000000815260040161057f9190613983565b60405180910390fd5b5f73ffffffffffffffffffffffffffffffffffffffff168173ffffffffffffffffffffffffffffffffffffffff16036105ed576040517fdc676cab00000000000000000000000000000000000000000000000000000000815260040160405180910390fd5b8060015f6101000a81548173ffffffffffffffffffffffffffffffffffffffff021916908373ffffffffffffffffffffffffffffffffffffffff1602179055507fd6ceddf6d2a22f21c7c81675c518004eff43bc5c8a6fc32a0b748e69d58671cd8160405161065c9190613983565b60405180910390a150565b60025f9054906101000a900473ffffffffffffffffffffffffffffffffffffffff1673ffffffffffffffffffffffffffffffffffffffff163373ffffffffffffffffffffffffffffffffffffffff16146106f857336040517f65823a200000000000000000000000000000000000000000000000000000000081526004016106ef9190613983565b60405180910390fd5b60015f9054906101000a900473ffffffffffffffffffffffffffffffffffffffff1673ffffffffffffffffffffffffffffffffffffffff1663f9f92be4336040518263ffffffff1660e01b81526004016107529190613983565b602060405180830381865afa15801561076d573d5f803e3d5ffd5b505050506040513d601f19601f82011682018060405250810190610791919061414b565b156107c8576040517fe2eb7ad400000000000000000000000000000000000000000000000000000000815260040160405180910390fd5b5f60055f8381526020019081526020015f209050600860098111156107f0576107ef613e54565b5b8160060160019054906101000a900460ff16600981111561081457610813613e54565b5b1415801561085857506007600981111561083157610830613e54565b5b8160060160019054906101000a900460ff16600981111561085557610854613e54565b5b14155b1561088f576040517fea9b41cf00000000000000000000000000000000000000000000000000000000815260040160405180910390fd5b5f8160040154036108cc576040517f91533c4900000000000000000000000000000000000000000000000000000000815260040160405180910390fd5b5f6108ed83338460040154856006015f9054906101000a900460ff1661329f565b9150505f61091184338560020154866006015f9054906101000a900460ff1661329f565b9150508260040154836002015f82825461092b91906141a3565b925050819055505f82846004015461094391906141d6565b90505f846004018190555060098460060160016101000a81548160ff0219169083600981111561097657610975613e54565b5b02179055506109a9846001015f9054906101000a900473ffffffffffffffffffffffffffffffffffffffff16338361342d565b5f8383116109b7575f6109c4565b83836109c391906141a3565b5b90505f8111156109fc576109fb856001015f9054906101000a900473ffffffffffffffffffffffffffffffffffffffff168261346e565b5b853373ffffffffffffffffffffffffffffffffffffffff167f75e161b3e824b114fc1a33274bd7091918dd4e639cede50b78b15a4eea956a218484604051610a45929190614209565b60405180910390a3505050505050565b60015f9054906101000a900473ffffffffffffffffffffffffffffffffffffffff1673ffffffffffffffffffffffffffffffffffffffff1663f9f92be4336040518263ffffffff1660e01b8152600401610aaf9190613983565b602060405180830381865afa158015610aca573d5f803e3d5ffd5b505050506040513d601f19601f82011682018060405250810190610aee919061414b565b15610b25576040517fe2eb7ad400000000000000000000000000000000000000000000000000000000815260040160405180910390fd5b5f60055f8381526020019081526020015f20905060036009811115610b4d57610b4c613e54565b5b8160060160019054906101000a900460ff166009811115610b7157610b70613e54565b5b14158015610bb5575060076009811115610b8e57610b8d613e54565b5b8160060160019054906101000a900460ff166009811115610bb257610bb1613e54565b5b14155b8015610bf65750600980811115610bcf57610bce613e54565b5b8160060160019054906101000a900460ff166009811115610bf357610bf2613e54565b5b14155b15610c2d576040517fc57c4a9a00000000000000000000000000000000000000000000000000000000815260040160405180910390fd5b5f816003015403610c6a576040517f6b02ce8f00000000000000000000000000000000000000000000000000000000815260040160405180910390fd5b3373ffffffffffffffffffffffffffffffffffffffff16815f015f9054906101000a900473ffffffffffffffffffffffffffffffffffffffff1673ffffffffffffffffffffffffffffffffffffffff1614610cfc57336040517f65823a20000000000000000000000000000000000000000000000000000000008152600401610cf39190613983565b60405180910390fd5b5f805f610d1f85338660030154876006015f9054906101000a900460ff16613574565b9250925092508360030154846002015f828254610d3c91906141a3565b925050819055505f8460030181905550610d7a846001015f9054906101000a900473ffffffffffffffffffffffffffffffffffffffff16338561342d565b60076009811115610d8e57610d8d613e54565b5b8460060160019054906101000a900460ff166009811115610db257610db1613e54565b5b1480610df25750600980811115610dcc57610dcb613e54565b5b8460060160019054906101000a900460ff166009811115610df057610def613e54565b5b145b8015610dfd57505f82115b15610e3457610e2f846001015f9054906101000a900473ffffffffffffffffffffffffffffffffffffffff168361346e565b610e80565b5f821180610e4157505f81115b15610e7f57610e7e846001015f9054906101000a900473ffffffffffffffffffffffffffffffffffffffff168284610e7991906141d6565b61346e565b5b5b5f846002015403610eb95760048460060160016101000a81548160ff02191690836009811115610eb357610eb2613e54565b5b02179055505b843373ffffffffffffffffffffffffffffffffffffffff167f9cdcf2f7714cca3508c7f0110b04a90a80a3a8dd0e35de99689db74d28c5383e8585604051610f02929190614209565b60405180910390a35050505050565b5f610f1d848484613709565b90509392505050565b60025f9054906101000a900473ffffffffffffffffffffffffffffffffffffffff1673ffffffffffffffffffffffffffffffffffffffff163373ffffffffffffffffffffffffffffffffffffffff1614610fb757336040517f65823a20000000000000000000000000000000000000000000000000000000008152600401610fae9190613983565b60405180910390fd5b60015f9054906101000a900473ffffffffffffffffffffffffffffffffffffffff1673ffffffffffffffffffffffffffffffffffffffff1663f9f92be4336040518263ffffffff1660e01b81526004016110119190613983565b602060405180830381865afa15801561102c573d5f803e3d5ffd5b505050506040513d601f19601f82011682018060405250810190611050919061414b565b15611087576040517fe2eb7ad400000000000000000000000000000000000000000000000000000000815260040160405180910390fd5b60015f9054906101000a900473ffffffffffffffffffffffffffffffffffffffff1673ffffffffffffffffffffffffffffffffffffffff1663c3b88b428260200160208101906110d79190613b45565b6040518263ffffffff1660e01b81526004016110f39190613983565b602060405180830381865afa15801561110e573d5f803e3d5ffd5b505050506040513d601f19601f82011682018060405250810190611132919061414b565b611168576040517f800a391c00000000000000000000000000000000000000000000000000000000815260040160405180910390fd5b5f8160400135036111a5576040517f3b68c52900000000000000000000000000000000000000000000000000000000815260040160405180910390fd5b60035f81548092919060010191905055505f60055f60035481526020019081526020015f209050815f0160208101906111de9190613b45565b815f015f6101000a81548173ffffffffffffffffffffffffffffffffffffffff021916908373ffffffffffffffffffffffffffffffffffffffff1602179055508160200160208101906112319190613b45565b816001015f6101000a81548173ffffffffffffffffffffffffffffffffffffffff021916908373ffffffffffffffffffffffffffffffffffffffff160217905550816040013581600201819055508160a0013581600501819055508160c001602081019061129f9190614253565b816006015f6101000a81548160ff021916908360048111156112c4576112c3613e54565b5b021790555060018160060160016101000a81548160ff021916908360098111156112f1576112f0613e54565b5b02179055505f61131b6003543385604001358660c00160208101906113169190614253565b61329f565b50905061133c8360200160208101906113349190613b45565b33308461373e565b825f01602081019061134e9190613b45565b73ffffffffffffffffffffffffffffffffffffffff166003543373ffffffffffffffffffffffffffffffffffffffff167fa49637e3f6491de6c2c23c5006bef69df603d0dba9d65c8b756fe46ac29810b9846040516113ad9190613e02565b60405180910390a4505050565b5f60055f8381526020019081526020015f209050600560098111156113e2576113e1613e54565b5b8160060160019054906101000a900460ff16600981111561140657611405613e54565b5b1415801561144a57506002600981111561142357611422613e54565b5b8160060160019054906101000a900460ff16600981111561144757611446613e54565b5b14155b15611481576040517f0ce3dabc00000000000000000000000000000000000000000000000000000000815260040160405180910390fd5b60025f9054906101000a900473ffffffffffffffffffffffffffffffffffffffff1673ffffffffffffffffffffffffffffffffffffffff163373ffffffffffffffffffffffffffffffffffffffff161415801561152c5750805f015f9054906101000a900473ffffffffffffffffffffffffffffffffffffffff1673ffffffffffffffffffffffffffffffffffffffff163373ffffffffffffffffffffffffffffffffffffffff1614155b15611563576040517fa409840800000000000000000000000000000000000000000000000000000000815260040160405180910390fd5b60068160060160016101000a81548160ff0219169083600981111561158b5761158a613e54565b5b02179055503373ffffffffffffffffffffffffffffffffffffffff167f3fe8d10fd802469ff2d30bb2e9743433b98db16950c5a1570663d3a11f57720b836040516115d69190613e02565b60405180910390a25050565b60025f9054906101000a900473ffffffffffffffffffffffffffffffffffffffff1673ffffffffffffffffffffffffffffffffffffffff163373ffffffffffffffffffffffffffffffffffffffff161461167357336040517f65823a2000000000000000000000000000000000000000000000000000000000815260040161166a9190613983565b60405180910390fd5b5f60055f8381526020019081526020015f2090506001600981111561169b5761169a613e54565b5b8160060160019054906101000a900460ff1660098111156116bf576116be613e54565b5b141580156117035750600260098111156116dc576116db613e54565b5b8160060160019054906101000a900460ff166009811115611700576116ff613e54565b5b14155b801561174557506003600981111561171e5761171d613e54565b5b8160060160019054906101000a900460ff16600981111561174257611741613e54565b5b14155b80156117875750600460098111156117605761175f613e54565b5b8160060160019054906101000a900460ff16600981111561178457611783613e54565b5b14155b156117be576040517f2d5adc4200000000000000000000000000000000000000000000000000000000815260040160405180910390fd5b60058160060160016101000a81548160ff021916908360098111156117e6576117e5613e54565b5b02179055503373ffffffffffffffffffffffffffffffffffffffff167f304cb4352da5a899bd058ad614ef730382d644701193a3331953fd4456768bd5836040516118319190613e02565b60405180910390a25050565b5f60055f8381526020019081526020015f2090506005600981111561186557611864613e54565b5b8160060160019054906101000a900460ff16600981111561188957611888613e54565b5b146118c0576040517fe828419600000000000000000000000000000000000000000000000000000000815260040160405180910390fd5b805f015f9054906101000a900473ffffffffffffffffffffffffffffffffffffffff1673ffffffffffffffffffffffffffffffffffffffff163373ffffffffffffffffffffffffffffffffffffffff16141580156119b257505f8054906101000a900473ffffffffffffffffffffffffffffffffffffffff1673ffffffffffffffffffffffffffffffffffffffff166324d7806c336040518263ffffffff1660e01b81526004016119719190613983565b602060405180830381865afa15801561198c573d5f803e3d5ffd5b505050506040513d601f19601f820116820180604052508101906119b0919061414b565b155b156119e9576040517f9878552e00000000000000000000000000000000000000000000000000000000815260040160405180910390fd5b8060020154816004018190555060088160060160016101000a81548160ff02191690836009811115611a1e57611a1d613e54565b5b02179055503373ffffffffffffffffffffffffffffffffffffffff167f250546cc3ce5d1e96179a08952362712d5396cbea88ee493feec2ebf76ba107e83604051611a699190613e02565b60405180910390a25050565b60015f9054906101000a900473ffffffffffffffffffffffffffffffffffffffff1673ffffffffffffffffffffffffffffffffffffffff1663f58df7526040518163ffffffff1660e01b8152600401602060405180830381865afa158015611adf573d5f803e3d5ffd5b505050506040513d601f19601f82011682018060405250810190611b039190614292565b73ffffffffffffffffffffffffffffffffffffffff163373ffffffffffffffffffffffffffffffffffffffff1614611b7257336040517f65823a20000000000000000000000000000000000000000000000000000000008152600401611b699190613983565b60405180910390fd5b5f73ffffffffffffffffffffffffffffffffffffffff168173ffffffffffffffffffffffffffffffffffffffff1603611bd7576040517fdc676cab00000000000000000000000000000000000000000000000000000000815260040160405180910390fd5b5f60055f8481526020019081526020015f2090508173ffffffffffffffffffffffffffffffffffffffff16815f015f9054906101000a900473ffffffffffffffffffffffffffffffffffffffff1673ffffffffffffffffffffffffffffffffffffffff16847fe066c3cb94248d16e9353d7bb30f5ef028cc262ad9c06df7cdc4730ac8f58eb760405160405180910390a481815f015f6101000a81548173ffffffffffffffffffffffffffffffffffffffff021916908373ffffffffffffffffffffffffffffffffffffffff160217905550505050565b60015f9054906101000a900473ffffffffffffffffffffffffffffffffffffffff1681565b60025f9054906101000a900473ffffffffffffffffffffffffffffffffffffffff1673ffffffffffffffffffffffffffffffffffffffff163373ffffffffffffffffffffffffffffffffffffffff1614611d6457336040517f65823a20000000000000000000000000000000000000000000000000000000008152600401611d5b9190613983565b60405180910390fd5b5f60055f8481526020019081526020015f20905060056009811115611d8c57611d8b613e54565b5b8160060160019054906101000a900460ff166009811115611db057611daf613e54565b5b14611de7576040517fe828419600000000000000000000000000000000000000000000000000000000815260040160405180910390fd5b60016009811115611dfb57611dfa613e54565b5b826009811115611e0e57611e0d613e54565b5b14158015611e41575060026009811115611e2b57611e2a613e54565b5b826009811115611e3e57611e3d613e54565b5b14155b8015611e72575060036009811115611e5c57611e5b613e54565b5b826009811115611e6f57611e6e613e54565b5b14155b8015611ea3575060046009811115611e8d57611e8c613e54565b5b826009811115611ea057611e9f613e54565b5b14155b15611eda576040517f65aed4e800000000000000000000000000000000000000000000000000000000815260040160405180910390fd5b818160060160016101000a81548160ff02191690836009811115611f0157611f00613e54565b5b02179055503373ffffffffffffffffffffffffffffffffffffffff167f3b5e3bb2d6626166d4a596b6d05551dce617e3c39bdbf957740a4b1524c85bb484604051611f4c9190613e02565b60405180910390a2505050565b5f8054906101000a900473ffffffffffffffffffffffffffffffffffffffff1673ffffffffffffffffffffffffffffffffffffffff16638da5cb5b6040518163ffffffff1660e01b8152600401602060405180830381865afa158015611fc1573d5f803e3d5ffd5b505050506040513d601f19601f82011682018060405250810190611fe59190614292565b73ffffffffffffffffffffffffffffffffffffffff163373ffffffffffffffffffffffffffffffffffffffff161461205457336040517f65823a2000000000000000000000000000000000000000000000000000000000815260040161204b9190613983565b60405180910390fd5b5f73ffffffffffffffffffffffffffffffffffffffff168173ffffffffffffffffffffffffffffffffffffffff16036120b9576040517fdc676cab00000000000000000000000000000000000000000000000000000000815260040160405180910390fd5b805f806101000a81548173ffffffffffffffffffffffffffffffffffffffff021916908373ffffffffffffffffffffffffffffffffffffffff1602179055507fae0b51d5743004c7c8d5baf4068214f299f2b88b9fc91758454d5ac7d69c9491816040516121279190613983565b60405180910390a150565b60025f9054906101000a900473ffffffffffffffffffffffffffffffffffffffff1673ffffffffffffffffffffffffffffffffffffffff163373ffffffffffffffffffffffffffffffffffffffff16146121c357336040517f65823a200000000000000000000000000000000000000000000000000000000081526004016121ba9190613983565b60405180910390fd5b60015f9054906101000a900473ffffffffffffffffffffffffffffffffffffffff1673ffffffffffffffffffffffffffffffffffffffff1663f9f92be4336040518263ffffffff1660e01b815260040161221d9190613983565b602060405180830381865afa158015612238573d5f803e3d5ffd5b505050506040513d601f19601f8201168201806040525081019061225c919061414b565b15612293576040517fe2eb7ad400000000000000000000000000000000000000000000000000000000815260040160405180910390fd5b5f81036122cc576040517fad22439800000000000000000000000000000000000000000000000000000000815260040160405180910390fd5b5f60055f8481526020019081526020015f2090505f6122fd843385856006015f9054906101000a900460ff1661329f565b50905061232f826001015f9054906101000a900473ffffffffffffffffffffffffffffffffffffffff1633308461373e565b82826002015f82825461234291906141d6565b92505081905550833373ffffffffffffffffffffffffffffffffffffffff167f19aee2c21e4d63823896cb2a77a3e61197dda70b1043a55fca38aa8d75c0edd3856040516123909190613e02565b60405180910390a350505050565b5f600354905090565b5f8054906101000a900473ffffffffffffffffffffffffffffffffffffffff1681565b6005602052805f5260405f205f91509050805f015f9054906101000a900473ffffffffffffffffffffffffffffffffffffffff1690806001015f9054906101000a900473ffffffffffffffffffffffffffffffffffffffff1690806002015490806003015490806004015490806005015490806006015f9054906101000a900460ff16908060060160019054906101000a900460ff16905088565b60025f9054906101000a900473ffffffffffffffffffffffffffffffffffffffff1673ffffffffffffffffffffffffffffffffffffffff163373ffffffffffffffffffffffffffffffffffffffff161415801561255657505f8054906101000a900473ffffffffffffffffffffffffffffffffffffffff1673ffffffffffffffffffffffffffffffffffffffff166324d7806c336040518263ffffffff1660e01b81526004016125159190613983565b602060405180830381865afa158015612530573d5f803e3d5ffd5b505050506040513d601f19601f82011682018060405250810190612554919061414b565b155b1561259857336040517f65823a2000000000000000000000000000000000000000000000000000000000815260040161258f9190613983565b60405180910390fd5b5f82036125d1576040517fad22439800000000000000000000000000000000000000000000000000000000815260040160405180910390fd5b5f60055f8581526020019081526020015f209050600260098111156125f9576125f8613e54565b5b8160060160019054906101000a900460ff16600981111561261d5761261c613e54565b5b14612654576040517f4e19ad4700000000000000000000000000000000000000000000000000000000815260040160405180910390fd5b8173ffffffffffffffffffffffffffffffffffffffff16815f015f9054906101000a900473ffffffffffffffffffffffffffffffffffffffff1673ffffffffffffffffffffffffffffffffffffffff16146126db576040517f5ea782de00000000000000000000000000000000000000000000000000000000815260040160405180910390fd5b80600201548382600301546126f091906141d6565b1115612728576040517ff3e6775700000000000000000000000000000000000000000000000000000000815260040160405180910390fd5b82816003015f82825461273b91906141d6565b9250508190555060038160060160016101000a81548160ff0219169083600981111561276a57612769613e54565b5b02179055508173ffffffffffffffffffffffffffffffffffffffff16843373ffffffffffffffffffffffffffffffffffffffff167f1e8948542645f3b4e1c5890f186b425de0a748a1cefc29b7fd00ae58a25821e5866040516127cd9190613e02565b60405180910390a450505050565b60045f9054906101000a900460ff1615612821576040517f29d27b3800000000000000000000000000000000000000000000000000000000815260040160405180910390fd5b5f73ffffffffffffffffffffffffffffffffffffffff168373ffffffffffffffffffffffffffffffffffffffff16148061288657505f73ffffffffffffffffffffffffffffffffffffffff168273ffffffffffffffffffffffffffffffffffffffff16145b806128bc57505f73ffffffffffffffffffffffffffffffffffffffff168173ffffffffffffffffffffffffffffffffffffffff16145b156128f3576040517fdc676cab00000000000000000000000000000000000000000000000000000000815260040160405180910390fd5b8260025f6101000a81548173ffffffffffffffffffffffffffffffffffffffff021916908373ffffffffffffffffffffffffffffffffffffffff160217905550815f806101000a81548173ffffffffffffffffffffffffffffffffffffffff021916908373ffffffffffffffffffffffffffffffffffffffff1602179055508060015f6101000a81548173ffffffffffffffffffffffffffffffffffffffff021916908373ffffffffffffffffffffffffffffffffffffffff160217905550600160045f6101000a81548160ff021916908315150217905550505050565b60015f9054906101000a900473ffffffffffffffffffffffffffffffffffffffff1673ffffffffffffffffffffffffffffffffffffffff1663f58df7526040518163ffffffff1660e01b8152600401602060405180830381865afa158015612a3b573d5f803e3d5ffd5b505050506040513d601f19601f82011682018060405250810190612a5f9190614292565b73ffffffffffffffffffffffffffffffffffffffff163373ffffffffffffffffffffffffffffffffffffffff1614612ace57336040517f65823a20000000000000000000000000000000000000000000000000000000008152600401612ac59190613983565b60405180910390fd5b5f73ffffffffffffffffffffffffffffffffffffffff168173ffffffffffffffffffffffffffffffffffffffff1603612b33576040517fdc676cab00000000000000000000000000000000000000000000000000000000815260040160405180910390fd5b8073ffffffffffffffffffffffffffffffffffffffff1660025f9054906101000a900473ffffffffffffffffffffffffffffffffffffffff1673ffffffffffffffffffffffffffffffffffffffff167f98b29eb9b91620effb197cb3c80c0ecb52300a1c251acaf3361577cf362aafcd60405160405180910390a38060025f6101000a81548173ffffffffffffffffffffffffffffffffffffffff021916908373ffffffffffffffffffffffffffffffffffffffff16021790555050565b5f8054906101000a900473ffffffffffffffffffffffffffffffffffffffff1673ffffffffffffffffffffffffffffffffffffffff166324d7806c336040518263ffffffff1660e01b8152600401612c499190613983565b602060405180830381865afa158015612c64573d5f803e3d5ffd5b505050506040513d601f19601f82011682018060405250810190612c88919061414b565b612cc957336040517f65823a20000000000000000000000000000000000000000000000000000000008152600401612cc09190613983565b60405180910390fd5b5f60055f8681526020019081526020015f20905060066009811115612cf157612cf0613e54565b5b8160060160019054906101000a900460ff166009811115612d1557612d14613e54565b5b14612d4c576040517fa98ca33000000000000000000000000000000000000000000000000000000000815260040160405180910390fd5b5f8284612d5991906141d6565b90508160020154811115612d99576040517f774c2f4f00000000000000000000000000000000000000000000000000000000815260040160405180910390fd5b60026003811115612dad57612dac613e54565b5b856003811115612dc057612dbf613e54565b5b1480612def5750600380811115612dda57612dd9613e54565b5b856003811115612ded57612dec613e54565b5b145b612df9575f612dfb565b825b826003018190555060026003811115612e1757612e16613e54565b5b856003811115612e2a57612e29613e54565b5b03612e6a5760038260060160016101000a81548160ff02191690836009811115612e5757612e56613e54565b5b02179055505f8260040181905550612f02565b60078260060160016101000a81548160ff02191690836009811115612e9257612e91613e54565b5b021790555060016003811115612eab57612eaa613e54565b5b856003811115612ebe57612ebd613e54565b5b1480612eed5750600380811115612ed857612ed7613e54565b5b856003811115612eeb57612eea613e54565b5b145b612ef7575f612ef9565b835b82600401819055505b3373ffffffffffffffffffffffffffffffffffffffff167ffc84efce4b6f7d9db29392869e18e46c2e80df635689a1613328f724eb7714c087878787604051612f4e9493929190614303565b60405180910390a2505050505050565b5f60055f8681526020019081526020015f2090505f73ffffffffffffffffffffffffffffffffffffffff16815f015f9054906101000a900473ffffffffffffffffffffffffffffffffffffffff1673ffffffffffffffffffffffffffffffffffffffff161415801561301e5750805f015f9054906101000a900473ffffffffffffffffffffffffffffffffffffffff1673ffffffffffffffffffffffffffffffffffffffff163373ffffffffffffffffffffffffffffffffffffffff1614155b1561306057336040517f65823a200000000000000000000000000000000000000000000000000000000081526004016130579190613983565b60405180910390fd5b6001600981111561307457613073613e54565b5b8160060160019054906101000a900460ff16600981111561309857613097613e54565b5b146130cf576040517f3eeb1fd400000000000000000000000000000000000000000000000000000000815260040160405180910390fd5b5f6130db858585613709565b90508082600501541461311a576040517f9542f21b00000000000000000000000000000000000000000000000000000000815260040160405180910390fd5b33825f015f6101000a81548173ffffffffffffffffffffffffffffffffffffffff021916908373ffffffffffffffffffffffffffffffffffffffff16021790555060028260060160016101000a81548160ff0219169083600981111561318357613182613e54565b5b0217905550853373ffffffffffffffffffffffffffffffffffffffff167f1439dff93e9e1f47823f730d1ac6d0e67fd98a81c2dc5e02d6b0f7d9af4edc8a60405160405180910390a3505050505050565b5f806131df85613788565b90505f3373ffffffffffffffffffffffffffffffffffffffff163b11156132565761324e338286868080601f0160208091040260200160405190810160405280939291908181526020018383808284375f81840152601f19601f820116905080830192505050505050506137b8565b915050613298565b5f6132628286866138d7565b90503373ffffffffffffffffffffffffffffffffffffffff168173ffffffffffffffffffffffffffffffffffffffff1614925050505b9392505050565b5f805f60015f9054906101000a900473ffffffffffffffffffffffffffffffffffffffff1673ffffffffffffffffffffffffffffffffffffffff1663d0fb02036040518163ffffffff1660e01b8152600401602060405180830381865afa15801561330c573d5f803e3d5ffd5b505050506040513d601f19601f820116820180604052508101906133309190614292565b90505f73ffffffffffffffffffffffffffffffffffffffff168173ffffffffffffffffffffffffffffffffffffffff1603613397576040517f63c7cb9a00000000000000000000000000000000000000000000000000000000815260040160405180910390fd5b5f8190508073ffffffffffffffffffffffffffffffffffffffff166379c9fe44308a8a8a8a6040518663ffffffff1660e01b81526004016133dc959493929190614346565b6040805180830381865afa1580156133f6573d5f803e3d5ffd5b505050506040513d601f19601f8201168201806040525081019061341a91906143ab565b8094508195505050505094509492505050565b60405163a9059cbb5f52826020528160405260205f6044601c5f885af13d1560015f51141716613464576390b8ec185f526004601cfd5b8060405250505050565b5f60015f9054906101000a900473ffffffffffffffffffffffffffffffffffffffff1673ffffffffffffffffffffffffffffffffffffffff166361d027b36040518163ffffffff1660e01b8152600401602060405180830381865afa1580156134d9573d5f803e3d5ffd5b505050506040513d601f19601f820116820180604052508101906134fd9190614292565b90505f73ffffffffffffffffffffffffffffffffffffffff168173ffffffffffffffffffffffffffffffffffffffff1603613564576040517fdc676cab00000000000000000000000000000000000000000000000000000000815260040160405180910390fd5b61356f83828461342d565b505050565b5f805f8060015f9054906101000a900473ffffffffffffffffffffffffffffffffffffffff1673ffffffffffffffffffffffffffffffffffffffff1663d0fb02036040518163ffffffff1660e01b8152600401602060405180830381865afa1580156135e2573d5f803e3d5ffd5b505050506040513d601f19601f820116820180604052508101906136069190614292565b90505f73ffffffffffffffffffffffffffffffffffffffff168173ffffffffffffffffffffffffffffffffffffffff160361366d576040517f63c7cb9a00000000000000000000000000000000000000000000000000000000815260040160405180910390fd5b5f8190508073ffffffffffffffffffffffffffffffffffffffff16635c5a62f3308b8b8b8b6040518663ffffffff1660e01b81526004016136b2959493929190614346565b606060405180830381865afa1580156136cd573d5f803e3d5ffd5b505050506040513d601f19601f820116820180604052508101906136f191906143e9565b80955081965082975050505050509450945094915050565b5f83838360405160200161371f93929190614495565b6040516020818303038152906040528051906020012090509392505050565b6040516323b872dd5f5283602052826040528160605260205f6064601c5f895af13d1560015f5114171661377957637939f4245f526004601cfd5b5f606052806040525050505050565b5f816020527b19457468657265756d205369676e6564204d6573736167653a0a33325f52603c6004209050919050565b5f805f8573ffffffffffffffffffffffffffffffffffffffff1685856040516024016137e592919061452e565b604051602081830303815290604052631626ba7e60e01b6020820180517bffffffffffffffffffffffffffffffffffffffffffffffffffffffff8381831617835250505050604051613837919061458c565b5f60405180830381855afa9150503d805f811461386f576040519150601f19603f3d011682016040523d82523d5f602084013e613874565b606091505b509150915081801561388857506020815110155b80156138cc5750631626ba7e60e01b7bffffffffffffffffffffffffffffffffffffffffffffffffffffffff1916818060200190518101906138ca91906145b6565b145b925050509392505050565b5f6041820361393d576040516040846040377f7fffffffffffffffffffffffffffffff5d576e7357a4501ddfe92f46681b20a06060511161393757845f5260408401355f1a6020526020604060805f60015afa505f6060523d6060035191505b80604052505b9392505050565b5f73ffffffffffffffffffffffffffffffffffffffff82169050919050565b5f61396d82613944565b9050919050565b61397d81613963565b82525050565b5f6020820190506139965f830184613974565b92915050565b5f8115159050919050565b6139b08161399c565b82525050565b5f6020820190506139c95f8301846139a7565b92915050565b5f80fd5b5f80fd5b5f819050919050565b6139e9816139d7565b81146139f3575f80fd5b50565b5f81359050613a04816139e0565b92915050565b5f80fd5b5f80fd5b5f80fd5b5f8083601f840112613a2b57613a2a613a0a565b5b8235905067ffffffffffffffff811115613a4857613a47613a0e565b5b602083019150836001820283011115613a6457613a63613a12565b5b9250929050565b5f805f60408486031215613a8257613a816139cf565b5b5f613a8f868287016139f6565b935050602084013567ffffffffffffffff811115613ab057613aaf6139d3565b5b613abc86828701613a16565b92509250509250925092565b5f7fffffffff0000000000000000000000000000000000000000000000000000000082169050919050565b613afc81613ac8565b82525050565b5f602082019050613b155f830184613af3565b92915050565b613b2481613963565b8114613b2e575f80fd5b50565b5f81359050613b3f81613b1b565b92915050565b5f60208284031215613b5a57613b596139cf565b5b5f613b6784828501613b31565b91505092915050565b5f819050919050565b613b8281613b70565b8114613b8c575f80fd5b50565b5f81359050613b9d81613b79565b92915050565b5f60208284031215613bb857613bb76139cf565b5b5f613bc584828501613b8f565b91505092915050565b5f805f60408486031215613be557613be46139cf565b5b5f84013567ffffffffffffffff811115613c0257613c016139d3565b5b613c0e86828701613a16565b93509350506020613c21868287016139f6565b9150509250925092565b613c34816139d7565b82525050565b5f602082019050613c4d5f830184613c2b565b92915050565b5f80fd5b5f6101008284031215613c6d57613c6c613c53565b5b81905092915050565b5f6101008284031215613c8c57613c8b6139cf565b5b5f613c9984828501613c57565b91505092915050565b5f8060408385031215613cb857613cb76139cf565b5b5f613cc585828601613b8f565b9250506020613cd685828601613b31565b9150509250929050565b5f819050919050565b5f613d03613cfe613cf984613944565b613ce0565b613944565b9050919050565b5f613d1482613ce9565b9050919050565b5f613d2582613d0a565b9050919050565b613d3581613d1b565b82525050565b5f602082019050613d4e5f830184613d2c565b92915050565b600a8110613d60575f80fd5b50565b5f81359050613d7181613d54565b92915050565b5f8060408385031215613d8d57613d8c6139cf565b5b5f613d9a85828601613b8f565b9250506020613dab85828601613d63565b9150509250929050565b5f8060408385031215613dcb57613dca6139cf565b5b5f613dd885828601613b8f565b9250506020613de985828601613b8f565b9150509250929050565b613dfc81613b70565b82525050565b5f602082019050613e155f830184613df3565b92915050565b5f613e2582613d0a565b9050919050565b613e3581613e1b565b82525050565b5f602082019050613e4e5f830184613e2c565b92915050565b7f4e487b71000000000000000000000000000000000000000000000000000000005f52602160045260245ffd5b60058110613e9257613e91613e54565b5b50565b5f819050613ea282613e81565b919050565b5f613eb182613e95565b9050919050565b613ec181613ea7565b82525050565b600a8110613ed857613ed7613e54565b5b50565b5f819050613ee882613ec7565b919050565b5f613ef782613edb565b9050919050565b613f0781613eed565b82525050565b5f61010082019050613f215f83018b613974565b613f2e602083018a613974565b613f3b6040830189613df3565b613f486060830188613df3565b613f556080830187613df3565b613f6260a0830186613c2b565b613f6f60c0830185613eb8565b613f7c60e0830184613efe565b9998505050505050505050565b5f805f60608486031215613fa057613f9f6139cf565b5b5f613fad86828701613b8f565b9350506020613fbe86828701613b8f565b9250506040613fcf86828701613b31565b9150509250925092565b5f805f60608486031215613ff057613fef6139cf565b5b5f613ffd86828701613b31565b935050602061400e86828701613b31565b925050604061401f86828701613b31565b9150509250925092565b60048110614035575f80fd5b50565b5f8135905061404681614029565b92915050565b5f805f8060808587031215614064576140636139cf565b5b5f61407187828801613b8f565b945050602061408287828801614038565b935050604061409387828801613b8f565b92505060606140a487828801613b8f565b91505092959194509250565b5f805f80606085870312156140c8576140c76139cf565b5b5f6140d587828801613b8f565b945050602085013567ffffffffffffffff8111156140f6576140f56139d3565b5b61410287828801613a16565b93509350506040614115878288016139f6565b91505092959194509250565b61412a8161399c565b8114614134575f80fd5b50565b5f8151905061414581614121565b92915050565b5f602082840312156141605761415f6139cf565b5b5f61416d84828501614137565b91505092915050565b7f4e487b71000000000000000000000000000000000000000000000000000000005f52601160045260245ffd5b5f6141ad82613b70565b91506141b883613b70565b92508282039050818111156141d0576141cf614176565b5b92915050565b5f6141e082613b70565b91506141eb83613b70565b925082820190508082111561420357614202614176565b5b92915050565b5f60408201905061421c5f830185613df3565b6142296020830184613df3565b9392505050565b6005811061423c575f80fd5b50565b5f8135905061424d81614230565b92915050565b5f60208284031215614268576142676139cf565b5b5f6142758482850161423f565b91505092915050565b5f8151905061428c81613b1b565b92915050565b5f602082840312156142a7576142a66139cf565b5b5f6142b48482850161427e565b91505092915050565b600481106142ce576142cd613e54565b5b50565b5f8190506142de826142bd565b919050565b5f6142ed826142d1565b9050919050565b6142fd816142e3565b82525050565b5f6080820190506143165f830187613df3565b61432360208301866142f4565b6143306040830185613df3565b61433d6060830184613df3565b95945050505050565b5f60a0820190506143595f830188613974565b6143666020830187613df3565b6143736040830186613974565b6143806060830185613df3565b61438d6080830184613eb8565b9695505050505050565b5f815190506143a581613b79565b92915050565b5f80604083850312156143c1576143c06139cf565b5b5f6143ce85828601614397565b92505060206143df85828601614397565b9150509250929050565b5f805f60608486031215614400576143ff6139cf565b5b5f61440d86828701614397565b935050602061441e86828701614397565b925050604061442f86828701614397565b9150509250925092565b5f81905092915050565b828183375f83830152505050565b5f61445c8385614439565b9350614469838584614443565b82840190509392505050565b5f819050919050565b61448f61448a826139d7565b614475565b82525050565b5f6144a1828587614451565b91506144ad828461447e565b602082019150819050949350505050565b5f81519050919050565b5f82825260208201905092915050565b8281835e5f83830152505050565b5f601f19601f8301169050919050565b5f614500826144be565b61450a81856144c8565b935061451a8185602086016144d8565b614523816144e6565b840191505092915050565b5f6040820190506145415f830185613c2b565b818103602083015261455381846144f6565b90509392505050565b5f614566826144be565b6145708185614439565b93506145808185602086016144d8565b80840191505092915050565b5f614597828461455c565b915081905092915050565b5f815190506145b0816139e0565b92915050565b5f602082840312156145cb576145ca6139cf565b5b5f6145d8848285016145a2565b9150509291505056fea2646970667358221220acc2e47489ff242edf1d273a84c7654ed45f6be3c993a677e6f6ef0d932da10864736f6c63430008190033","linkReferences":{}},"methodIdentifiers":{"adminManager()":"a210b6a4","approve(uint256,uint256,address)":"b7019253","approveReturn(uint256)":"5a3c88ea","cancelReturn(uint256,uint8)":"8588ea3d","claim(uint256)":"379607f5","client()":"109e94cf","createDispute(uint256)":"4ac8a529","deposit((address,address,uint256,uint256,uint256,bytes32,uint8,uint8))":"4334bd9d","deposits(uint256)":"b02c43d0","getContractorDataHash(bytes,bytes32)":"3d20c71e","getCurrentContractId()":"99c4b24c","initialize(address,address,address)":"c0c53b8b","initialized()":"158ef93e","isValidSignature(bytes32,bytes)":"1626ba7e","refill(uint256,uint256)":"98ebf85d","registry()":"7b103999","requestReturn(uint256)":"58676582","resolveDispute(uint256,uint8,uint256,uint256)":"d077a4f8","submit(uint256,bytes,bytes32)":"f9e1302a","transferClientOwnership(address)":"cce3de81","transferContractorOwnership(uint256,address)":"6d079469","updateAdminManager(address)":"8c62e594","updateRegistry(address)":"1a5da6c8","withdraw(uint256)":"2e1a7d4d"},"id":54}