{"abi":[{"type":"constructor","inputs":[{"name":"_adminManager","type":"address","internalType":"address"}],"stateMutability":"nonpayable"},{"type":"function","name":"MIN_RECOVERY_PERIOD","inputs":[],"outputs":[{"name":"","type":"uint256","internalType":"uint256"}],"stateMutability":"view"},{"type":"function","name":"adminManager","inputs":[],"outputs":[{"name":"","type":"address","internalType":"contract IEscrowAdminManager"}],"stateMutability":"view"},{"type":"function","name":"cancelRecovery","inputs":[{"name":"_recoveryHash","type":"bytes32","internalType":"bytes32"}],"outputs":[],"stateMutability":"nonpayable"},{"type":"function","name":"executeRecovery","inputs":[{"name":"_accountType","type":"uint8","internalType":"enum Enums.AccountTypeRecovery"},{"name":"_escrow","type":"address","internalType":"address"},{"name":"_oldAccount","type":"address","internalType":"address"}],"outputs":[],"stateMutability":"nonpayable"},{"type":"function","name":"getRecoveryHash","inputs":[{"name":"_escrow","type":"address","internalType":"address"},{"name":"_oldAccount","type":"address","internalType":"address"},{"name":"_newAccount","type":"address","internalType":"address"}],"outputs":[{"name":"","type":"bytes32","internalType":"bytes32"}],"stateMutability":"pure"},{"type":"function","name":"initiateRecovery","inputs":[{"name":"_escrow","type":"address","internalType":"address"},{"name":"_contractId","type":"uint256","internalType":"uint256"},{"name":"_milestoneId","type":"uint256","internalType":"uint256"},{"name":"_oldAccount","type":"address","internalType":"address"},{"name":"_newAccount","type":"address","internalType":"address"},{"name":"_escrowType","type":"uint8","internalType":"enum Enums.EscrowType"}],"outputs":[],"stateMutability":"nonpayable"},{"type":"function","name":"recoveryData","inputs":[{"name":"recoveryHash","type":"bytes32","internalType":"bytes32"}],"outputs":[{"name":"escrow","type":"address","internalType":"address"},{"name":"account","type":"address","internalType":"address"},{"name":"contractId","type":"uint256","internalType":"uint256"},{"name":"milestoneId","type":"uint256","internalType":"uint256"},{"name":"executeAfter","type":"uint64","internalType":"uint64"},{"name":"executed","type":"bool","internalType":"bool"},{"name":"confirmed","type":"bool","internalType":"bool"},{"name":"escrowType","type":"uint8","internalType":"enum Enums.EscrowType"}],"stateMutability":"view"},{"type":"function","name":"recoveryPeriod","inputs":[],"outputs":[{"name":"","type":"uint256","internalType":"uint256"}],"stateMutability":"view"},{"type":"function","name":"updateAdminManager","inputs":[{"name":"_adminManager","type":"address","internalType":"address"}],"outputs":[],"stateMutability":"nonpayable"},{"type":"function","name":"updateRecoveryPeriod","inputs":[{"name":"_recoveryPeriod","type":"uint256","internalType":"uint256"}],"outputs":[],"stateMutability":"nonpayable"},{"type":"event","name":"AdminManagerUpdated","inputs":[{"name":"adminManager","type":"address","indexed":false,"internalType":"address"}],"anonymous":false},{"type":"event","name":"RecoveryCanceled","inputs":[{"name":"sender","type":"address","indexed":true,"internalType":"address"},{"name":"recoveryHash","type":"bytes32","indexed":true,"internalType":"bytes32"}],"anonymous":false},{"type":"event","name":"RecoveryExecuted","inputs":[{"name":"sender","type":"address","indexed":true,"internalType":"address"},{"name":"recoveryHash","type":"bytes32","indexed":true,"internalType":"bytes32"}],"anonymous":false},{"type":"event","name":"RecoveryInitiated","inputs":[{"name":"sender","type":"address","indexed":true,"internalType":"address"},{"name":"recoveryHash","type":"bytes32","indexed":true,"internalType":"bytes32"}],"anonymous":false},{"type":"event","name":"RecoveryPeriodUpdated","inputs":[{"name":"recoveryPeriod","type":"uint256","indexed":false,"internalType":"uint256"}],"anonymous":false},{"type":"error","name":"RecoveryAlreadyExecuted","inputs":[]},{"type":"error","name":"RecoveryNotConfirmed","inputs":[]},{"type":"error","name":"RecoveryPeriodStillPending","inputs":[]},{"type":"error","name":"RecoveryPeriodTooSmall","inputs":[]},{"type":"error","name":"UnauthorizedAccount","inputs":[]},{"type":"error","name":"ZeroAddressProvided","inputs":[]}],"bytecode":{"object":"0x608060405234801561000f575f80fd5b5060405161196438038061196483398181016040528101906100319190610143565b5f73ffffffffffffffffffffffffffffffffffffffff168173ffffffffffffffffffffffffffffffffffffffff1603610096576040517f8474420100000000000000000000000000000000000000000000000000000000815260040160405180910390fd5b805f806101000a81548173ffffffffffffffffffffffffffffffffffffffff021916908373ffffffffffffffffffffffffffffffffffffffff1602179055506203f4806001819055505061016e565b5f80fd5b5f73ffffffffffffffffffffffffffffffffffffffff82169050919050565b5f610112826100e9565b9050919050565b61012281610108565b811461012c575f80fd5b50565b5f8151905061013d81610119565b92915050565b5f60208284031215610158576101576100e5565b5b5f6101658482850161012f565b91505092915050565b6117e98061017b5f395ff3fe608060405234801561000f575f80fd5b506004361061009c575f3560e01c8063631fec7f11610064578063631fec7f146101445780638c62e5941461016057806398e8743e1461017c578063a210b6a414610198578063ae5c6fb8146101b65761009c565b8063061376b3146100a0578063108dbf84146100bc57806316c3e22f146100ec57806345bffd621461010a57806349d3daa014610128575b5f80fd5b6100ba60048036038101906100b5919061114e565b6101ed565b005b6100d660048036038101906100d191906111d3565b610342565b6040516100e3919061123b565b60405180910390f35b6100f4610357565b6040516101019190611263565b60405180910390f35b61011261035d565b60405161011f9190611263565b60405180910390f35b610142600480360381019061013d919061129f565b610364565b005b61015e60048036038101906101599190611352565b6106ce565b005b61017a6004803603810190610175919061137d565b610853565b005b610196600480360381019061019191906113cb565b610a21565b005b6101a0610c13565b6040516101ad9190611476565b60405180910390f35b6101d060048036038101906101cb9190611352565b610c36565b6040516101e498979695949392919061154d565b60405180910390f35b5f8054906101000a900473ffffffffffffffffffffffffffffffffffffffff1673ffffffffffffffffffffffffffffffffffffffff166324d7806c336040518263ffffffff1660e01b815260040161024591906115c9565b602060405180830381865afa158015610260573d5f803e3d5ffd5b505050506040513d601f19601f82011682018060405250810190610284919061160c565b6102ba576040517fa97ff08a00000000000000000000000000000000000000000000000000000000815260040160405180910390fd5b5f8114806102ca57506203f48081105b15610301576040517f919d39f300000000000000000000000000000000000000000000000000000000815260040160405180910390fd5b806001819055507fdd4072ed51fb3270bb86aa13355d7b7e84a9611e0392af52391543f5987dd76b816040516103379190611263565b60405180910390a150565b5f61034e848484610cf2565b90509392505050565b60015481565b6203f48081565b5f8054906101000a900473ffffffffffffffffffffffffffffffffffffffff1673ffffffffffffffffffffffffffffffffffffffff16630c68ba21336040518263ffffffff1660e01b81526004016103bc91906115c9565b602060405180830381865afa1580156103d7573d5f803e3d5ffd5b505050506040513d601f19601f820116820180604052508101906103fb919061160c565b610431576040517fa97ff08a00000000000000000000000000000000000000000000000000000000815260040160405180910390fd5b5f61043d878585610cf2565b90505f60025f8381526020019081526020015f2090508060040160089054906101000a900460ff161561049c576040517f3c719eee00000000000000000000000000000000000000000000000000000000815260040160405180910390fd5b6040518061010001604052808973ffffffffffffffffffffffffffffffffffffffff1681526020018673ffffffffffffffffffffffffffffffffffffffff168152602001888152602001878152602001600154426104fa9190611664565b67ffffffffffffffff1681526020015f1515815260200160011515815260200184600381111561052d5761052c6114da565b5b81525060025f8481526020019081526020015f205f820151815f015f6101000a81548173ffffffffffffffffffffffffffffffffffffffff021916908373ffffffffffffffffffffffffffffffffffffffff1602179055506020820151816001015f6101000a81548173ffffffffffffffffffffffffffffffffffffffff021916908373ffffffffffffffffffffffffffffffffffffffff16021790555060408201518160020155606082015181600301556080820151816004015f6101000a81548167ffffffffffffffff021916908367ffffffffffffffff16021790555060a08201518160040160086101000a81548160ff02191690831515021790555060c08201518160040160096101000a81548160ff02191690831515021790555060e082015181600401600a6101000a81548160ff02191690836003811115610678576106776114da565b5b0217905550905050813373ffffffffffffffffffffffffffffffffffffffff167f33f6e0b3711225641ff1a2761ea850c505c5195e1d2fcf2f7435047a8932551960405160405180910390a35050505050505050565b5f60025f8381526020019081526020015f209050806001015f9054906101000a900473ffffffffffffffffffffffffffffffffffffffff1673ffffffffffffffffffffffffffffffffffffffff163373ffffffffffffffffffffffffffffffffffffffff161461076a576040517fa97ff08a00000000000000000000000000000000000000000000000000000000815260040160405180910390fd5b5f816004015f9054906101000a900467ffffffffffffffff1667ffffffffffffffff16036107c4576040517f726bcb2700000000000000000000000000000000000000000000000000000000815260040160405180910390fd5b60018160040160086101000a81548160ff0219169083151502179055505f816004015f6101000a81548167ffffffffffffffff021916908367ffffffffffffffff160217905550813373ffffffffffffffffffffffffffffffffffffffff167f04b70e4011a2741ce4be3e93bf482ea08b45700b8df3ace1bb3e5090f54f8a7e60405160405180910390a35050565b5f8054906101000a900473ffffffffffffffffffffffffffffffffffffffff1673ffffffffffffffffffffffffffffffffffffffff16638da5cb5b6040518163ffffffff1660e01b8152600401602060405180830381865afa1580156108bb573d5f803e3d5ffd5b505050506040513d601f19601f820116820180604052508101906108df91906116ab565b73ffffffffffffffffffffffffffffffffffffffff163373ffffffffffffffffffffffffffffffffffffffff1614610943576040517fa97ff08a00000000000000000000000000000000000000000000000000000000815260040160405180910390fd5b5f73ffffffffffffffffffffffffffffffffffffffff168173ffffffffffffffffffffffffffffffffffffffff16036109a8576040517f8474420100000000000000000000000000000000000000000000000000000000815260040160405180910390fd5b805f806101000a81548173ffffffffffffffffffffffffffffffffffffffff021916908373ffffffffffffffffffffffffffffffffffffffff1602179055507fae0b51d5743004c7c8d5baf4068214f299f2b88b9fc91758454d5ac7d69c949181604051610a1691906115c9565b60405180910390a150565b5f610a2d838333610cf2565b90505f60025f8381526020019081526020015f209050806004015f9054906101000a900467ffffffffffffffff1667ffffffffffffffff164267ffffffffffffffff161015610aa8576040517f9e27b46000000000000000000000000000000000000000000000000000000000815260040160405180910390fd5b8060040160089054906101000a900460ff1615610af1576040517f3c719eee00000000000000000000000000000000000000000000000000000000815260040160405180910390fd5b8060040160099054906101000a900460ff16610b39576040517f726bcb2700000000000000000000000000000000000000000000000000000000815260040160405180910390fd5b60018160040160086101000a81548160ff0219169083151502179055505f816004015f6101000a81548167ffffffffffffffff021916908367ffffffffffffffff160217905550610bc881600401600a9054906101000a900460ff16825f015f9054906101000a900473ffffffffffffffffffffffffffffffffffffffff168360020154846003015489610d27565b813373ffffffffffffffffffffffffffffffffffffffff167fa7bff9a0bd8a845247607f620dd86270e8e2b5b5568de684b6ca5df8294f538060405160405180910390a35050505050565b5f8054906101000a900473ffffffffffffffffffffffffffffffffffffffff1681565b6002602052805f5260405f205f91509050805f015f9054906101000a900473ffffffffffffffffffffffffffffffffffffffff1690806001015f9054906101000a900473ffffffffffffffffffffffffffffffffffffffff1690806002015490806003015490806004015f9054906101000a900467ffffffffffffffff16908060040160089054906101000a900460ff16908060040160099054906101000a900460ff169080600401600a9054906101000a900460ff16905088565b5f838383604051602001610d089392919061171b565b6040516020818303038152906040528051906020012090509392505050565b5f6001811115610d3a57610d396114da565b5b816001811115610d4d57610d4c6114da565b5b03610f19575f6003811115610d6557610d646114da565b5b856003811115610d7857610d776114da565b5b03610de8578373ffffffffffffffffffffffffffffffffffffffff1663cce3de81336040518263ffffffff1660e01b8152600401610db691906115c9565b5f604051808303815f87803b158015610dcd575f80fd5b505af1158015610ddf573d5f803e3d5ffd5b50505050610f14565b60016003811115610dfc57610dfb6114da565b5b856003811115610e0f57610e0e6114da565b5b03610e7f578373ffffffffffffffffffffffffffffffffffffffff1663cce3de81336040518263ffffffff1660e01b8152600401610e4d91906115c9565b5f604051808303815f87803b158015610e64575f80fd5b505af1158015610e76573d5f803e3d5ffd5b50505050610f13565b60026003811115610e9357610e926114da565b5b856003811115610ea657610ea56114da565b5b03610f12578373ffffffffffffffffffffffffffffffffffffffff1663cce3de81336040518263ffffffff1660e01b8152600401610ee491906115c9565b5f604051808303815f87803b158015610efb575f80fd5b505af1158015610f0d573d5f803e3d5ffd5b505050505b5b5b611110565b600180811115610f2c57610f2b6114da565b5b816001811115610f3f57610f3e6114da565b5b0361110f575f6003811115610f5757610f566114da565b5b856003811115610f6a57610f696114da565b5b03610fdc578373ffffffffffffffffffffffffffffffffffffffff16636d07946984336040518363ffffffff1660e01b8152600401610faa929190611757565b5f604051808303815f87803b158015610fc1575f80fd5b505af1158015610fd3573d5f803e3d5ffd5b5050505061110e565b60016003811115610ff057610fef6114da565b5b856003811115611003576110026114da565b5b03611077578373ffffffffffffffffffffffffffffffffffffffff1663cb89c8cb8484336040518463ffffffff1660e01b81526004016110459392919061177e565b5f604051808303815f87803b15801561105c575f80fd5b505af115801561106e573d5f803e3d5ffd5b5050505061110d565b6002600381111561108b5761108a6114da565b5b85600381111561109e5761109d6114da565b5b0361110c578373ffffffffffffffffffffffffffffffffffffffff16636d07946984336040518363ffffffff1660e01b81526004016110de929190611757565b5f604051808303815f87803b1580156110f5575f80fd5b505af1158015611107573d5f803e3d5ffd5b505050505b5b5b5b5b5050505050565b5f80fd5b5f819050919050565b61112d8161111b565b8114611137575f80fd5b50565b5f8135905061114881611124565b92915050565b5f6020828403121561116357611162611117565b5b5f6111708482850161113a565b91505092915050565b5f73ffffffffffffffffffffffffffffffffffffffff82169050919050565b5f6111a282611179565b9050919050565b6111b281611198565b81146111bc575f80fd5b50565b5f813590506111cd816111a9565b92915050565b5f805f606084860312156111ea576111e9611117565b5b5f6111f7868287016111bf565b9350506020611208868287016111bf565b9250506040611219868287016111bf565b9150509250925092565b5f819050919050565b61123581611223565b82525050565b5f60208201905061124e5f83018461122c565b92915050565b61125d8161111b565b82525050565b5f6020820190506112765f830184611254565b92915050565b60048110611288575f80fd5b50565b5f813590506112998161127c565b92915050565b5f805f805f8060c087890312156112b9576112b8611117565b5b5f6112c689828a016111bf565b96505060206112d789828a0161113a565b95505060406112e889828a0161113a565b94505060606112f989828a016111bf565b935050608061130a89828a016111bf565b92505060a061131b89828a0161128b565b9150509295509295509295565b61133181611223565b811461133b575f80fd5b50565b5f8135905061134c81611328565b92915050565b5f6020828403121561136757611366611117565b5b5f6113748482850161133e565b91505092915050565b5f6020828403121561139257611391611117565b5b5f61139f848285016111bf565b91505092915050565b600281106113b4575f80fd5b50565b5f813590506113c5816113a8565b92915050565b5f805f606084860312156113e2576113e1611117565b5b5f6113ef868287016113b7565b9350506020611400868287016111bf565b9250506040611411868287016111bf565b9150509250925092565b5f819050919050565b5f61143e61143961143484611179565b61141b565b611179565b9050919050565b5f61144f82611424565b9050919050565b5f61146082611445565b9050919050565b61147081611456565b82525050565b5f6020820190506114895f830184611467565b92915050565b61149881611198565b82525050565b5f67ffffffffffffffff82169050919050565b6114ba8161149e565b82525050565b5f8115159050919050565b6114d4816114c0565b82525050565b7f4e487b71000000000000000000000000000000000000000000000000000000005f52602160045260245ffd5b60048110611518576115176114da565b5b50565b5f81905061152882611507565b919050565b5f6115378261151b565b9050919050565b6115478161152d565b82525050565b5f610100820190506115615f83018b61148f565b61156e602083018a61148f565b61157b6040830189611254565b6115886060830188611254565b61159560808301876114b1565b6115a260a08301866114cb565b6115af60c08301856114cb565b6115bc60e083018461153e565b9998505050505050505050565b5f6020820190506115dc5f83018461148f565b92915050565b6115eb816114c0565b81146115f5575f80fd5b50565b5f81519050611606816115e2565b92915050565b5f6020828403121561162157611620611117565b5b5f61162e848285016115f8565b91505092915050565b7f4e487b71000000000000000000000000000000000000000000000000000000005f52601160045260245ffd5b5f61166e8261111b565b91506116798361111b565b925082820190508082111561169157611690611637565b5b92915050565b5f815190506116a5816111a9565b92915050565b5f602082840312156116c0576116bf611117565b5b5f6116cd84828501611697565b91505092915050565b5f8160601b9050919050565b5f6116ec826116d6565b9050919050565b5f6116fd826116e2565b9050919050565b61171561171082611198565b6116f3565b82525050565b5f6117268286611704565b6014820191506117368285611704565b6014820191506117468284611704565b601482019150819050949350505050565b5f60408201905061176a5f830185611254565b611777602083018461148f565b9392505050565b5f6060820190506117915f830186611254565b61179e6020830185611254565b6117ab604083018461148f565b94935050505056fea26469706673582212205c7598478afa1e0724130c467269faa98c102f70a4f832c72065c4ebd463d59964736f6c63430008190033","linkReferences":{}},"methodIdentifiers":{"MIN_RECOVERY_PERIOD()":"45bffd62","adminManager()":"a210b6a4","cancelRecovery(bytes32)":"631fec7f","executeRecovery(uint8,address,address)":"98e8743e","getRecoveryHash(address,address,address)":"108dbf84","initiateRecovery(address,uint256,uint256,address,address,uint8)":"49d3daa0","recoveryData(bytes32)":"ae5c6fb8","recoveryPeriod()":"16c3e22f","updateAdminManager(address)":"8c62e594","updateRecoveryPeriod(uint256)":"061376b3"},"id":67}