{"abi":[{"type":"constructor","inputs":[{"name":"_owner","type":"address","internalType":"address"}],"stateMutability":"nonpayable"},{"type":"function","name":"NATIVE_TOKEN","inputs":[],"outputs":[{"name":"","type":"address","internalType":"address"}],"stateMutability":"view"},{"type":"function","name":"accountRecovery","inputs":[],"outputs":[{"name":"","type":"address","internalType":"address"}],"stateMutability":"view"},{"type":"function","name":"addPaymentToken","inputs":[{"name":"_token","type":"address","internalType":"address"}],"outputs":[],"stateMutability":"nonpayable"},{"type":"function","name":"addToBlacklist","inputs":[{"name":"_user","type":"address","internalType":"address"}],"outputs":[],"stateMutability":"nonpayable"},{"type":"function","name":"adminManager","inputs":[],"outputs":[{"name":"","type":"address","internalType":"address"}],"stateMutability":"view"},{"type":"function","name":"blacklist","inputs":[{"name":"user","type":"address","internalType":"address"}],"outputs":[{"name":"blacklisted","type":"bool","internalType":"bool"}],"stateMutability":"view"},{"type":"function","name":"confirmOwner","inputs":[],"outputs":[],"stateMutability":"payable"},{"type":"function","name":"escrowFixedPrice","inputs":[],"outputs":[{"name":"","type":"address","internalType":"address"}],"stateMutability":"view"},{"type":"function","name":"escrowHourly","inputs":[],"outputs":[{"name":"","type":"address","internalType":"address"}],"stateMutability":"view"},{"type":"function","name":"escrowMilestone","inputs":[],"outputs":[{"name":"","type":"address","internalType":"address"}],"stateMutability":"view"},{"type":"function","name":"factory","inputs":[],"outputs":[{"name":"","type":"address","internalType":"address"}],"stateMutability":"view"},{"type":"function","name":"feeManager","inputs":[],"outputs":[{"name":"","type":"address","internalType":"address"}],"stateMutability":"view"},{"type":"function","name":"owner","inputs":[],"outputs":[{"name":"","type":"address","internalType":"address"}],"stateMutability":"view"},{"type":"function","name":"paymentTokens","inputs":[{"name":"token","type":"address","internalType":"address"}],"outputs":[{"name":"enabled","type":"bool","internalType":"bool"}],"stateMutability":"view"},{"type":"function","name":"removeFromBlacklist","inputs":[{"name":"_user","type":"address","internalType":"address"}],"outputs":[],"stateMutability":"nonpayable"},{"type":"function","name":"removePaymentToken","inputs":[{"name":"_token","type":"address","internalType":"address"}],"outputs":[],"stateMutability":"nonpayable"},{"type":"function","name":"renounceOwner","inputs":[],"outputs":[],"stateMutability":"payable"},{"type":"function","name":"setAccountRecovery","inputs":[{"name":"_accountRecovery","type":"address","internalType":"address"}],"outputs":[],"stateMutability":"nonpayable"},{"type":"function","name":"setAdminManager","inputs":[{"name":"_adminManager","type":"address","internalType":"address"}],"outputs":[],"stateMutability":"nonpayable"},{"type":"function","name":"setTreasury","inputs":[{"name":"_treasury","type":"address","internalType":"address"}],"outputs":[],"stateMutability":"nonpayable"},{"type":"function","name":"transferOwnership","inputs":[{"name":"newOwner","type":"address","internalType":"address"}],"outputs":[],"stateMutability":"payable"},{"type":"function","name":"treasury","inputs":[],"outputs":[{"name":"","type":"address","internalType":"address"}],"stateMutability":"view"},{"type":"function","name":"updateEscrowFixedPrice","inputs":[{"name":"_escrowFixedPrice","type":"address","internalType":"address"}],"outputs":[],"stateMutability":"nonpayable"},{"type":"function","name":"updateEscrowHourly","inputs":[{"name":"_escrowHourly","type":"address","internalType":"address"}],"outputs":[],"stateMutability":"nonpayable"},{"type":"function","name":"updateEscrowMilestone","inputs":[{"name":"_escrowMilestone","type":"address","internalType":"address"}],"outputs":[],"stateMutability":"nonpayable"},{"type":"function","name":"updateFactory","inputs":[{"name":"_factory","type":"address","internalType":"address"}],"outputs":[],"stateMutability":"nonpayable"},{"type":"function","name":"updateFeeManager","inputs":[{"name":"_feeManager","type":"address","internalType":"address"}],"outputs":[],"stateMutability":"nonpayable"},{"type":"event","name":"AccountRecoverySet","inputs":[{"name":"accountRecovery","type":"address","indexed":false,"internalType":"address"}],"anonymous":false},{"type":"event","name":"AdminManagerSet","inputs":[{"name":"adminManager","type":"address","indexed":false,"internalType":"address"}],"anonymous":false},{"type":"event","name":"Blacklisted","inputs":[{"name":"user","type":"address","indexed":true,"internalType":"address"}],"anonymous":false},{"type":"event","name":"EscrowUpdated","inputs":[{"name":"escrow","type":"address","indexed":false,"internalType":"address"}],"anonymous":false},{"type":"event","name":"FactoryUpdated","inputs":[{"name":"factory","type":"address","indexed":false,"internalType":"address"}],"anonymous":false},{"type":"event","name":"FeeManagerUpdated","inputs":[{"name":"feeManager","type":"address","indexed":false,"internalType":"address"}],"anonymous":false},{"type":"event","name":"OwnerUpdateInitiated","inputs":[{"name":"user","type":"address","indexed":true,"internalType":"address"},{"name":"ownerCandidate","type":"address","indexed":true,"internalType":"address"}],"anonymous":false},{"type":"event","name":"OwnershipTransferred","inputs":[{"name":"user","type":"address","indexed":true,"internalType":"address"},{"name":"newOwner","type":"address","indexed":true,"internalType":"address"}],"anonymous":false},{"type":"event","name":"PaymentTokenAdded","inputs":[{"name":"token","type":"address","indexed":false,"internalType":"address"}],"anonymous":false},{"type":"event","name":"PaymentTokenRemoved","inputs":[{"name":"token","type":"address","indexed":false,"internalType":"address"}],"anonymous":false},{"type":"event","name":"TreasurySet","inputs":[{"name":"treasury","type":"address","indexed":false,"internalType":"address"}],"anonymous":false},{"type":"event","name":"Whitelisted","inputs":[{"name":"user","type":"address","indexed":true,"internalType":"address"}],"anonymous":false},{"type":"error","name":"Registry__PaymentTokenNotRegistered","inputs":[]},{"type":"error","name":"Registry__TokenAlreadyAdded","inputs":[]},{"type":"error","name":"Registry__ZeroAddressProvided","inputs":[]},{"type":"error","name":"Unauthorized","inputs":[]}],"bytecode":{"object":"0x608060405234801561000f575f80fd5b50604051611fc2380380611fc283398181016040528101906100319190610130565b80805f806101000a81548173ffffffffffffffffffffffffffffffffffffffff021916908373ffffffffffffffffffffffffffffffffffffffff1602179055508073ffffffffffffffffffffffffffffffffffffffff165f73ffffffffffffffffffffffffffffffffffffffff167f8be0079c531659141344cd1fd0a4f28419497f9722a3daafe3b4186f6b6457e060405160405180910390a3505061015b565b5f80fd5b5f73ffffffffffffffffffffffffffffffffffffffff82169050919050565b5f6100ff826100d6565b9050919050565b61010f816100f5565b8114610119575f80fd5b50565b5f8151905061012a81610106565b92915050565b5f60208284031215610145576101446100d2565b5b5f6101528482850161011c565b91505092915050565b611e5a806101685f395ff3fe60806040526004361061019b575f3560e01c8063a210b6a4116100eb578063d0fb020311610089578063f2c22f6e11610063578063f2c22f6e14610521578063f2fde38b14610549578063f58df75214610565578063f9f92be41461058f5761019b565b8063d0fb0203146104a7578063d9f165dc146104d1578063f0f44260146104f95761019b565b8063bd9b6d86116100c5578063bd9b6d861461040f578063c3b88b4214610419578063c45a015514610455578063c6acd2741461047f5761019b565b8063a210b6a414610395578063a5125421146103bf578063bc160758146103e75761019b565b80634fef5b631161015857806361d027b31161013257806361d027b3146102ef5780638da5cb5b146103195780639036a459146103435780639fc07d051461036d5761019b565b80634fef5b63146102775780635135324f1461029f578063537df3b6146102c75761019b565b80631afcd4d31461019f57806326094a18146101c957806328c23a45146101f357806331f7d964146101fd57806344337ea1146102275780634a7dc8e01461024f575b5f80fd5b3480156101aa575f80fd5b506101b36105cb565b6040516101c09190611d7f565b60405180910390f35b3480156101d4575f80fd5b506101dd6105f0565b6040516101ea9190611d7f565b60405180910390f35b6101fb610615565b005b348015610208575f80fd5b50610211610718565b60405161021e9190611d7f565b60405180910390f35b348015610232575f80fd5b5061024d60048036038101906102489190611dc6565b610730565b005b34801561025a575f80fd5b5061027560048036038101906102709190611dc6565b6108b4565b005b348015610282575f80fd5b5061029d60048036038101906102989190611dc6565b610aad565b005b3480156102aa575f80fd5b506102c560048036038101906102c09190611dc6565b610c10565b005b3480156102d2575f80fd5b506102ed60048036038101906102e89190611dc6565b610d73565b005b3480156102fa575f80fd5b50610303610ef6565b6040516103109190611d7f565b60405180910390f35b348015610324575f80fd5b5061032d610f1b565b60405161033a9190611d7f565b60405180910390f35b34801561034e575f80fd5b50610357610f3e565b6040516103649190611d7f565b60405180910390f35b348015610378575f80fd5b50610393600480360381019061038e9190611dc6565b610f63565b005b3480156103a0575f80fd5b506103a96110c6565b6040516103b69190611d7f565b60405180910390f35b3480156103ca575f80fd5b506103e560048036038101906103e09190611dc6565b6110eb565b005b3480156103f2575f80fd5b5061040d60048036038101906104089190611dc6565b611275565b005b6104176113d8565b005b348015610424575f80fd5b5061043f600480360381019061043a9190611dc6565b6115ea565b60405161044c9190611e0b565b60405180910390f35b348015610460575f80fd5b50610469611607565b6040516104769190611d7f565b60405180910390f35b34801561048a575f80fd5b506104a560048036038101906104a09190611dc6565b61162c565b005b3480156104b2575f80fd5b506104bb61178f565b6040516104c89190611d7f565b60405180910390f35b3480156104dc575f80fd5b506104f760048036038101906104f29190611dc6565b6117b4565b005b348015610504575f80fd5b5061051f600480360381019061051a9190611dc6565b611917565b005b34801561052c575f80fd5b5061054760048036038101906105429190611dc6565b611a7a565b005b610563600480360381019061055e9190611dc6565b611bdd565b005b348015610570575f80fd5b50610579611cfe565b6040516105869190611d7f565b60405180910390f35b34801561059a575f80fd5b506105b560048036038101906105b09190611dc6565b611d23565b6040516105c29190611e0b565b60405180910390f35b60045f9054906101000a900473ffffffffffffffffffffffffffffffffffffffff1681565b60035f9054906101000a900473ffffffffffffffffffffffffffffffffffffffff1681565b5f8054906101000a900473ffffffffffffffffffffffffffffffffffffffff1673ffffffffffffffffffffffffffffffffffffffff163373ffffffffffffffffffffffffffffffffffffffff1614610699576040517f82b4290000000000000000000000000000000000000000000000000000000000815260040160405180910390fd5b5f806101000a81549073ffffffffffffffffffffffffffffffffffffffff02191690555f73ffffffffffffffffffffffffffffffffffffffff163373ffffffffffffffffffffffffffffffffffffffff167f8be0079c531659141344cd1fd0a4f28419497f9722a3daafe3b4186f6b6457e060405160405180910390a3565b73eeeeeeeeeeeeeeeeeeeeeeeeeeeeeeeeeeeeeeee81565b5f8054906101000a900473ffffffffffffffffffffffffffffffffffffffff1673ffffffffffffffffffffffffffffffffffffffff163373ffffffffffffffffffffffffffffffffffffffff16146107b4576040517f82b4290000000000000000000000000000000000000000000000000000000000815260040160405180910390fd5b5f73ffffffffffffffffffffffffffffffffffffffff168173ffffffffffffffffffffffffffffffffffffffff1603610819576040517f53fef9db00000000000000000000000000000000000000000000000000000000815260040160405180910390fd5b6001600b5f8373ffffffffffffffffffffffffffffffffffffffff1673ffffffffffffffffffffffffffffffffffffffff1681526020019081526020015f205f6101000a81548160ff0219169083151502179055508073ffffffffffffffffffffffffffffffffffffffff167fffa4e6181777692565cf28528fc88fd1516ea86b56da075235fa575af6a4b85560405160405180910390a250565b5f8054906101000a900473ffffffffffffffffffffffffffffffffffffffff1673ffffffffffffffffffffffffffffffffffffffff163373ffffffffffffffffffffffffffffffffffffffff1614610938576040517f82b4290000000000000000000000000000000000000000000000000000000000815260040160405180910390fd5b5f73ffffffffffffffffffffffffffffffffffffffff168173ffffffffffffffffffffffffffffffffffffffff160361099d576040517f53fef9db00000000000000000000000000000000000000000000000000000000815260040160405180910390fd5b600a5f8273ffffffffffffffffffffffffffffffffffffffff1673ffffffffffffffffffffffffffffffffffffffff1681526020019081526020015f205f9054906101000a900460ff1615610a1e576040517f69db611300000000000000000000000000000000000000000000000000000000815260040160405180910390fd5b6001600a5f8373ffffffffffffffffffffffffffffffffffffffff1673ffffffffffffffffffffffffffffffffffffffff1681526020019081526020015f205f6101000a81548160ff0219169083151502179055507fa317c10673baf4f03b3c1041bd5ddbb537d0333a86fec3607c75f9dbb630f48f81604051610aa29190611d7f565b60405180910390a150565b5f8054906101000a900473ffffffffffffffffffffffffffffffffffffffff1673ffffffffffffffffffffffffffffffffffffffff163373ffffffffffffffffffffffffffffffffffffffff1614610b31576040517f82b4290000000000000000000000000000000000000000000000000000000000815260040160405180910390fd5b5f73ffffffffffffffffffffffffffffffffffffffff168173ffffffffffffffffffffffffffffffffffffffff1603610b96576040517f53fef9db00000000000000000000000000000000000000000000000000000000815260040160405180910390fd5b8060035f6101000a81548173ffffffffffffffffffffffffffffffffffffffff021916908373ffffffffffffffffffffffffffffffffffffffff1602179055507f43ab431641dd45dd0661cad4b820e826d7c526af92e3121e1242d721f82ab3ad81604051610c059190611d7f565b60405180910390a150565b5f8054906101000a900473ffffffffffffffffffffffffffffffffffffffff1673ffffffffffffffffffffffffffffffffffffffff163373ffffffffffffffffffffffffffffffffffffffff1614610c94576040517f82b4290000000000000000000000000000000000000000000000000000000000815260040160405180910390fd5b5f73ffffffffffffffffffffffffffffffffffffffff168173ffffffffffffffffffffffffffffffffffffffff1603610cf9576040517f53fef9db00000000000000000000000000000000000000000000000000000000815260040160405180910390fd5b8060085f6101000a81548173ffffffffffffffffffffffffffffffffffffffff021916908373ffffffffffffffffffffffffffffffffffffffff1602179055507f15e5dd851f772470ebbe19d0e53d5f67bd9d5bf53f69e161a5af961f6547691681604051610d689190611d7f565b60405180910390a150565b5f8054906101000a900473ffffffffffffffffffffffffffffffffffffffff1673ffffffffffffffffffffffffffffffffffffffff163373ffffffffffffffffffffffffffffffffffffffff1614610df7576040517f82b4290000000000000000000000000000000000000000000000000000000000815260040160405180910390fd5b5f73ffffffffffffffffffffffffffffffffffffffff168173ffffffffffffffffffffffffffffffffffffffff1603610e5c576040517f53fef9db00000000000000000000000000000000000000000000000000000000815260040160405180910390fd5b5f600b5f8373ffffffffffffffffffffffffffffffffffffffff1673ffffffffffffffffffffffffffffffffffffffff1681526020019081526020015f205f6101000a81548160ff0219169083151502179055508073ffffffffffffffffffffffffffffffffffffffff167faab7954e9d246b167ef88aeddad35209ca2489d95a8aeb59e288d9b19fae5a5460405160405180910390a250565b60075f9054906101000a900473ffffffffffffffffffffffffffffffffffffffff1681565b5f8054906101000a900473ffffffffffffffffffffffffffffffffffffffff1681565b60025f9054906101000a900473ffffffffffffffffffffffffffffffffffffffff1681565b5f8054906101000a900473ffffffffffffffffffffffffffffffffffffffff1673ffffffffffffffffffffffffffffffffffffffff163373ffffffffffffffffffffffffffffffffffffffff1614610fe7576040517f82b4290000000000000000000000000000000000000000000000000000000000815260040160405180910390fd5b5f73ffffffffffffffffffffffffffffffffffffffff168173ffffffffffffffffffffffffffffffffffffffff160361104c576040517f53fef9db00000000000000000000000000000000000000000000000000000000815260040160405180910390fd5b8060025f6101000a81548173ffffffffffffffffffffffffffffffffffffffff021916908373ffffffffffffffffffffffffffffffffffffffff1602179055507f43ab431641dd45dd0661cad4b820e826d7c526af92e3121e1242d721f82ab3ad816040516110bb9190611d7f565b60405180910390a150565b60095f9054906101000a900473ffffffffffffffffffffffffffffffffffffffff1681565b5f8054906101000a900473ffffffffffffffffffffffffffffffffffffffff1673ffffffffffffffffffffffffffffffffffffffff163373ffffffffffffffffffffffffffffffffffffffff161461116f576040517f82b4290000000000000000000000000000000000000000000000000000000000815260040160405180910390fd5b600a5f8273ffffffffffffffffffffffffffffffffffffffff1673ffffffffffffffffffffffffffffffffffffffff1681526020019081526020015f205f9054906101000a900460ff166111ef576040517f03d23f4e00000000000000000000000000000000000000000000000000000000815260040160405180910390fd5b600a5f8273ffffffffffffffffffffffffffffffffffffffff1673ffffffffffffffffffffffffffffffffffffffff1681526020019081526020015f205f6101000a81549060ff02191690557f85a3e72f8dd6db3794f93109c3c5f5b79d6112f6979431c45f98b26134b42af28160405161126a9190611d7f565b60405180910390a150565b5f8054906101000a900473ffffffffffffffffffffffffffffffffffffffff1673ffffffffffffffffffffffffffffffffffffffff163373ffffffffffffffffffffffffffffffffffffffff16146112f9576040517f82b4290000000000000000000000000000000000000000000000000000000000815260040160405180910390fd5b5f73ffffffffffffffffffffffffffffffffffffffff168173ffffffffffffffffffffffffffffffffffffffff160361135e576040517f53fef9db00000000000000000000000000000000000000000000000000000000815260040160405180910390fd5b8060095f6101000a81548173ffffffffffffffffffffffffffffffffffffffff021916908373ffffffffffffffffffffffffffffffffffffffff1602179055507f5a2d44708ed5f7f712dc8547c0561c73d67fe69e5e609684406a4f0b94dfdec0816040516113cd9190611d7f565b60405180910390a150565b600160149054906101000a900460ff1615611547575f8054906101000a900473ffffffffffffffffffffffffffffffffffffffff1673ffffffffffffffffffffffffffffffffffffffff163373ffffffffffffffffffffffffffffffffffffffff1614611471576040517f82b4290000000000000000000000000000000000000000000000000000000000815260040160405180910390fd5b600160146101000a81549060ff02191690555f60015f9054906101000a900473ffffffffffffffffffffffffffffffffffffffff169050805f806101000a81548173ffffffffffffffffffffffffffffffffffffffff021916908373ffffffffffffffffffffffffffffffffffffffff1602179055508073ffffffffffffffffffffffffffffffffffffffff163373ffffffffffffffffffffffffffffffffffffffff167f8be0079c531659141344cd1fd0a4f28419497f9722a3daafe3b4186f6b6457e060405160405180910390a3506115e8565b60015f9054906101000a900473ffffffffffffffffffffffffffffffffffffffff1673ffffffffffffffffffffffffffffffffffffffff163373ffffffffffffffffffffffffffffffffffffffff16146115cd576040517f82b4290000000000000000000000000000000000000000000000000000000000815260040160405180910390fd5b60018060146101000a81548160ff0219169083151502179055505b565b600a602052805f5260405f205f915054906101000a900460ff1681565b60055f9054906101000a900473ffffffffffffffffffffffffffffffffffffffff1681565b5f8054906101000a900473ffffffffffffffffffffffffffffffffffffffff1673ffffffffffffffffffffffffffffffffffffffff163373ffffffffffffffffffffffffffffffffffffffff16146116b0576040517f82b4290000000000000000000000000000000000000000000000000000000000815260040160405180910390fd5b5f73ffffffffffffffffffffffffffffffffffffffff168173ffffffffffffffffffffffffffffffffffffffff1603611715576040517f53fef9db00000000000000000000000000000000000000000000000000000000815260040160405180910390fd5b8060065f6101000a81548173ffffffffffffffffffffffffffffffffffffffff021916908373ffffffffffffffffffffffffffffffffffffffff1602179055507fe45f5e140399b0a7e12971ab020724b828fbed8ac408c420884dc7d1bbe506b4816040516117849190611d7f565b60405180910390a150565b60065f9054906101000a900473ffffffffffffffffffffffffffffffffffffffff1681565b5f8054906101000a900473ffffffffffffffffffffffffffffffffffffffff1673ffffffffffffffffffffffffffffffffffffffff163373ffffffffffffffffffffffffffffffffffffffff1614611838576040517f82b4290000000000000000000000000000000000000000000000000000000000815260040160405180910390fd5b5f73ffffffffffffffffffffffffffffffffffffffff168173ffffffffffffffffffffffffffffffffffffffff160361189d576040517f53fef9db00000000000000000000000000000000000000000000000000000000815260040160405180910390fd5b8060055f6101000a81548173ffffffffffffffffffffffffffffffffffffffff021916908373ffffffffffffffffffffffffffffffffffffffff1602179055507f24cd1310c8883cbeaf5b805ab13586ce018b79c022827158ff3e8df14d3449368160405161190c9190611d7f565b60405180910390a150565b5f8054906101000a900473ffffffffffffffffffffffffffffffffffffffff1673ffffffffffffffffffffffffffffffffffffffff163373ffffffffffffffffffffffffffffffffffffffff161461199b576040517f82b4290000000000000000000000000000000000000000000000000000000000815260040160405180910390fd5b5f73ffffffffffffffffffffffffffffffffffffffff168173ffffffffffffffffffffffffffffffffffffffff1603611a00576040517f53fef9db00000000000000000000000000000000000000000000000000000000815260040160405180910390fd5b8060075f6101000a81548173ffffffffffffffffffffffffffffffffffffffff021916908373ffffffffffffffffffffffffffffffffffffffff1602179055507f3c864541ef71378c6229510ed90f376565ee42d9c5e0904a984a9e863e6db44f81604051611a6f9190611d7f565b60405180910390a150565b5f8054906101000a900473ffffffffffffffffffffffffffffffffffffffff1673ffffffffffffffffffffffffffffffffffffffff163373ffffffffffffffffffffffffffffffffffffffff1614611afe576040517f82b4290000000000000000000000000000000000000000000000000000000000815260040160405180910390fd5b5f73ffffffffffffffffffffffffffffffffffffffff168173ffffffffffffffffffffffffffffffffffffffff1603611b63576040517f53fef9db00000000000000000000000000000000000000000000000000000000815260040160405180910390fd5b8060045f6101000a81548173ffffffffffffffffffffffffffffffffffffffff021916908373ffffffffffffffffffffffffffffffffffffffff1602179055507f43ab431641dd45dd0661cad4b820e826d7c526af92e3121e1242d721f82ab3ad81604051611bd29190611d7f565b60405180910390a150565b5f8054906101000a900473ffffffffffffffffffffffffffffffffffffffff1673ffffffffffffffffffffffffffffffffffffffff163373ffffffffffffffffffffffffffffffffffffffff1614611c61576040517f82b4290000000000000000000000000000000000000000000000000000000000815260040160405180910390fd5b8060015f6101000a81548173ffffffffffffffffffffffffffffffffffffffff021916908373ffffffffffffffffffffffffffffffffffffffff1602179055508073ffffffffffffffffffffffffffffffffffffffff163373ffffffffffffffffffffffffffffffffffffffff167f365e8eca24e61548e99db9d948e4f9cf79224bcbf4fc81afe651e6e80921c87560405160405180910390a350565b60085f9054906101000a900473ffffffffffffffffffffffffffffffffffffffff1681565b600b602052805f5260405f205f915054906101000a900460ff1681565b5f73ffffffffffffffffffffffffffffffffffffffff82169050919050565b5f611d6982611d40565b9050919050565b611d7981611d5f565b82525050565b5f602082019050611d925f830184611d70565b92915050565b5f80fd5b611da581611d5f565b8114611daf575f80fd5b50565b5f81359050611dc081611d9c565b92915050565b5f60208284031215611ddb57611dda611d98565b5b5f611de884828501611db2565b91505092915050565b5f8115159050919050565b611e0581611df1565b82525050565b5f602082019050611e1e5f830184611dfc565b9291505056fea2646970667358221220abe15b36dcc85c0032ffc7bccae164ddd0829601ba29404dd9a01b8a6389f2aa64736f6c63430008190033","linkReferences":{}},"methodIdentifiers":{"NATIVE_TOKEN()":"31f7d964","accountRecovery()":"f58df752","addPaymentToken(address)":"4a7dc8e0","addToBlacklist(address)":"44337ea1","adminManager()":"a210b6a4","blacklist(address)":"f9f92be4","confirmOwner()":"bd9b6d86","escrowFixedPrice()":"9036a459","escrowHourly()":"1afcd4d3","escrowMilestone()":"26094a18","factory()":"c45a0155","feeManager()":"d0fb0203","owner()":"8da5cb5b","paymentTokens(address)":"c3b88b42","removeFromBlacklist(address)":"537df3b6","removePaymentToken(address)":"a5125421","renounceOwner()":"28c23a45","setAccountRecovery(address)":"5135324f","setAdminManager(address)":"bc160758","setTreasury(address)":"f0f44260","transferOwnership(address)":"f2fde38b","treasury()":"61d027b3","updateEscrowFixedPrice(address)":"9fc07d05","updateEscrowHourly(address)":"f2c22f6e","updateEscrowMilestone(address)":"4fef5b63","updateFactory(address)":"d9f165dc","updateFeeManager(address)":"c6acd274"},"id":70}