{"abi":[{"type":"constructor","inputs":[{"name":"_registry","type":"address","internalType":"address"},{"name":"_owner","type":"address","internalType":"address"}],"stateMutability":"nonpayable"},{"type":"function","name":"confirmOwner","inputs":[],"outputs":[],"stateMutability":"payable"},{"type":"function","name":"deployEscrow","inputs":[{"name":"_escrowType","type":"uint8","internalType":"enum Enums.EscrowType"},{"name":"_client","type":"address","internalType":"address"},{"name":"_adminManager","type":"address","internalType":"address"},{"name":"_registry","type":"address","internalType":"address"}],"outputs":[{"name":"deployedProxy","type":"address","internalType":"address"}],"stateMutability":"nonpayable"},{"type":"function","name":"existingEscrow","inputs":[{"name":"escrow","type":"address","internalType":"address"}],"outputs":[{"name":"deployed","type":"bool","internalType":"bool"}],"stateMutability":"view"},{"type":"function","name":"factoryNonce","inputs":[{"name":"deployer","type":"address","internalType":"address"}],"outputs":[{"name":"nonce","type":"uint256","internalType":"uint256"}],"stateMutability":"view"},{"type":"function","name":"getEscrowImplementation","inputs":[{"name":"_escrowType","type":"uint8","internalType":"enum Enums.EscrowType"}],"outputs":[{"name":"escrowImpl","type":"address","internalType":"address"}],"stateMutability":"view"},{"type":"function","name":"owner","inputs":[],"outputs":[{"name":"","type":"address","internalType":"address"}],"stateMutability":"view"},{"type":"function","name":"pause","inputs":[],"outputs":[],"stateMutability":"nonpayable"},{"type":"function","name":"paused","inputs":[],"outputs":[{"name":"","type":"bool","internalType":"bool"}],"stateMutability":"view"},{"type":"function","name":"registry","inputs":[],"outputs":[{"name":"","type":"address","internalType":"contract IEscrowRegistry"}],"stateMutability":"view"},{"type":"function","name":"renounceOwner","inputs":[],"outputs":[],"stateMutability":"payable"},{"type":"function","name":"transferOwnership","inputs":[{"name":"newOwner","type":"address","internalType":"address"}],"outputs":[],"stateMutability":"payable"},{"type":"function","name":"unpause","inputs":[],"outputs":[],"stateMutability":"nonpayable"},{"type":"function","name":"updateRegistry","inputs":[{"name":"_registry","type":"address","internalType":"address"}],"outputs":[],"stateMutability":"nonpayable"},{"type":"event","name":"EscrowProxyDeployed","inputs":[{"name":"sender","type":"address","indexed":false,"internalType":"address"},{"name":"deployedProxy","type":"address","indexed":false,"internalType":"address"},{"name":"escrowType","type":"uint8","indexed":false,"internalType":"enum Enums.EscrowType"}],"anonymous":false},{"type":"event","name":"OwnerUpdateInitiated","inputs":[{"name":"user","type":"address","indexed":true,"internalType":"address"},{"name":"ownerCandidate","type":"address","indexed":true,"internalType":"address"}],"anonymous":false},{"type":"event","name":"OwnershipTransferred","inputs":[{"name":"user","type":"address","indexed":true,"internalType":"address"},{"name":"newOwner","type":"address","indexed":true,"internalType":"address"}],"anonymous":false},{"type":"event","name":"Paused","inputs":[{"name":"account","type":"address","indexed":false,"internalType":"address"}],"anonymous":false},{"type":"event","name":"RegistryUpdated","inputs":[{"name":"registry","type":"address","indexed":false,"internalType":"address"}],"anonymous":false},{"type":"event","name":"Unpaused","inputs":[{"name":"account","type":"address","indexed":false,"internalType":"address"}],"anonymous":false},{"type":"error","name":"EnforcedPause","inputs":[]},{"type":"error","name":"ExpectedPause","inputs":[]},{"type":"error","name":"Factory__InvalidEscrowType","inputs":[]},{"type":"error","name":"Factory__ZeroAddressProvided","inputs":[]},{"type":"error","name":"Unauthorized","inputs":[]}],"bytecode":{"object":"0x608060405234801561000f575f80fd5b5060405161162a38038061162a83398181016040528101906100319190610227565b80805f806101000a81548173ffffffffffffffffffffffffffffffffffffffff021916908373ffffffffffffffffffffffffffffffffffffffff1602179055508073ffffffffffffffffffffffffffffffffffffffff165f73ffffffffffffffffffffffffffffffffffffffff167f8be0079c531659141344cd1fd0a4f28419497f9722a3daafe3b4186f6b6457e060405160405180910390a3505f600160156101000a81548160ff0219169083151502179055505f73ffffffffffffffffffffffffffffffffffffffff168273ffffffffffffffffffffffffffffffffffffffff16148061014b57505f73ffffffffffffffffffffffffffffffffffffffff168173ffffffffffffffffffffffffffffffffffffffff16145b15610182576040517f76f4e45100000000000000000000000000000000000000000000000000000000815260040160405180910390fd5b8160025f6101000a81548173ffffffffffffffffffffffffffffffffffffffff021916908373ffffffffffffffffffffffffffffffffffffffff1602179055505050610265565b5f80fd5b5f73ffffffffffffffffffffffffffffffffffffffff82169050919050565b5f6101f6826101cd565b9050919050565b610206816101ec565b8114610210575f80fd5b50565b5f81519050610221816101fd565b92915050565b5f806040838503121561023d5761023c6101c9565b5b5f61024a85828601610213565b925050602061025b85828601610213565b9150509250929050565b6113b8806102725f395ff3fe6080604052600436106100c1575f3560e01c80638456cb591161007e578063bd9b6d8611610058578063bd9b6d8614610219578063f0cd5e1914610223578063f2fde38b1461025f578063fac195801461027b576100c1565b80638456cb591461019d5780638da5cb5b146101b3578063bd5ce9db146101dd576100c1565b80631a5da6c8146100c557806324dce486146100ed57806328c23a45146101295780633f4ba83a146101335780635c975abb146101495780637b10399914610173575b5f80fd5b3480156100d0575f80fd5b506100eb60048036038101906100e69190611062565b6102b7565b005b3480156100f8575f80fd5b50610113600480360381019061010e9190611062565b61041a565b60405161012091906110a5565b60405180910390f35b61013161042f565b005b34801561013e575f80fd5b50610147610532565b005b348015610154575f80fd5b5061015d6105c0565b60405161016a91906110d8565b60405180910390f35b34801561017e575f80fd5b506101876105d6565b604051610194919061114c565b60405180910390f35b3480156101a8575f80fd5b506101b16105fb565b005b3480156101be575f80fd5b506101c7610689565b6040516101d49190611174565b60405180910390f35b3480156101e8575f80fd5b5061020360048036038101906101fe9190611062565b6106ac565b60405161021091906110d8565b60405180910390f35b6102216106c9565b005b34801561022e575f80fd5b50610249600480360381019061024491906111b0565b6108db565b6040516102569190611174565b60405180910390f35b61027960048036038101906102749190611062565b610aba565b005b348015610286575f80fd5b506102a1600480360381019061029c9190611214565b610bdb565b6040516102ae9190611174565b60405180910390f35b5f8054906101000a900473ffffffffffffffffffffffffffffffffffffffff1673ffffffffffffffffffffffffffffffffffffffff163373ffffffffffffffffffffffffffffffffffffffff161461033b576040517f82b4290000000000000000000000000000000000000000000000000000000000815260040160405180910390fd5b5f73ffffffffffffffffffffffffffffffffffffffff168173ffffffffffffffffffffffffffffffffffffffff16036103a0576040517f76f4e45100000000000000000000000000000000000000000000000000000000815260040160405180910390fd5b8060025f6101000a81548173ffffffffffffffffffffffffffffffffffffffff021916908373ffffffffffffffffffffffffffffffffffffffff1602179055507fd6ceddf6d2a22f21c7c81675c518004eff43bc5c8a6fc32a0b748e69d58671cd8160405161040f9190611174565b60405180910390a150565b6003602052805f5260405f205f915090505481565b5f8054906101000a900473ffffffffffffffffffffffffffffffffffffffff1673ffffffffffffffffffffffffffffffffffffffff163373ffffffffffffffffffffffffffffffffffffffff16146104b3576040517f82b4290000000000000000000000000000000000000000000000000000000000815260040160405180910390fd5b5f806101000a81549073ffffffffffffffffffffffffffffffffffffffff02191690555f73ffffffffffffffffffffffffffffffffffffffff163373ffffffffffffffffffffffffffffffffffffffff167f8be0079c531659141344cd1fd0a4f28419497f9722a3daafe3b4186f6b6457e060405160405180910390a3565b5f8054906101000a900473ffffffffffffffffffffffffffffffffffffffff1673ffffffffffffffffffffffffffffffffffffffff163373ffffffffffffffffffffffffffffffffffffffff16146105b6576040517f82b4290000000000000000000000000000000000000000000000000000000000815260040160405180910390fd5b6105be610bec565b565b5f600160159054906101000a900460ff16905090565b60025f9054906101000a900473ffffffffffffffffffffffffffffffffffffffff1681565b5f8054906101000a900473ffffffffffffffffffffffffffffffffffffffff1673ffffffffffffffffffffffffffffffffffffffff163373ffffffffffffffffffffffffffffffffffffffff161461067f576040517f82b4290000000000000000000000000000000000000000000000000000000000815260040160405180910390fd5b610687610c4e565b565b5f8054906101000a900473ffffffffffffffffffffffffffffffffffffffff1681565b6004602052805f5260405f205f915054906101000a900460ff1681565b600160149054906101000a900460ff1615610838575f8054906101000a900473ffffffffffffffffffffffffffffffffffffffff1673ffffffffffffffffffffffffffffffffffffffff163373ffffffffffffffffffffffffffffffffffffffff1614610762576040517f82b4290000000000000000000000000000000000000000000000000000000000815260040160405180910390fd5b600160146101000a81549060ff02191690555f60015f9054906101000a900473ffffffffffffffffffffffffffffffffffffffff169050805f806101000a81548173ffffffffffffffffffffffffffffffffffffffff021916908373ffffffffffffffffffffffffffffffffffffffff1602179055508073ffffffffffffffffffffffffffffffffffffffff163373ffffffffffffffffffffffffffffffffffffffff167f8be0079c531659141344cd1fd0a4f28419497f9722a3daafe3b4186f6b6457e060405160405180910390a3506108d9565b60015f9054906101000a900473ffffffffffffffffffffffffffffffffffffffff1673ffffffffffffffffffffffffffffffffffffffff163373ffffffffffffffffffffffffffffffffffffffff16146108be576040517f82b4290000000000000000000000000000000000000000000000000000000000815260040160405180910390fd5b60018060146101000a81548160ff0219169083151502179055505b565b5f6108e4610cb0565b5f6108ee86610cf1565b90505f3360035f3373ffffffffffffffffffffffffffffffffffffffff1673ffffffffffffffffffffffffffffffffffffffff1681526020019081526020015f205460405160200161094192919061123f565b6040516020818303038152906040528051906020012090505f6109648383610f6b565b90508073ffffffffffffffffffffffffffffffffffffffff1663c0c53b8b8888886040518463ffffffff1660e01b81526004016109a393929190611266565b5f604051808303815f87803b1580156109ba575f80fd5b505af11580156109cc573d5f803e3d5ffd5b50505050809350600160045f8673ffffffffffffffffffffffffffffffffffffffff1673ffffffffffffffffffffffffffffffffffffffff1681526020019081526020015f205f6101000a81548160ff02191690831515021790555060035f3373ffffffffffffffffffffffffffffffffffffffff1673ffffffffffffffffffffffffffffffffffffffff1681526020019081526020015f205f81548092919060010191905055507fa9760c7346a649f3321d222d81502365f007002a3901c522ee76f553718d1cd233858a604051610aa79392919061130e565b60405180910390a1505050949350505050565b5f8054906101000a900473ffffffffffffffffffffffffffffffffffffffff1673ffffffffffffffffffffffffffffffffffffffff163373ffffffffffffffffffffffffffffffffffffffff1614610b3e576040517f82b4290000000000000000000000000000000000000000000000000000000000815260040160405180910390fd5b8060015f6101000a81548173ffffffffffffffffffffffffffffffffffffffff021916908373ffffffffffffffffffffffffffffffffffffffff1602179055508073ffffffffffffffffffffffffffffffffffffffff163373ffffffffffffffffffffffffffffffffffffffff167f365e8eca24e61548e99db9d948e4f9cf79224bcbf4fc81afe651e6e80921c87560405160405180910390a350565b5f610be582610cf1565b9050919050565b610bf4610fbd565b5f600160156101000a81548160ff0219169083151502179055507f5db9ee0a495bf2e6ff9c91a7834c1ba4fdd244a5e8aa4e537bd38aeae4b073aa610c37610ffd565b604051610c449190611174565b60405180910390a1565b610c56610cb0565b60018060156101000a81548160ff0219169083151502179055507f62e78cea01bee320cd4e420270b5ea74000d11b0c9f74754ebdbfc544b05a258610c99610ffd565b604051610ca69190611174565b60405180910390a1565b610cb86105c0565b15610cef576040517fd93c066500000000000000000000000000000000000000000000000000000000815260040160405180910390fd5b565b5f806003811115610d0557610d0461129b565b5b826003811115610d1857610d1761129b565b5b03610db25760025f9054906101000a900473ffffffffffffffffffffffffffffffffffffffff1673ffffffffffffffffffffffffffffffffffffffff16639036a4596040518163ffffffff1660e01b8152600401602060405180830381865afa158015610d87573d5f803e3d5ffd5b505050506040513d601f19601f82011682018060405250810190610dab9190611357565b9050610f66565b60016003811115610dc657610dc561129b565b5b826003811115610dd957610dd861129b565b5b03610e735760025f9054906101000a900473ffffffffffffffffffffffffffffffffffffffff1673ffffffffffffffffffffffffffffffffffffffff166326094a186040518163ffffffff1660e01b8152600401602060405180830381865afa158015610e48573d5f803e3d5ffd5b505050506040513d601f19601f82011682018060405250810190610e6c9190611357565b9050610f66565b60026003811115610e8757610e8661129b565b5b826003811115610e9a57610e9961129b565b5b03610f345760025f9054906101000a900473ffffffffffffffffffffffffffffffffffffffff1673ffffffffffffffffffffffffffffffffffffffff16631afcd4d36040518163ffffffff1660e01b8152600401602060405180830381865afa158015610f09573d5f803e3d5ffd5b505050506040513d601f19601f82011682018060405250810190610f2d9190611357565b9050610f66565b6040517f54e36a7e00000000000000000000000000000000000000000000000000000000815260040160405180910390fd5b919050565b5f6c5af43d3d93803e602a57fd5bf36021528260145273602c3d8160093d39f33d3d3d3d363d3d37363d735f52816035600c5ff590505f60215280610fb75763301164255f526004601cfd5b92915050565b610fc56105c0565b610ffb576040517f8dfc202b00000000000000000000000000000000000000000000000000000000815260040160405180910390fd5b565b5f33905090565b5f80fd5b5f73ffffffffffffffffffffffffffffffffffffffff82169050919050565b5f61103182611008565b9050919050565b61104181611027565b811461104b575f80fd5b50565b5f8135905061105c81611038565b92915050565b5f6020828403121561107757611076611004565b5b5f6110848482850161104e565b91505092915050565b5f819050919050565b61109f8161108d565b82525050565b5f6020820190506110b85f830184611096565b92915050565b5f8115159050919050565b6110d2816110be565b82525050565b5f6020820190506110eb5f8301846110c9565b92915050565b5f819050919050565b5f61111461110f61110a84611008565b6110f1565b611008565b9050919050565b5f611125826110fa565b9050919050565b5f6111368261111b565b9050919050565b6111468161112c565b82525050565b5f60208201905061115f5f83018461113d565b92915050565b61116e81611027565b82525050565b5f6020820190506111875f830184611165565b92915050565b60048110611199575f80fd5b50565b5f813590506111aa8161118d565b92915050565b5f805f80608085870312156111c8576111c7611004565b5b5f6111d58782880161119c565b94505060206111e68782880161104e565b93505060406111f78782880161104e565b92505060606112088782880161104e565b91505092959194509250565b5f6020828403121561122957611228611004565b5b5f6112368482850161119c565b91505092915050565b5f6040820190506112525f830185611165565b61125f6020830184611096565b9392505050565b5f6060820190506112795f830186611165565b6112866020830185611165565b6112936040830184611165565b949350505050565b7f4e487b71000000000000000000000000000000000000000000000000000000005f52602160045260245ffd5b600481106112d9576112d861129b565b5b50565b5f8190506112e9826112c8565b919050565b5f6112f8826112dc565b9050919050565b611308816112ee565b82525050565b5f6060820190506113215f830186611165565b61132e6020830185611165565b61133b60408301846112ff565b949350505050565b5f8151905061135181611038565b92915050565b5f6020828403121561136c5761136b611004565b5b5f61137984828501611343565b9150509291505056fea26469706673582212200e3c655610b168a7ccbd5a67db238cea39c6d35b20836f5ccd54c1c01d6daf0064736f6c63430008190033","linkReferences":{}},"methodIdentifiers":{"confirmOwner()":"bd9b6d86","deployEscrow(uint8,address,address,address)":"f0cd5e19","existingEscrow(address)":"bd5ce9db","factoryNonce(address)":"24dce486","getEscrowImplementation(uint8)":"fac19580","owner()":"8da5cb5b","pause()":"8456cb59","paused()":"5c975abb","registry()":"7b103999","renounceOwner()":"28c23a45","transferOwnership(address)":"f2fde38b","unpause()":"3f4ba83a","updateRegistry(address)":"1a5da6c8"},"id":53}