{"abi":[{"type":"function","name":"ACCOUNT_RECOVERY","inputs":[],"outputs":[{"name":"","type":"address","internalType":"address"}],"stateMutability":"view"},{"type":"function","name":"ADMIN_MANAGER","inputs":[],"outputs":[{"name":"","type":"address","internalType":"address"}],"stateMutability":"view"},{"type":"function","name":"CHAIN_ID","inputs":[],"outputs":[{"name":"","type":"uint256","internalType":"uint256"}],"stateMutability":"view"},{"type":"function","name":"ESCROW_FIXED_PRICE","inputs":[],"outputs":[{"name":"","type":"address","internalType":"address"}],"stateMutability":"view"},{"type":"function","name":"ESCROW_HOURLY","inputs":[],"outputs":[{"name":"","type":"address","internalType":"address"}],"stateMutability":"view"},{"type":"function","name":"ESCROW_MILESTONE","inputs":[],"outputs":[{"name":"","type":"address","internalType":"address"}],"stateMutability":"view"},{"type":"function","name":"FACTORY","inputs":[],"outputs":[{"name":"","type":"address","internalType":"address"}],"stateMutability":"view"},{"type":"function","name":"FEE_MANAGER","inputs":[],"outputs":[{"name":"","type":"address","internalType":"address"}],"stateMutability":"view"},{"type":"function","name":"MOCK_DAI","inputs":[],"outputs":[{"name":"","type":"address","internalType":"address"}],"stateMutability":"view"},{"type":"function","name":"MOCK_USDT","inputs":[],"outputs":[{"name":"","type":"address","internalType":"address"}],"stateMutability":"view"},{"type":"function","name":"OWNER","inputs":[],"outputs":[{"name":"","type":"address","internalType":"address"}],"stateMutability":"view"},{"type":"function","name":"REGISTRY","inputs":[],"outputs":[{"name":"","type":"address","internalType":"address"}],"stateMutability":"view"}],"bytecode":{"object":"0x6103f761004d600b8282823980515f1a6073146041577f4e487b71000000000000000000000000000000000000000000000000000000005f525f60045260245ffd5b305f52607381538281f3fe73000000000000000000000000000000000000000030146080604052600436106100bd575f3560e01c80634cc261621161007a5780634cc26162146101755780635ff55ad11461019357806385e1f4d0146101b15780639a5b6f8f146101cf578063aa95657a146101ed578063ea26266c1461020b576100bd565b806306433b1b146100c157806307c6a7f8146100df5780630e6f66c5146100fd578063117803e31461011b5780632dd3100014610139578063467c85d814610157575b5f80fd5b6100c9610229565b6040516100d69190610377565b60405180910390f35b6100e7610241565b6040516100f49190610377565b60405180910390f35b610105610259565b6040516101129190610377565b60405180910390f35b610123610271565b6040516101309190610377565b60405180910390f35b610141610289565b60405161014e9190610377565b60405180910390f35b61015f6102a1565b60405161016c9190610377565b60405180910390f35b61017d6102b9565b60405161018a9190610377565b60405180910390f35b61019b6102d1565b6040516101a89190610377565b60405180910390f35b6101b96102e9565b6040516101c691906103a8565b60405180910390f35b6101d76102f0565b6040516101e49190610377565b60405180910390f35b6101f5610308565b6040516102029190610377565b60405180910390f35b610213610320565b6040516102209190610377565b60405180910390f35b73928d26474d15855c697f47a64f8877b228920d5981565b73d52154bd4b275d7d6059d68a730003e5e85f42b681565b73b3a88448768aa314badbe43a5d394b1b8ef2db1b81565b733eab900ac1e0de25f465c63717cd1044ff69243c81565b73e5552a5830cd05a3f19553a8879582c33e9e46d881565b7309684b2c9c835198122dbeece729c202758fe3e681565b732847a804d24d10a43e765873fc3a670c3b35937a81565b73a801061f49970ef796e0fd0998348f3436cccb1d81565b62aa36a781565b73adfe561ee14842d05a7720a4d9eb2579891f3d6781565b73833cb00a77a82797de64c7453fe235ca369410dc81565b73617247bccdb41f55adbe31234b2a8ac273b57c3581565b5f73ffffffffffffffffffffffffffffffffffffffff82169050919050565b5f61036182610338565b9050919050565b61037181610357565b82525050565b5f60208201905061038a5f830184610368565b92915050565b5f819050919050565b6103a281610390565b82525050565b5f6020820190506103bb5f830184610399565b9291505056fea26469706673582212201c7070b1e0e49566176d6a025955dac9e0ded6204ba37236d25ea33e501655ba64736f6c63430008190033","linkReferences":{}},"methodIdentifiers":{"ACCOUNT_RECOVERY()":"467c85d8","ADMIN_MANAGER()":"9a5b6f8f","CHAIN_ID()":"85e1f4d0","ESCROW_FIXED_PRICE()":"0e6f66c5","ESCROW_HOURLY()":"4cc26162","ESCROW_MILESTONE()":"aa95657a","FACTORY()":"2dd31000","FEE_MANAGER()":"ea26266c","MOCK_DAI()":"07c6a7f8","MOCK_USDT()":"5ff55ad1","OWNER()":"117803e3","REGISTRY()":"06433b1b"},"id":0}