{"abi":[{"type":"function","name":"adminManager","inputs":[],"outputs":[{"name":"","type":"address","internalType":"contract IEscrowAdminManager"}],"stateMutability":"view"},{"type":"function","name":"approve","inputs":[{"name":"_contractId","type":"uint256","internalType":"uint256"},{"name":"_milestoneId","type":"uint256","internalType":"uint256"},{"name":"_amountApprove","type":"uint256","internalType":"uint256"},{"name":"_receiver","type":"address","internalType":"address"}],"outputs":[],"stateMutability":"nonpayable"},{"type":"function","name":"approveReturn","inputs":[{"name":"_contractId","type":"uint256","internalType":"uint256"},{"name":"_milestoneId","type":"uint256","internalType":"uint256"}],"outputs":[],"stateMutability":"nonpayable"},{"type":"function","name":"cancelReturn","inputs":[{"name":"_contractId","type":"uint256","internalType":"uint256"},{"name":"_milestoneId","type":"uint256","internalType":"uint256"},{"name":"_status","type":"uint8","internalType":"enum Enums.Status"}],"outputs":[],"stateMutability":"nonpayable"},{"type":"function","name":"claim","inputs":[{"name":"_contractId","type":"uint256","internalType":"uint256"},{"name":"_milestoneId","type":"uint256","internalType":"uint256"}],"outputs":[],"stateMutability":"nonpayable"},{"type":"function","name":"claimAll","inputs":[{"name":"_contractId","type":"uint256","internalType":"uint256"},{"name":"_startMilestoneId","type":"uint256","internalType":"uint256"},{"name":"_endMilestoneId","type":"uint256","internalType":"uint256"}],"outputs":[],"stateMutability":"nonpayable"},{"type":"function","name":"client","inputs":[],"outputs":[{"name":"","type":"address","internalType":"address"}],"stateMutability":"view"},{"type":"function","name":"contractMilestones","inputs":[{"name":"contractId","type":"uint256","internalType":"uint256"},{"name":"","type":"uint256","internalType":"uint256"}],"outputs":[{"name":"contractor","type":"address","internalType":"address"},{"name":"amount","type":"uint256","internalType":"uint256"},{"name":"amountToClaim","type":"uint256","internalType":"uint256"},{"name":"amountToWithdraw","type":"uint256","internalType":"uint256"},{"name":"contractorData","type":"bytes32","internalType":"bytes32"},{"name":"feeConfig","type":"uint8","internalType":"enum Enums.FeeConfig"},{"name":"status","type":"uint8","internalType":"enum Enums.Status"}],"stateMutability":"view"},{"type":"function","name":"createDispute","inputs":[{"name":"_contractId","type":"uint256","internalType":"uint256"},{"name":"_milestoneId","type":"uint256","internalType":"uint256"}],"outputs":[],"stateMutability":"nonpayable"},{"type":"function","name":"deposit","inputs":[{"name":"_contractId","type":"uint256","internalType":"uint256"},{"name":"_paymentToken","type":"address","internalType":"address"},{"name":"_milestones","type":"tuple[]","internalType":"struct IEscrowMilestone.Milestone[]","components":[{"name":"contractor","type":"address","internalType":"address"},{"name":"amount","type":"uint256","internalType":"uint256"},{"name":"amountToClaim","type":"uint256","internalType":"uint256"},{"name":"amountToWithdraw","type":"uint256","internalType":"uint256"},{"name":"contractorData","type":"bytes32","internalType":"bytes32"},{"name":"feeConfig","type":"uint8","internalType":"enum Enums.FeeConfig"},{"name":"status","type":"uint8","internalType":"enum Enums.Status"}]}],"outputs":[],"stateMutability":"nonpayable"},{"type":"function","name":"getContractorDataHash","inputs":[{"name":"_data","type":"bytes","internalType":"bytes"},{"name":"_salt","type":"bytes32","internalType":"bytes32"}],"outputs":[{"name":"","type":"bytes32","internalType":"bytes32"}],"stateMutability":"pure"},{"type":"function","name":"getCurrentContractId","inputs":[],"outputs":[{"name":"","type":"uint256","internalType":"uint256"}],"stateMutability":"view"},{"type":"function","name":"getMilestoneCount","inputs":[{"name":"_contractId","type":"uint256","internalType":"uint256"}],"outputs":[{"name":"","type":"uint256","internalType":"uint256"}],"stateMutability":"view"},{"type":"function","name":"initialize","inputs":[{"name":"_client","type":"address","internalType":"address"},{"name":"_adminManager","type":"address","internalType":"address"},{"name":"_registry","type":"address","internalType":"address"}],"outputs":[],"stateMutability":"nonpayable"},{"type":"function","name":"initialized","inputs":[],"outputs":[{"name":"","type":"bool","internalType":"bool"}],"stateMutability":"view"},{"type":"function","name":"isValidSignature","inputs":[{"name":"_hash","type":"bytes32","internalType":"bytes32"},{"name":"_signature","type":"bytes","internalType":"bytes"}],"outputs":[{"name":"","type":"bytes4","internalType":"bytes4"}],"stateMutability":"view"},{"type":"function","name":"maxMilestones","inputs":[],"outputs":[{"name":"","type":"uint256","internalType":"uint256"}],"stateMutability":"view"},{"type":"function","name":"milestoneDetails","inputs":[{"name":"contractId","type":"uint256","internalType":"uint256"},{"name":"milestoneId","type":"uint256","internalType":"uint256"}],"outputs":[{"name":"paymentToken","type":"address","internalType":"address"},{"name":"depositAmount","type":"uint256","internalType":"uint256"},{"name":"winner","type":"uint8","internalType":"enum Enums.Winner"}],"stateMutability":"view"},{"type":"function","name":"refill","inputs":[{"name":"_contractId","type":"uint256","internalType":"uint256"},{"name":"_milestoneId","type":"uint256","internalType":"uint256"},{"name":"_amountAdditional","type":"uint256","internalType":"uint256"}],"outputs":[],"stateMutability":"nonpayable"},{"type":"function","name":"registry","inputs":[],"outputs":[{"name":"","type":"address","internalType":"contract IEscrowRegistry"}],"stateMutability":"view"},{"type":"function","name":"requestReturn","inputs":[{"name":"_contractId","type":"uint256","internalType":"uint256"},{"name":"_milestoneId","type":"uint256","internalType":"uint256"}],"outputs":[],"stateMutability":"nonpayable"},{"type":"function","name":"resolveDispute","inputs":[{"name":"_contractId","type":"uint256","internalType":"uint256"},{"name":"_milestoneId","type":"uint256","internalType":"uint256"},{"name":"_winner","type":"uint8","internalType":"enum Enums.Winner"},{"name":"_clientAmount","type":"uint256","internalType":"uint256"},{"name":"_contractorAmount","type":"uint256","internalType":"uint256"}],"outputs":[],"stateMutability":"nonpayable"},{"type":"function","name":"setMaxMilestones","inputs":[{"name":"_maxMilestones","type":"uint256","internalType":"uint256"}],"outputs":[],"stateMutability":"nonpayable"},{"type":"function","name":"submit","inputs":[{"name":"_contractId","type":"uint256","internalType":"uint256"},{"name":"_milestoneId","type":"uint256","internalType":"uint256"},{"name":"_data","type":"bytes","internalType":"bytes"},{"name":"_salt","type":"bytes32","internalType":"bytes32"}],"outputs":[],"stateMutability":"nonpayable"},{"type":"function","name":"transferClientOwnership","inputs":[{"name":"_newAccount","type":"address","internalType":"address"}],"outputs":[],"stateMutability":"nonpayable"},{"type":"function","name":"transferContractorOwnership","inputs":[{"name":"_contractId","type":"uint256","internalType":"uint256"},{"name":"_milestoneId","type":"uint256","internalType":"uint256"},{"name":"_newAccount","type":"address","internalType":"address"}],"outputs":[],"stateMutability":"nonpayable"},{"type":"function","name":"updateAdminManager","inputs":[{"name":"_adminManager","type":"address","internalType":"address"}],"outputs":[],"stateMutability":"nonpayable"},{"type":"function","name":"updateRegistry","inputs":[{"name":"_registry","type":"address","internalType":"address"}],"outputs":[],"stateMutability":"nonpayable"},{"type":"function","name":"withdraw","inputs":[{"name":"_contractId","type":"uint256","internalType":"uint256"},{"name":"_milestoneId","type":"uint256","internalType":"uint256"}],"outputs":[],"stateMutability":"nonpayable"},{"type":"event","name":"AdminManagerUpdated","inputs":[{"name":"adminManager","type":"address","indexed":false,"internalType":"address"}],"anonymous":false},{"type":"event","name":"Approved","inputs":[{"name":"approver","type":"address","indexed":true,"internalType":"address"},{"name":"contractId","type":"uint256","indexed":true,"internalType":"uint256"},{"name":"milestoneId","type":"uint256","indexed":true,"internalType":"uint256"},{"name":"amountApprove","type":"uint256","indexed":false,"internalType":"uint256"},{"name":"receiver","type":"address","indexed":false,"internalType":"address"}],"anonymous":false},{"type":"event","name":"BulkClaimed","inputs":[{"name":"contractor","type":"address","indexed":true,"internalType":"address"},{"name":"contractId","type":"uint256","indexed":true,"internalType":"uint256"},{"name":"startMilestoneId","type":"uint256","indexed":false,"internalType":"uint256"},{"name":"endMilestoneId","type":"uint256","indexed":false,"internalType":"uint256"},{"name":"totalClaimedAmount","type":"uint256","indexed":false,"internalType":"uint256"},{"name":"totalFeeAmount","type":"uint256","indexed":false,"internalType":"uint256"},{"name":"totalClientFee","type":"uint256","indexed":false,"internalType":"uint256"}],"anonymous":false},{"type":"event","name":"Claimed","inputs":[{"name":"contractor","type":"address","indexed":true,"internalType":"address"},{"name":"contractId","type":"uint256","indexed":true,"internalType":"uint256"},{"name":"milestoneId","type":"uint256","indexed":true,"internalType":"uint256"},{"name":"amount","type":"uint256","indexed":false,"internalType":"uint256"},{"name":"feeAmount","type":"uint256","indexed":false,"internalType":"uint256"}],"anonymous":false},{"type":"event","name":"ClientOwnershipTransferred","inputs":[{"name":"previousOwner","type":"address","indexed":true,"internalType":"address"},{"name":"newOwner","type":"address","indexed":true,"internalType":"address"}],"anonymous":false},{"type":"event","name":"ContractorOwnershipTransferred","inputs":[{"name":"contractId","type":"uint256","indexed":true,"internalType":"uint256"},{"name":"milestoneId","type":"uint256","indexed":true,"internalType":"uint256"},{"name":"previousOwner","type":"address","indexed":false,"internalType":"address"},{"name":"newOwner","type":"address","indexed":true,"internalType":"address"}],"anonymous":false},{"type":"event","name":"Deposited","inputs":[{"name":"depositor","type":"address","indexed":true,"internalType":"address"},{"name":"contractId","type":"uint256","indexed":true,"internalType":"uint256"},{"name":"milestoneId","type":"uint256","indexed":false,"internalType":"uint256"},{"name":"amount","type":"uint256","indexed":false,"internalType":"uint256"},{"name":"contractor","type":"address","indexed":true,"internalType":"address"}],"anonymous":false},{"type":"event","name":"DisputeCreated","inputs":[{"name":"sender","type":"address","indexed":true,"internalType":"address"},{"name":"contractId","type":"uint256","indexed":true,"internalType":"uint256"},{"name":"milestoneId","type":"uint256","indexed":true,"internalType":"uint256"}],"anonymous":false},{"type":"event","name":"DisputeResolved","inputs":[{"name":"approver","type":"address","indexed":true,"internalType":"address"},{"name":"contractId","type":"uint256","indexed":true,"internalType":"uint256"},{"name":"milestoneId","type":"uint256","indexed":true,"internalType":"uint256"},{"name":"winner","type":"uint8","indexed":false,"internalType":"enum Enums.Winner"},{"name":"clientAmount","type":"uint256","indexed":false,"internalType":"uint256"},{"name":"contractorAmount","type":"uint256","indexed":false,"internalType":"uint256"}],"anonymous":false},{"type":"event","name":"MaxMilestonesSet","inputs":[{"name":"maxMilestones","type":"uint256","indexed":false,"internalType":"uint256"}],"anonymous":false},{"type":"event","name":"Refilled","inputs":[{"name":"sender","type":"address","indexed":true,"internalType":"address"},{"name":"contractId","type":"uint256","indexed":true,"internalType":"uint256"},{"name":"milestoneId","type":"uint256","indexed":true,"internalType":"uint256"},{"name":"amountAdditional","type":"uint256","indexed":false,"internalType":"uint256"}],"anonymous":false},{"type":"event","name":"RegistryUpdated","inputs":[{"name":"registry","type":"address","indexed":false,"internalType":"address"}],"anonymous":false},{"type":"event","name":"ReturnApproved","inputs":[{"name":"approver","type":"address","indexed":true,"internalType":"address"},{"name":"contractId","type":"uint256","indexed":true,"internalType":"uint256"},{"name":"milestoneId","type":"uint256","indexed":true,"internalType":"uint256"}],"anonymous":false},{"type":"event","name":"ReturnCanceled","inputs":[{"name":"sender","type":"address","indexed":true,"internalType":"address"},{"name":"contractId","type":"uint256","indexed":true,"internalType":"uint256"},{"name":"milestoneId","type":"uint256","indexed":true,"internalType":"uint256"}],"anonymous":false},{"type":"event","name":"ReturnRequested","inputs":[{"name":"sender","type":"address","indexed":true,"internalType":"address"},{"name":"contractId","type":"uint256","indexed":true,"internalType":"uint256"},{"name":"milestoneId","type":"uint256","indexed":true,"internalType":"uint256"}],"anonymous":false},{"type":"event","name":"Submitted","inputs":[{"name":"sender","type":"address","indexed":true,"internalType":"address"},{"name":"milestoneId","type":"uint256","indexed":true,"internalType":"uint256"},{"name":"contractId","type":"uint256","indexed":true,"internalType":"uint256"}],"anonymous":false},{"type":"event","name":"Withdrawn","inputs":[{"name":"withdrawer","type":"address","indexed":true,"internalType":"address"},{"name":"contractId","type":"uint256","indexed":true,"internalType":"uint256"},{"name":"milestoneId","type":"uint256","indexed":true,"internalType":"uint256"},{"name":"amount","type":"uint256","indexed":false,"internalType":"uint256"},{"name":"feeAmount","type":"uint256","indexed":false,"internalType":"uint256"}],"anonymous":false},{"type":"error","name":"Escrow__AlreadyInitialized","inputs":[]},{"type":"error","name":"Escrow__BlacklistedAccount","inputs":[]},{"type":"error","name":"Escrow__ContractorMismatch","inputs":[]},{"type":"error","name":"Escrow__CreateDisputeNotAllowed","inputs":[]},{"type":"error","name":"Escrow__DisputeNotActiveForThisDeposit","inputs":[]},{"type":"error","name":"Escrow__FeeTooHigh","inputs":[]},{"type":"error","name":"Escrow__InvalidAmount","inputs":[]},{"type":"error","name":"Escrow__InvalidContractId","inputs":[]},{"type":"error","name":"Escrow__InvalidContractorDataHash","inputs":[]},{"type":"error","name":"Escrow__InvalidFeeConfig","inputs":[]},{"type":"error","name":"Escrow__InvalidMilestoneId","inputs":[]},{"type":"error","name":"Escrow__InvalidMilestoneLimit","inputs":[]},{"type":"error","name":"Escrow__InvalidRange","inputs":[]},{"type":"error","name":"Escrow__InvalidStatusForApprove","inputs":[]},{"type":"error","name":"Escrow__InvalidStatusForSubmit","inputs":[]},{"type":"error","name":"Escrow__InvalidStatusProvided","inputs":[]},{"type":"error","name":"Escrow__InvalidStatusToClaim","inputs":[]},{"type":"error","name":"Escrow__InvalidStatusToWithdraw","inputs":[]},{"type":"error","name":"Escrow__InvalidWinnerSpecified","inputs":[]},{"type":"error","name":"Escrow__NoDepositsProvided","inputs":[]},{"type":"error","name":"Escrow__NoFundsAvailableForWithdraw","inputs":[]},{"type":"error","name":"Escrow__NoReturnRequested","inputs":[]},{"type":"error","name":"Escrow__NotApproved","inputs":[]},{"type":"error","name":"Escrow__NotEnoughDeposit","inputs":[]},{"type":"error","name":"Escrow__NotSetFeeManager","inputs":[]},{"type":"error","name":"Escrow__NotSupportedPaymentToken","inputs":[]},{"type":"error","name":"Escrow__OutOfRange","inputs":[]},{"type":"error","name":"Escrow__ResolutionExceedsDepositedAmount","inputs":[]},{"type":"error","name":"Escrow__ReturnNotAllowed","inputs":[]},{"type":"error","name":"Escrow__TooManyMilestones","inputs":[]},{"type":"error","name":"Escrow__UnauthorizedAccount","inputs":[{"name":"account","type":"address","internalType":"address"}]},{"type":"error","name":"Escrow__UnauthorizedReceiver","inputs":[]},{"type":"error","name":"Escrow__UnauthorizedToApproveDispute","inputs":[]},{"type":"error","name":"Escrow__UnauthorizedToApproveReturn","inputs":[]},{"type":"error","name":"Escrow__ZeroAddressProvided","inputs":[]},{"type":"error","name":"Escrow__ZeroDepositAmount","inputs":[]}],"bytecode":{"object":"0x6080604052348015600e575f80fd5b5061562f8061001c5f395ff3fe608060405234801561000f575f80fd5b50600436106101cd575f3560e01c80638c62e59411610102578063c2010e50116100a0578063cce3de811161006f578063cce3de81146104eb578063e7dc828814610507578063e92b0e8414610523578063f26999cd14610559576101cd565b8063c2010e5014610467578063c349026314610497578063cb89c8cb146104b3578063cc6509fe146104cf576101cd565b8063a210b6a4116100dc578063a210b6a4146103f5578063a60429c914610413578063acd471c41461042f578063c0c53b8b1461044b576101cd565b80638c62e5941461039f57806399c4b24c146103bb5780639db29d8c146103d9576101cd565b80634b39c1dd1161016f5780635d556739116101495780635d5567391461031757806376e8892e146103495780637b103999146103655780637df8ff5f14610383576101cd565b80634b39c1dd146102c15780634c3cd4df146102dd57806357cfaf1a146102f9576101cd565b80631a5da6c8116101ab5780631a5da6c81461023d5780633b432870146102595780633d20c71e14610275578063441a3e70146102a5576101cd565b8063109e94cf146101d1578063158ef93e146101ef5780631626ba7e1461020d575b5f80fd5b6101d9610575565b6040516101e69190614772565b60405180910390f35b6101f761059a565b60405161020491906147a5565b60405180910390f35b6102276004803603810190610222919061485a565b6105ac565b60405161023491906148f1565b60405180910390f35b61025760048036038101906102529190614934565b6105de565b005b610273600480360381019061026e91906149b5565b610795565b005b61028f600480360381019061028a9190614a05565b610a31565b60405161029c9190614a71565b60405180910390f35b6102bf60048036038101906102ba9190614a8a565b610a46565b005b6102db60048036038101906102d69190614ac8565b610f8b565b005b6102f760048036038101906102f29190614b48565b6110e9565b005b61030161181b565b60405161030e9190614bc8565b60405180910390f35b610331600480360381019061032c9190614a8a565b611821565b60405161034093929190614c54565b60405180910390f35b610363600480360381019061035e9190614a8a565b61187d565b005b61036d611aee565b60405161037a9190614ce4565b60405180910390f35b61039d60048036038101906103989190614d20565b611b13565b005b6103b960048036038101906103b49190614934565b611ee9565b005b6103c36120c2565b6040516103d09190614bc8565b60405180910390f35b6103f360048036038101906103ee9190614d97565b6120cb565b005b6103fd61237d565b60405161040a9190614e07565b60405180910390f35b61042d60048036038101906104289190614e20565b6123a0565b005b61044960048036038101906104449190614d97565b612721565b005b61046560048036038101906104609190614e84565b612c3f565b005b610481600480360381019061047c9190614ac8565b612e3d565b60405161048e9190614bc8565b60405180910390f35b6104b160048036038101906104ac9190614a8a565b612e5a565b005b6104cd60048036038101906104c89190614ed4565b613357565b005b6104e960048036038101906104e49190614a8a565b6135a4565b005b61050560048036038101906105009190614934565b6137f2565b005b610521600480360381019061051c9190614f24565b613a12565b005b61053d60048036038101906105389190614a8a565b613cf5565b6040516105509796959493929190615034565b60405180910390f35b610573600480360381019061056e9190614a8a565b613d85565b005b60025f9054906101000a900473ffffffffffffffffffffffffffffffffffffffff1681565b60055f9054906101000a900460ff1681565b5f6105b8848484613fc3565b156105cc57631626ba7e60e01b90506105d7565b63ffffffff60e01b90505b9392505050565b5f8054906101000a900473ffffffffffffffffffffffffffffffffffffffff1673ffffffffffffffffffffffffffffffffffffffff166324d7806c336040518263ffffffff1660e01b81526004016106369190614772565b602060405180830381865afa158015610651573d5f803e3d5ffd5b505050506040513d601f19601f8201168201806040525081019061067591906150cb565b6106b657336040517f65823a200000000000000000000000000000000000000000000000000000000081526004016106ad9190614772565b60405180910390fd5b5f73ffffffffffffffffffffffffffffffffffffffff168173ffffffffffffffffffffffffffffffffffffffff160361071b576040517fdc676cab00000000000000000000000000000000000000000000000000000000815260040160405180910390fd5b8060015f6101000a81548173ffffffffffffffffffffffffffffffffffffffff021916908373ffffffffffffffffffffffffffffffffffffffff1602179055507fd6ceddf6d2a22f21c7c81675c518004eff43bc5c8a6fc32a0b748e69d58671cd8160405161078a9190614772565b60405180910390a150565b60025f9054906101000a900473ffffffffffffffffffffffffffffffffffffffff1673ffffffffffffffffffffffffffffffffffffffff163373ffffffffffffffffffffffffffffffffffffffff161461082657336040517f65823a2000000000000000000000000000000000000000000000000000000000815260040161081d9190614772565b60405180910390fd5b5f60065f8581526020019081526020015f20838154811061084a576108496150f6565b5b905f5260205f20906006020190506005600981111561086c5761086b614be1565b5b8160050160019054906101000a900460ff1660098111156108905761088f614be1565b5b146108c7576040517fe828419600000000000000000000000000000000000000000000000000000000815260040160405180910390fd5b600160098111156108db576108da614be1565b5b8260098111156108ee576108ed614be1565b5b1415801561092157506002600981111561090b5761090a614be1565b5b82600981111561091e5761091d614be1565b5b14155b801561095257506003600981111561093c5761093b614be1565b5b82600981111561094f5761094e614be1565b5b14155b801561098357506004600981111561096d5761096c614be1565b5b8260098111156109805761097f614be1565b5b14155b156109ba576040517f65aed4e800000000000000000000000000000000000000000000000000000000815260040160405180910390fd5b818160050160016101000a81548160ff021916908360098111156109e1576109e0614be1565b5b021790555082843373ffffffffffffffffffffffffffffffffffffffff167ff8107440ebd6f25e195f50eaf960df171f3a39574b0df7903972f467c65da11060405160405180910390a450505050565b5f610a3d84848461408e565b90509392505050565b60025f9054906101000a900473ffffffffffffffffffffffffffffffffffffffff1673ffffffffffffffffffffffffffffffffffffffff163373ffffffffffffffffffffffffffffffffffffffff1614610ad757336040517f65823a20000000000000000000000000000000000000000000000000000000008152600401610ace9190614772565b60405180910390fd5b60015f9054906101000a900473ffffffffffffffffffffffffffffffffffffffff1673ffffffffffffffffffffffffffffffffffffffff1663f9f92be4336040518263ffffffff1660e01b8152600401610b319190614772565b602060405180830381865afa158015610b4c573d5f803e3d5ffd5b505050506040513d601f19601f82011682018060405250810190610b7091906150cb565b15610ba7576040517fe2eb7ad400000000000000000000000000000000000000000000000000000000815260040160405180910390fd5b5f60065f8481526020019081526020015f208281548110610bcb57610bca6150f6565b5b905f5260205f209060060201905060086009811115610bed57610bec614be1565b5b8160050160019054906101000a900460ff166009811115610c1157610c10614be1565b5b14158015610c55575060076009811115610c2e57610c2d614be1565b5b8160050160019054906101000a900460ff166009811115610c5257610c51614be1565b5b14155b15610c8c576040517fea9b41cf00000000000000000000000000000000000000000000000000000000815260040160405180910390fd5b5f816003015403610cc9576040517f91533c4900000000000000000000000000000000000000000000000000000000815260040160405180910390fd5b5f610cea84338460030154856005015f9054906101000a900460ff166140c3565b9150505f60075f8681526020019081526020015f205f8581526020019081526020015f2090505f60086009811115610d2557610d24614be1565b5b8460050160019054906101000a900460ff166009811115610d4957610d48614be1565b5b03610d7957610d6e86338660010154876005015f9054906101000a900460ff166140c3565b905080915050610e49565b60076009811115610d8d57610d8c614be1565b5b8460050160019054906101000a900460ff166009811115610db157610db0614be1565b5b148015610df15750600380811115610dcc57610dcb614be1565b5b826002015f9054906101000a900460ff166003811115610def57610dee614be1565b5b145b15610e2157610e1686338460010154876005015f9054906101000a900460ff166140c3565b905080915050610e48565b610e4186338660010154876005015f9054906101000a900460ff166140c3565b9050809150505b5b5f838211610e57575f610e64565b8382610e639190615150565b5b90508460030154856001015f828254610e7d9190615150565b925050819055505f848660030154610e959190615183565b90505f8660030181905550610ecd845f015f9054906101000a900473ffffffffffffffffffffffffffffffffffffffff163383614251565b5f821115610f0257610f01845f015f9054906101000a900473ffffffffffffffffffffffffffffffffffffffff1683614292565b5b60098660050160016101000a81548160ff02191690836009811115610f2a57610f29614be1565b5b021790555086883373ffffffffffffffffffffffffffffffffffffffff167f94ffd6b85c71b847775c89ef6496b93cee961bdc6ff827fd117f174f06f745ae8486604051610f799291906151b6565b60405180910390a45050505050505050565b5f8054906101000a900473ffffffffffffffffffffffffffffffffffffffff1673ffffffffffffffffffffffffffffffffffffffff166324d7806c336040518263ffffffff1660e01b8152600401610fe39190614772565b602060405180830381865afa158015610ffe573d5f803e3d5ffd5b505050506040513d601f19601f8201168201806040525081019061102291906150cb565b61106357336040517f65823a2000000000000000000000000000000000000000000000000000000000815260040161105a9190614772565b60405180910390fd5b5f8114806110715750601481115b156110a8576040517fe647ec4600000000000000000000000000000000000000000000000000000000815260040160405180910390fd5b806004819055507f4477e50aedd6cf63672421ed94c0da4893749e66903ce6ab7d521963904e1997816040516110de9190614bc8565b60405180910390a150565b60025f9054906101000a900473ffffffffffffffffffffffffffffffffffffffff1673ffffffffffffffffffffffffffffffffffffffff163373ffffffffffffffffffffffffffffffffffffffff161461117a57336040517f65823a200000000000000000000000000000000000000000000000000000000081526004016111719190614772565b60405180910390fd5b60015f9054906101000a900473ffffffffffffffffffffffffffffffffffffffff1673ffffffffffffffffffffffffffffffffffffffff1663f9f92be4336040518263ffffffff1660e01b81526004016111d49190614772565b602060405180830381865afa1580156111ef573d5f803e3d5ffd5b505050506040513d601f19601f8201168201806040525081019061121391906150cb565b1561124a576040517fe2eb7ad400000000000000000000000000000000000000000000000000000000815260040160405180910390fd5b60015f9054906101000a900473ffffffffffffffffffffffffffffffffffffffff1673ffffffffffffffffffffffffffffffffffffffff1663c3b88b42846040518263ffffffff1660e01b81526004016112a49190614772565b602060405180830381865afa1580156112bf573d5f803e3d5ffd5b505050506040513d601f19601f820116820180604052508101906112e391906150cb565b611319576040517f800a391c00000000000000000000000000000000000000000000000000000000815260040160405180910390fd5b5f8282905003611355576040517f4efcdfad00000000000000000000000000000000000000000000000000000000815260040160405180910390fd5b600454828290501115611394576040517f3408d1d000000000000000000000000000000000000000000000000000000000815260040160405180910390fd5b5f8085146113a257846113b7565b60035f81546113b0906151dd565b9190508190555b90505f851180156113e857505f60065f8781526020019081526020015f20805490501480156113e7575060035485115b5b1561141f576040517f2e78804a00000000000000000000000000000000000000000000000000000000815260040160405180910390fd5b5f808484905090505f5b818110156114f8575f868683818110611445576114446150f6565b5b905060e002016020013503611486576040517f3b68c52900000000000000000000000000000000000000000000000000000000815260040160405180910390fd5b5f6114d9853389898681811061149f5761149e6150f6565b5b905060e00201602001358a8a878181106114bc576114bb6150f6565b5b905060e0020160a00160208101906114d49190615247565b6140c3565b50905080846114e89190615183565b9350818060010192505050611429565b5061150586333085614398565b5f60065f8581526020019081526020015f208054905090505f5b82811015611810573687878381811061153b5761153a6150f6565b5b905060e00201905060065f8781526020019081526020015f206040518060e00160405280835f0160208101906115719190614934565b73ffffffffffffffffffffffffffffffffffffffff168152602001836020013581526020015f81526020015f8152602001836080013581526020018360a00160208101906115bf9190615247565b60048111156115d1576115d0614be1565b5b8152602001600160098111156115ea576115e9614be1565b5b815250908060018154018082558091505060019003905f5260205f2090600602015f909190919091505f820151815f015f6101000a81548173ffffffffffffffffffffffffffffffffffffffff021916908373ffffffffffffffffffffffffffffffffffffffff1602179055506020820151816001015560408201518160020155606082015181600301556080820151816004015560a0820151816005015f6101000a81548160ff021916908360048111156116a9576116a8614be1565b5b021790555060c08201518160050160016101000a81548160ff021916908360098111156116d9576116d8614be1565b5b021790555050505f60075f8881526020019081526020015f205f8581526020019081526020015f20905089815f015f6101000a81548173ffffffffffffffffffffffffffffffffffffffff021916908373ffffffffffffffffffffffffffffffffffffffff160217905550816020013581600101819055505f816002015f6101000a81548160ff0219169083600381111561177757611776614be1565b5b0217905550815f01602081019061178e9190614934565b73ffffffffffffffffffffffffffffffffffffffff16873373ffffffffffffffffffffffffffffffffffffffff167f0dc7374ab4e9eabe7858f135d2bbdad836f3c57f486170ee19796c78313c75be8786602001356040516117f19291906151b6565b60405180910390a482806001019350508380600101945050505061151f565b505050505050505050565b60045481565b6007602052815f5260405f20602052805f5260405f205f9150915050805f015f9054906101000a900473ffffffffffffffffffffffffffffffffffffffff1690806001015490806002015f9054906101000a900460ff16905083565b60025f9054906101000a900473ffffffffffffffffffffffffffffffffffffffff1673ffffffffffffffffffffffffffffffffffffffff163373ffffffffffffffffffffffffffffffffffffffff161461190e57336040517f65823a200000000000000000000000000000000000000000000000000000000081526004016119059190614772565b60405180910390fd5b5f60065f8481526020019081526020015f208281548110611932576119316150f6565b5b905f5260205f20906006020190506001600981111561195457611953614be1565b5b8160050160019054906101000a900460ff16600981111561197857611977614be1565b5b141580156119bc57506002600981111561199557611994614be1565b5b8160050160019054906101000a900460ff1660098111156119b9576119b8614be1565b5b14155b80156119fe5750600360098111156119d7576119d6614be1565b5b8160050160019054906101000a900460ff1660098111156119fb576119fa614be1565b5b14155b8015611a40575060046009811115611a1957611a18614be1565b5b8160050160019054906101000a900460ff166009811115611a3d57611a3c614be1565b5b14155b15611a77576040517f2d5adc4200000000000000000000000000000000000000000000000000000000815260040160405180910390fd5b60058160050160016101000a81548160ff02191690836009811115611a9f57611a9e614be1565b5b021790555081833373ffffffffffffffffffffffffffffffffffffffff167fae39b6d301ef48f6a241afac7fd7d0388ab7dc0f80206fa6805d76829a04cb0a60405160405180910390a4505050565b60015f9054906101000a900473ffffffffffffffffffffffffffffffffffffffff1681565b5f8054906101000a900473ffffffffffffffffffffffffffffffffffffffff1673ffffffffffffffffffffffffffffffffffffffff166324d7806c336040518263ffffffff1660e01b8152600401611b6b9190614772565b602060405180830381865afa158015611b86573d5f803e3d5ffd5b505050506040513d601f19601f82011682018060405250810190611baa91906150cb565b611beb57336040517f65823a20000000000000000000000000000000000000000000000000000000008152600401611be29190614772565b60405180910390fd5b5f60065f8781526020019081526020015f208581548110611c0f57611c0e6150f6565b5b905f5260205f209060060201905060066009811115611c3157611c30614be1565b5b8160050160019054906101000a900460ff166009811115611c5557611c54614be1565b5b14611c8c576040517fa98ca33000000000000000000000000000000000000000000000000000000000815260040160405180910390fd5b5f8284611c999190615183565b90508160010154811115611cd9576040517f774c2f4f00000000000000000000000000000000000000000000000000000000815260040160405180910390fd5b60026003811115611ced57611cec614be1565b5b856003811115611d0057611cff614be1565b5b1480611d2f5750600380811115611d1a57611d19614be1565b5b856003811115611d2d57611d2c614be1565b5b145b611d39575f611d3b565b825b826002018190555060026003811115611d5757611d56614be1565b5b856003811115611d6a57611d69614be1565b5b03611daa5760038260050160016101000a81548160ff02191690836009811115611d9757611d96614be1565b5b02179055505f8260030181905550611e42565b60078260050160016101000a81548160ff02191690836009811115611dd257611dd1614be1565b5b021790555060016003811115611deb57611dea614be1565b5b856003811115611dfe57611dfd614be1565b5b1480611e2d5750600380811115611e1857611e17614be1565b5b856003811115611e2b57611e2a614be1565b5b145b611e37575f611e39565b835b82600301819055505b8460075f8981526020019081526020015f205f8881526020019081526020015f206002015f6101000a81548160ff02191690836003811115611e8757611e86614be1565b5b021790555085873373ffffffffffffffffffffffffffffffffffffffff167f5e763585c765fbc61b32f0a758a69702b20f8a3affdea69544443e71bcc9c9d5888888604051611ed893929190615272565b60405180910390a450505050505050565b5f8054906101000a900473ffffffffffffffffffffffffffffffffffffffff1673ffffffffffffffffffffffffffffffffffffffff16638da5cb5b6040518163ffffffff1660e01b8152600401602060405180830381865afa158015611f51573d5f803e3d5ffd5b505050506040513d601f19601f82011682018060405250810190611f7591906152bb565b73ffffffffffffffffffffffffffffffffffffffff163373ffffffffffffffffffffffffffffffffffffffff1614611fe457336040517f65823a20000000000000000000000000000000000000000000000000000000008152600401611fdb9190614772565b60405180910390fd5b5f73ffffffffffffffffffffffffffffffffffffffff168173ffffffffffffffffffffffffffffffffffffffff1603612049576040517fdc676cab00000000000000000000000000000000000000000000000000000000815260040160405180910390fd5b805f806101000a81548173ffffffffffffffffffffffffffffffffffffffff021916908373ffffffffffffffffffffffffffffffffffffffff1602179055507fae0b51d5743004c7c8d5baf4068214f299f2b88b9fc91758454d5ac7d69c9491816040516120b79190614772565b60405180910390a150565b5f600354905090565b60025f9054906101000a900473ffffffffffffffffffffffffffffffffffffffff1673ffffffffffffffffffffffffffffffffffffffff163373ffffffffffffffffffffffffffffffffffffffff161461215c57336040517f65823a200000000000000000000000000000000000000000000000000000000081526004016121539190614772565b60405180910390fd5b60015f9054906101000a900473ffffffffffffffffffffffffffffffffffffffff1673ffffffffffffffffffffffffffffffffffffffff1663f9f92be4336040518263ffffffff1660e01b81526004016121b69190614772565b602060405180830381865afa1580156121d1573d5f803e3d5ffd5b505050506040513d601f19601f820116820180604052508101906121f591906150cb565b1561222c576040517fe2eb7ad400000000000000000000000000000000000000000000000000000000815260040160405180910390fd5b5f8103612265576040517fad22439800000000000000000000000000000000000000000000000000000000815260040160405180910390fd5b5f60065f8581526020019081526020015f208381548110612289576122886150f6565b5b905f5260205f20906006020190505f806122b5863386866005015f9054906101000a900460ff166140c3565b915091505f60075f8881526020019081526020015f205f8781526020019081526020015f20905061230a815f015f9054906101000a900473ffffffffffffffffffffffffffffffffffffffff16333086614398565b84846001015f82825461231d9190615183565b9250508190555085873373ffffffffffffffffffffffffffffffffffffffff167f3a9200c281e44048d26af6f12a6d337ba38380056694393bb8e508f6b4d6eb8d8860405161236c9190614bc8565b60405180910390a450505050505050565b5f8054906101000a900473ffffffffffffffffffffffffffffffffffffffff1681565b60025f9054906101000a900473ffffffffffffffffffffffffffffffffffffffff1673ffffffffffffffffffffffffffffffffffffffff163373ffffffffffffffffffffffffffffffffffffffff161415801561249157505f8054906101000a900473ffffffffffffffffffffffffffffffffffffffff1673ffffffffffffffffffffffffffffffffffffffff166324d7806c336040518263ffffffff1660e01b81526004016124509190614772565b602060405180830381865afa15801561246b573d5f803e3d5ffd5b505050506040513d601f19601f8201168201806040525081019061248f91906150cb565b155b156124d357336040517f65823a200000000000000000000000000000000000000000000000000000000081526004016124ca9190614772565b60405180910390fd5b5f820361250c576040517fad22439800000000000000000000000000000000000000000000000000000000815260040160405180910390fd5b5f60065f8681526020019081526020015f2084815481106125305761252f6150f6565b5b905f5260205f20906006020190506002600981111561255257612551614be1565b5b8160050160019054906101000a900460ff16600981111561257657612575614be1565b5b146125ad576040517f4e19ad4700000000000000000000000000000000000000000000000000000000815260040160405180910390fd5b8173ffffffffffffffffffffffffffffffffffffffff16815f015f9054906101000a900473ffffffffffffffffffffffffffffffffffffffff1673ffffffffffffffffffffffffffffffffffffffff1614612634576040517f5ea782de00000000000000000000000000000000000000000000000000000000815260040160405180910390fd5b80600101548382600201546126499190615183565b1115612681576040517ff3e6775700000000000000000000000000000000000000000000000000000000815260040160405180910390fd5b82816002015f8282546126949190615183565b9250508190555060038160050160016101000a81548160ff021916908360098111156126c3576126c2614be1565b5b021790555083853373ffffffffffffffffffffffffffffffffffffffff167f241588f2f4ebae3791a97d90908f6d8d3087dca163700d057ce90a70070b26c086866040516127129291906152e6565b60405180910390a45050505050565b60015f9054906101000a900473ffffffffffffffffffffffffffffffffffffffff1673ffffffffffffffffffffffffffffffffffffffff1663f9f92be4336040518263ffffffff1660e01b815260040161277b9190614772565b602060405180830381865afa158015612796573d5f803e3d5ffd5b505050506040513d601f19601f820116820180604052508101906127ba91906150cb565b156127f1576040517fe2eb7ad400000000000000000000000000000000000000000000000000000000815260040160405180910390fd5b8082111561282b576040517f4cb4bdb600000000000000000000000000000000000000000000000000000000815260040160405180910390fd5b60065f8481526020019081526020015f20805490508110612878576040517f40d8540800000000000000000000000000000000000000000000000000000000815260040160405180910390fd5b5f805f8060065f8881526020019081526020015f2090505f60075f8981526020019081526020015f205f8081526020019081526020015f2090505f8790505b868111612b5d575f8382815481106128d2576128d16150f6565b5b905f5260205f20906006020190503373ffffffffffffffffffffffffffffffffffffffff16815f015f9054906101000a900473ffffffffffffffffffffffffffffffffffffffff1673ffffffffffffffffffffffffffffffffffffffff161461293b5750612b4a565b5f81600201541480612a0657506003600981111561295c5761295b614be1565b5b8160050160019054906101000a900460ff1660098111156129805761297f614be1565b5b141580156129c457506007600981111561299d5761299c614be1565b5b8160050160019054906101000a900460ff1660098111156129c1576129c0614be1565b5b14155b8015612a0557506009808111156129de576129dd614be1565b5b8160050160019054906101000a900460ff166009811115612a0257612a01614be1565b5b14155b5b15612a115750612b4a565b5f805f612a348d338660020154876005015f9054906101000a900460ff166143e2565b9250925092508360020154846001015f828254612a519190615150565b92505081905550828a612a649190615183565b99508189612a729190615183565b985060076009811115612a8857612a87614be1565b5b8460050160019054906101000a900460ff166009811115612aac57612aab614be1565b5b14158015612aef5750600980811115612ac857612ac7614be1565b5b8460050160019054906101000a900460ff166009811115612aec57612aeb614be1565b5b14155b15612b03578088612b009190615183565b97505b5f84600201819055505f846001015403612b455760048460050160016101000a81548160ff02191690836009811115612b3f57612b3e614be1565b5b02179055505b505050505b8080612b55906151dd565b9150506128b7565b505f851115612b9457612b93815f015f9054906101000a900473ffffffffffffffffffffffffffffffffffffffff163387614251565b5b5f841180612ba157505f83115b15612bde57612bdd815f015f9054906101000a900473ffffffffffffffffffffffffffffffffffffffff168486612bd89190615183565b614292565b5b873373ffffffffffffffffffffffffffffffffffffffff167fa992668b5ec21a8c71122720bcb9ead116dce9311db649b5a0917e8a5df9e10b8989898989604051612c2d95949392919061530d565b60405180910390a35050505050505050565b60055f9054906101000a900460ff1615612c85576040517f29d27b3800000000000000000000000000000000000000000000000000000000815260040160405180910390fd5b5f73ffffffffffffffffffffffffffffffffffffffff168373ffffffffffffffffffffffffffffffffffffffff161480612cea57505f73ffffffffffffffffffffffffffffffffffffffff168273ffffffffffffffffffffffffffffffffffffffff16145b80612d2057505f73ffffffffffffffffffffffffffffffffffffffff168173ffffffffffffffffffffffffffffffffffffffff16145b15612d57576040517fdc676cab00000000000000000000000000000000000000000000000000000000815260040160405180910390fd5b8260025f6101000a81548173ffffffffffffffffffffffffffffffffffffffff021916908373ffffffffffffffffffffffffffffffffffffffff160217905550815f806101000a81548173ffffffffffffffffffffffffffffffffffffffff021916908373ffffffffffffffffffffffffffffffffffffffff1602179055508060015f6101000a81548173ffffffffffffffffffffffffffffffffffffffff021916908373ffffffffffffffffffffffffffffffffffffffff160217905550600a600481905550600160055f6101000a81548160ff021916908315150217905550505050565b5f60065f8381526020019081526020015f20805490509050919050565b60015f9054906101000a900473ffffffffffffffffffffffffffffffffffffffff1673ffffffffffffffffffffffffffffffffffffffff1663f9f92be4336040518263ffffffff1660e01b8152600401612eb49190614772565b602060405180830381865afa158015612ecf573d5f803e3d5ffd5b505050506040513d601f19601f82011682018060405250810190612ef391906150cb565b15612f2a576040517fe2eb7ad400000000000000000000000000000000000000000000000000000000815260040160405180910390fd5b5f60065f8481526020019081526020015f208281548110612f4e57612f4d6150f6565b5b905f5260205f2090600602019050805f015f9054906101000a900473ffffffffffffffffffffffffffffffffffffffff1673ffffffffffffffffffffffffffffffffffffffff163373ffffffffffffffffffffffffffffffffffffffff1614612fee57336040517f65823a20000000000000000000000000000000000000000000000000000000008152600401612fe59190614772565b60405180910390fd5b6003600981111561300257613001614be1565b5b8160050160019054906101000a900460ff16600981111561302657613025614be1565b5b1415801561306a57506007600981111561304357613042614be1565b5b8160050160019054906101000a900460ff16600981111561306757613066614be1565b5b14155b80156130ab575060098081111561308457613083614be1565b5b8160050160019054906101000a900460ff1660098111156130a8576130a7614be1565b5b14155b156130e2576040517fc57c4a9a00000000000000000000000000000000000000000000000000000000815260040160405180910390fd5b5f81600201540361311f576040517f6b02ce8f00000000000000000000000000000000000000000000000000000000815260040160405180910390fd5b5f805f61314286338660020154876005015f9054906101000a900460ff166143e2565b9250925092508360020154846001015f82825461315f9190615150565b925050819055505f84600201819055505f60075f8881526020019081526020015f205f8781526020019081526020015f2090506131bf815f015f9054906101000a900473ffffffffffffffffffffffffffffffffffffffff163386614251565b600760098111156131d3576131d2614be1565b5b8560050160019054906101000a900460ff1660098111156131f7576131f6614be1565b5b1480613237575060098081111561321157613210614be1565b5b8560050160019054906101000a900460ff16600981111561323557613234614be1565b5b145b801561324257505f83115b1561327857613273815f015f9054906101000a900473ffffffffffffffffffffffffffffffffffffffff1684614292565b6132c3565b5f83118061328557505f82115b156132c2576132c1815f015f9054906101000a900473ffffffffffffffffffffffffffffffffffffffff1683856132bc9190615183565b614292565b5b5b5f8560010154036132fc5760048560050160016101000a81548160ff021916908360098111156132f6576132f5614be1565b5b02179055505b85873373ffffffffffffffffffffffffffffffffffffffff167f7708755c9b641bf197be5047b04002d2e88fa658c173a351067747eb5dfc568a87876040516133469291906151b6565b60405180910390a450505050505050565b60015f9054906101000a900473ffffffffffffffffffffffffffffffffffffffff1673ffffffffffffffffffffffffffffffffffffffff1663f58df7526040518163ffffffff1660e01b8152600401602060405180830381865afa1580156133c1573d5f803e3d5ffd5b505050506040513d601f19601f820116820180604052508101906133e591906152bb565b73ffffffffffffffffffffffffffffffffffffffff163373ffffffffffffffffffffffffffffffffffffffff161461345457336040517f65823a2000000000000000000000000000000000000000000000000000000000815260040161344b9190614772565b60405180910390fd5b5f73ffffffffffffffffffffffffffffffffffffffff168173ffffffffffffffffffffffffffffffffffffffff16036134b9576040517fdc676cab00000000000000000000000000000000000000000000000000000000815260040160405180910390fd5b5f60065f8581526020019081526020015f2083815481106134dd576134dc6150f6565b5b905f5260205f20906006020190508173ffffffffffffffffffffffffffffffffffffffff1683857f5c9b71414213803cad80d6a3c02a19ba0fcea9ce6716095b015d373e73419894845f015f9054906101000a900473ffffffffffffffffffffffffffffffffffffffff166040516135559190614772565b60405180910390a481815f015f6101000a81548173ffffffffffffffffffffffffffffffffffffffff021916908373ffffffffffffffffffffffffffffffffffffffff16021790555050505050565b5f60065f8481526020019081526020015f2082815481106135c8576135c76150f6565b5b905f5260205f2090600602019050600560098111156135ea576135e9614be1565b5b8160050160019054906101000a900460ff16600981111561360e5761360d614be1565b5b14613645576040517fe828419600000000000000000000000000000000000000000000000000000000815260040160405180910390fd5b805f015f9054906101000a900473ffffffffffffffffffffffffffffffffffffffff1673ffffffffffffffffffffffffffffffffffffffff163373ffffffffffffffffffffffffffffffffffffffff161415801561373757505f8054906101000a900473ffffffffffffffffffffffffffffffffffffffff1673ffffffffffffffffffffffffffffffffffffffff166324d7806c336040518263ffffffff1660e01b81526004016136f69190614772565b602060405180830381865afa158015613711573d5f803e3d5ffd5b505050506040513d601f19601f8201168201806040525081019061373591906150cb565b155b1561376e576040517f9878552e00000000000000000000000000000000000000000000000000000000815260040160405180910390fd5b8060010154816003018190555060088160050160016101000a81548160ff021916908360098111156137a3576137a2614be1565b5b021790555081833373ffffffffffffffffffffffffffffffffffffffff167f83a1dd8d18c4d46646c8a9a4edb5ae1b9bf9d6eb48f10ab31c48fc73a6bce81960405160405180910390a4505050565b60015f9054906101000a900473ffffffffffffffffffffffffffffffffffffffff1673ffffffffffffffffffffffffffffffffffffffff1663f58df7526040518163ffffffff1660e01b8152600401602060405180830381865afa15801561385c573d5f803e3d5ffd5b505050506040513d601f19601f8201168201806040525081019061388091906152bb565b73ffffffffffffffffffffffffffffffffffffffff163373ffffffffffffffffffffffffffffffffffffffff16146138ef57336040517f65823a200000000000000000000000000000000000000000000000000000000081526004016138e69190614772565b60405180910390fd5b5f73ffffffffffffffffffffffffffffffffffffffff168173ffffffffffffffffffffffffffffffffffffffff1603613954576040517fdc676cab00000000000000000000000000000000000000000000000000000000815260040160405180910390fd5b8073ffffffffffffffffffffffffffffffffffffffff1660025f9054906101000a900473ffffffffffffffffffffffffffffffffffffffff1673ffffffffffffffffffffffffffffffffffffffff167f98b29eb9b91620effb197cb3c80c0ecb52300a1c251acaf3361577cf362aafcd60405160405180910390a38060025f6101000a81548173ffffffffffffffffffffffffffffffffffffffff021916908373ffffffffffffffffffffffffffffffffffffffff16021790555050565b60065f8681526020019081526020015f20805490508410613a5f576040517f0e27bc0800000000000000000000000000000000000000000000000000000000815260040160405180910390fd5b5f60065f8781526020019081526020015f208581548110613a8357613a826150f6565b5b905f5260205f20906006020190505f73ffffffffffffffffffffffffffffffffffffffff16815f015f9054906101000a900473ffffffffffffffffffffffffffffffffffffffff1673ffffffffffffffffffffffffffffffffffffffff1614158015613b3d5750805f015f9054906101000a900473ffffffffffffffffffffffffffffffffffffffff1673ffffffffffffffffffffffffffffffffffffffff163373ffffffffffffffffffffffffffffffffffffffff1614155b15613b7f57336040517f65823a20000000000000000000000000000000000000000000000000000000008152600401613b769190614772565b60405180910390fd5b60016009811115613b9357613b92614be1565b5b8160050160019054906101000a900460ff166009811115613bb757613bb6614be1565b5b14613bee576040517f3eeb1fd400000000000000000000000000000000000000000000000000000000815260040160405180910390fd5b5f613bfa85858561408e565b905080826004015414613c39576040517f9542f21b00000000000000000000000000000000000000000000000000000000815260040160405180910390fd5b33825f015f6101000a81548173ffffffffffffffffffffffffffffffffffffffff021916908373ffffffffffffffffffffffffffffffffffffffff16021790555060028260050160016101000a81548160ff02191690836009811115613ca257613ca1614be1565b5b021790555085873373ffffffffffffffffffffffffffffffffffffffff167fbb0070894135d02edfa550b04d7e5e141aa8090b46e57597ad45bfedd655449860405160405180910390a450505050505050565b6006602052815f5260405f208181548110613d0e575f80fd5b905f5260205f2090600602015f9150915050805f015f9054906101000a900473ffffffffffffffffffffffffffffffffffffffff1690806001015490806002015490806003015490806004015490806005015f9054906101000a900460ff16908060050160019054906101000a900460ff16905087565b5f60065f8481526020019081526020015f208281548110613da957613da86150f6565b5b905f5260205f209060060201905060056009811115613dcb57613dca614be1565b5b8160050160019054906101000a900460ff166009811115613def57613dee614be1565b5b14158015613e33575060026009811115613e0c57613e0b614be1565b5b8160050160019054906101000a900460ff166009811115613e3057613e2f614be1565b5b14155b15613e6a576040517f0ce3dabc00000000000000000000000000000000000000000000000000000000815260040160405180910390fd5b60025f9054906101000a900473ffffffffffffffffffffffffffffffffffffffff1673ffffffffffffffffffffffffffffffffffffffff163373ffffffffffffffffffffffffffffffffffffffff1614158015613f155750805f015f9054906101000a900473ffffffffffffffffffffffffffffffffffffffff1673ffffffffffffffffffffffffffffffffffffffff163373ffffffffffffffffffffffffffffffffffffffff1614155b15613f4c576040517fa409840800000000000000000000000000000000000000000000000000000000815260040160405180910390fd5b60068160050160016101000a81548160ff02191690836009811115613f7457613f73614be1565b5b021790555081833373ffffffffffffffffffffffffffffffffffffffff167f5a7e8fc179f9a9e33f9f8011311c26c697f33559984a5ab0e03bc2b9b744e62160405160405180910390a4505050565b5f80613fce85614577565b90505f3373ffffffffffffffffffffffffffffffffffffffff163b11156140455761403d338286868080601f0160208091040260200160405190810160405280939291908181526020018383808284375f81840152601f19601f820116905080830192505050505050506145a7565b915050614087565b5f6140518286866146c6565b90503373ffffffffffffffffffffffffffffffffffffffff168173ffffffffffffffffffffffffffffffffffffffff1614925050505b9392505050565b5f8383836040516020016140a4939291906153ba565b6040516020818303038152906040528051906020012090509392505050565b5f805f60015f9054906101000a900473ffffffffffffffffffffffffffffffffffffffff1673ffffffffffffffffffffffffffffffffffffffff1663d0fb02036040518163ffffffff1660e01b8152600401602060405180830381865afa158015614130573d5f803e3d5ffd5b505050506040513d601f19601f8201168201806040525081019061415491906152bb565b90505f73ffffffffffffffffffffffffffffffffffffffff168173ffffffffffffffffffffffffffffffffffffffff16036141bb576040517f63c7cb9a00000000000000000000000000000000000000000000000000000000815260040160405180910390fd5b5f8190508073ffffffffffffffffffffffffffffffffffffffff166379c9fe44308a8a8a8a6040518663ffffffff1660e01b81526004016142009594939291906153e3565b6040805180830381865afa15801561421a573d5f803e3d5ffd5b505050506040513d601f19601f8201168201806040525081019061423e9190615448565b8094508195505050505094509492505050565b60405163a9059cbb5f52826020528160405260205f6044601c5f885af13d1560015f51141716614288576390b8ec185f526004601cfd5b8060405250505050565b5f60015f9054906101000a900473ffffffffffffffffffffffffffffffffffffffff1673ffffffffffffffffffffffffffffffffffffffff166361d027b36040518163ffffffff1660e01b8152600401602060405180830381865afa1580156142fd573d5f803e3d5ffd5b505050506040513d601f19601f8201168201806040525081019061432191906152bb565b90505f73ffffffffffffffffffffffffffffffffffffffff168173ffffffffffffffffffffffffffffffffffffffff1603614388576040517fdc676cab00000000000000000000000000000000000000000000000000000000815260040160405180910390fd5b614393838284614251565b505050565b6040516323b872dd5f5283602052826040528160605260205f6064601c5f895af13d1560015f511417166143d357637939f4245f526004601cfd5b5f606052806040525050505050565b5f805f8060015f9054906101000a900473ffffffffffffffffffffffffffffffffffffffff1673ffffffffffffffffffffffffffffffffffffffff1663d0fb02036040518163ffffffff1660e01b8152600401602060405180830381865afa158015614450573d5f803e3d5ffd5b505050506040513d601f19601f8201168201806040525081019061447491906152bb565b90505f73ffffffffffffffffffffffffffffffffffffffff168173ffffffffffffffffffffffffffffffffffffffff16036144db576040517f63c7cb9a00000000000000000000000000000000000000000000000000000000815260040160405180910390fd5b5f8190508073ffffffffffffffffffffffffffffffffffffffff16635c5a62f3308b8b8b8b6040518663ffffffff1660e01b81526004016145209594939291906153e3565b606060405180830381865afa15801561453b573d5f803e3d5ffd5b505050506040513d601f19601f8201168201806040525081019061455f9190615486565b80955081965082975050505050509450945094915050565b5f816020527b19457468657265756d205369676e6564204d6573736167653a0a33325f52603c6004209050919050565b5f805f8573ffffffffffffffffffffffffffffffffffffffff1685856040516024016145d4929190615546565b604051602081830303815290604052631626ba7e60e01b6020820180517bffffffffffffffffffffffffffffffffffffffffffffffffffffffff838183161783525050505060405161462691906155a4565b5f60405180830381855afa9150503d805f811461465e576040519150601f19603f3d011682016040523d82523d5f602084013e614663565b606091505b509150915081801561467757506020815110155b80156146bb5750631626ba7e60e01b7bffffffffffffffffffffffffffffffffffffffffffffffffffffffff1916818060200190518101906146b991906155ce565b145b925050509392505050565b5f6041820361472c576040516040846040377f7fffffffffffffffffffffffffffffff5d576e7357a4501ddfe92f46681b20a06060511161472657845f5260408401355f1a6020526020604060805f60015afa505f6060523d6060035191505b80604052505b9392505050565b5f73ffffffffffffffffffffffffffffffffffffffff82169050919050565b5f61475c82614733565b9050919050565b61476c81614752565b82525050565b5f6020820190506147855f830184614763565b92915050565b5f8115159050919050565b61479f8161478b565b82525050565b5f6020820190506147b85f830184614796565b92915050565b5f80fd5b5f80fd5b5f819050919050565b6147d8816147c6565b81146147e2575f80fd5b50565b5f813590506147f3816147cf565b92915050565b5f80fd5b5f80fd5b5f80fd5b5f8083601f84011261481a576148196147f9565b5b8235905067ffffffffffffffff811115614837576148366147fd565b5b60208301915083600182028301111561485357614852614801565b5b9250929050565b5f805f60408486031215614871576148706147be565b5b5f61487e868287016147e5565b935050602084013567ffffffffffffffff81111561489f5761489e6147c2565b5b6148ab86828701614805565b92509250509250925092565b5f7fffffffff0000000000000000000000000000000000000000000000000000000082169050919050565b6148eb816148b7565b82525050565b5f6020820190506149045f8301846148e2565b92915050565b61491381614752565b811461491d575f80fd5b50565b5f8135905061492e8161490a565b92915050565b5f60208284031215614949576149486147be565b5b5f61495684828501614920565b91505092915050565b5f819050919050565b6149718161495f565b811461497b575f80fd5b50565b5f8135905061498c81614968565b92915050565b600a811061499e575f80fd5b50565b5f813590506149af81614992565b92915050565b5f805f606084860312156149cc576149cb6147be565b5b5f6149d98682870161497e565b93505060206149ea8682870161497e565b92505060406149fb868287016149a1565b9150509250925092565b5f805f60408486031215614a1c57614a1b6147be565b5b5f84013567ffffffffffffffff811115614a3957614a386147c2565b5b614a4586828701614805565b93509350506020614a58868287016147e5565b9150509250925092565b614a6b816147c6565b82525050565b5f602082019050614a845f830184614a62565b92915050565b5f8060408385031215614aa057614a9f6147be565b5b5f614aad8582860161497e565b9250506020614abe8582860161497e565b9150509250929050565b5f60208284031215614add57614adc6147be565b5b5f614aea8482850161497e565b91505092915050565b5f8083601f840112614b0857614b076147f9565b5b8235905067ffffffffffffffff811115614b2557614b246147fd565b5b6020830191508360e0820283011115614b4157614b40614801565b5b9250929050565b5f805f8060608587031215614b6057614b5f6147be565b5b5f614b6d8782880161497e565b9450506020614b7e87828801614920565b935050604085013567ffffffffffffffff811115614b9f57614b9e6147c2565b5b614bab87828801614af3565b925092505092959194509250565b614bc28161495f565b82525050565b5f602082019050614bdb5f830184614bb9565b92915050565b7f4e487b71000000000000000000000000000000000000000000000000000000005f52602160045260245ffd5b60048110614c1f57614c1e614be1565b5b50565b5f819050614c2f82614c0e565b919050565b5f614c3e82614c22565b9050919050565b614c4e81614c34565b82525050565b5f606082019050614c675f830186614763565b614c746020830185614bb9565b614c816040830184614c45565b949350505050565b5f819050919050565b5f614cac614ca7614ca284614733565b614c89565b614733565b9050919050565b5f614cbd82614c92565b9050919050565b5f614cce82614cb3565b9050919050565b614cde81614cc4565b82525050565b5f602082019050614cf75f830184614cd5565b92915050565b60048110614d09575f80fd5b50565b5f81359050614d1a81614cfd565b92915050565b5f805f805f60a08688031215614d3957614d386147be565b5b5f614d468882890161497e565b9550506020614d578882890161497e565b9450506040614d6888828901614d0c565b9350506060614d798882890161497e565b9250506080614d8a8882890161497e565b9150509295509295909350565b5f805f60608486031215614dae57614dad6147be565b5b5f614dbb8682870161497e565b9350506020614dcc8682870161497e565b9250506040614ddd8682870161497e565b9150509250925092565b5f614df182614cb3565b9050919050565b614e0181614de7565b82525050565b5f602082019050614e1a5f830184614df8565b92915050565b5f805f8060808587031215614e3857614e376147be565b5b5f614e458782880161497e565b9450506020614e568782880161497e565b9350506040614e678782880161497e565b9250506060614e7887828801614920565b91505092959194509250565b5f805f60608486031215614e9b57614e9a6147be565b5b5f614ea886828701614920565b9350506020614eb986828701614920565b9250506040614eca86828701614920565b9150509250925092565b5f805f60608486031215614eeb57614eea6147be565b5b5f614ef88682870161497e565b9350506020614f098682870161497e565b9250506040614f1a86828701614920565b9150509250925092565b5f805f805f60808688031215614f3d57614f3c6147be565b5b5f614f4a8882890161497e565b9550506020614f5b8882890161497e565b945050604086013567ffffffffffffffff811115614f7c57614f7b6147c2565b5b614f8888828901614805565b93509350506060614f9b888289016147e5565b9150509295509295909350565b60058110614fb957614fb8614be1565b5b50565b5f819050614fc982614fa8565b919050565b5f614fd882614fbc565b9050919050565b614fe881614fce565b82525050565b600a8110614fff57614ffe614be1565b5b50565b5f81905061500f82614fee565b919050565b5f61501e82615002565b9050919050565b61502e81615014565b82525050565b5f60e0820190506150475f83018a614763565b6150546020830189614bb9565b6150616040830188614bb9565b61506e6060830187614bb9565b61507b6080830186614a62565b61508860a0830185614fdf565b61509560c0830184615025565b98975050505050505050565b6150aa8161478b565b81146150b4575f80fd5b50565b5f815190506150c5816150a1565b92915050565b5f602082840312156150e0576150df6147be565b5b5f6150ed848285016150b7565b91505092915050565b7f4e487b71000000000000000000000000000000000000000000000000000000005f52603260045260245ffd5b7f4e487b71000000000000000000000000000000000000000000000000000000005f52601160045260245ffd5b5f61515a8261495f565b91506151658361495f565b925082820390508181111561517d5761517c615123565b5b92915050565b5f61518d8261495f565b91506151988361495f565b92508282019050808211156151b0576151af615123565b5b92915050565b5f6040820190506151c95f830185614bb9565b6151d66020830184614bb9565b9392505050565b5f6151e78261495f565b91507fffffffffffffffffffffffffffffffffffffffffffffffffffffffffffffffff820361521957615218615123565b5b600182019050919050565b60058110615230575f80fd5b50565b5f8135905061524181615224565b92915050565b5f6020828403121561525c5761525b6147be565b5b5f61526984828501615233565b91505092915050565b5f6060820190506152855f830186614c45565b6152926020830185614bb9565b61529f6040830184614bb9565b949350505050565b5f815190506152b58161490a565b92915050565b5f602082840312156152d0576152cf6147be565b5b5f6152dd848285016152a7565b91505092915050565b5f6040820190506152f95f830185614bb9565b6153066020830184614763565b9392505050565b5f60a0820190506153205f830188614bb9565b61532d6020830187614bb9565b61533a6040830186614bb9565b6153476060830185614bb9565b6153546080830184614bb9565b9695505050505050565b5f81905092915050565b828183375f83830152505050565b5f615381838561535e565b935061538e838584615368565b82840190509392505050565b5f819050919050565b6153b46153af826147c6565b61539a565b82525050565b5f6153c6828587615376565b91506153d282846153a3565b602082019150819050949350505050565b5f60a0820190506153f65f830188614763565b6154036020830187614bb9565b6154106040830186614763565b61541d6060830185614bb9565b61542a6080830184614fdf565b9695505050505050565b5f8151905061544281614968565b92915050565b5f806040838503121561545e5761545d6147be565b5b5f61546b85828601615434565b925050602061547c85828601615434565b9150509250929050565b5f805f6060848603121561549d5761549c6147be565b5b5f6154aa86828701615434565b93505060206154bb86828701615434565b92505060406154cc86828701615434565b9150509250925092565b5f81519050919050565b5f82825260208201905092915050565b8281835e5f83830152505050565b5f601f19601f8301169050919050565b5f615518826154d6565b61552281856154e0565b93506155328185602086016154f0565b61553b816154fe565b840191505092915050565b5f6040820190506155595f830185614a62565b818103602083015261556b818461550e565b90509392505050565b5f61557e826154d6565b615588818561535e565b93506155988185602086016154f0565b80840191505092915050565b5f6155af8284615574565b915081905092915050565b5f815190506155c8816147cf565b92915050565b5f602082840312156155e3576155e26147be565b5b5f6155f0848285016155ba565b9150509291505056fea264697066735822122030cd28aececd95a81dd8341afc4fd4ca50d44e47340fb5ffda8b15d8bca7f89c64736f6c63430008190033","linkReferences":{}},"methodIdentifiers":{"adminManager()":"a210b6a4","approve(uint256,uint256,uint256,address)":"a60429c9","approveReturn(uint256,uint256)":"cc6509fe","cancelReturn(uint256,uint256,uint8)":"3b432870","claim(uint256,uint256)":"c3490263","claimAll(uint256,uint256,uint256)":"acd471c4","client()":"109e94cf","contractMilestones(uint256,uint256)":"e92b0e84","createDispute(uint256,uint256)":"f26999cd","deposit(uint256,address,(address,uint256,uint256,uint256,bytes32,uint8,uint8)[])":"4c3cd4df","getContractorDataHash(bytes,bytes32)":"3d20c71e","getCurrentContractId()":"99c4b24c","getMilestoneCount(uint256)":"c2010e50","initialize(address,address,address)":"c0c53b8b","initialized()":"158ef93e","isValidSignature(bytes32,bytes)":"1626ba7e","maxMilestones()":"57cfaf1a","milestoneDetails(uint256,uint256)":"5d556739","refill(uint256,uint256,uint256)":"9db29d8c","registry()":"7b103999","requestReturn(uint256,uint256)":"76e8892e","resolveDispute(uint256,uint256,uint8,uint256,uint256)":"7df8ff5f","setMaxMilestones(uint256)":"4b39c1dd","submit(uint256,uint256,bytes,bytes32)":"e7dc8288","transferClientOwnership(address)":"cce3de81","transferContractorOwnership(uint256,uint256,address)":"cb89c8cb","updateAdminManager(address)":"8c62e594","updateRegistry(address)":"1a5da6c8","withdraw(uint256,uint256)":"441a3e70"},"id":56}