{"abi":[{"type":"constructor","inputs":[{"name":"_owner","type":"address","internalType":"address"}],"stateMutability":"nonpayable"},{"type":"function","name":"NATIVE_TOKEN","inputs":[],"outputs":[{"name":"","type":"address","internalType":"address"}],"stateMutability":"view"},{"type":"function","name":"accountRecovery","inputs":[],"outputs":[{"name":"","type":"address","internalType":"address"}],"stateMutability":"view"},{"type":"function","name":"addPaymentToken","inputs":[{"name":"_token","type":"address","internalType":"address"}],"outputs":[],"stateMutability":"nonpayable"},{"type":"function","name":"addToBlacklist","inputs":[{"name":"_user","type":"address","internalType":"address"}],"outputs":[],"stateMutability":"nonpayable"},{"type":"function","name":"adminManager","inputs":[],"outputs":[{"name":"","type":"address","internalType":"address"}],"stateMutability":"view"},{"type":"function","name":"blacklist","inputs":[{"name":"user","type":"address","internalType":"address"}],"outputs":[{"name":"blacklisted","type":"bool","internalType":"bool"}],"stateMutability":"view"},{"type":"function","name":"confirmOwner","inputs":[],"outputs":[],"stateMutability":"payable"},{"type":"function","name":"escrowFixedPrice","inputs":[],"outputs":[{"name":"","type":"address","internalType":"address"}],"stateMutability":"view"},{"type":"function","name":"escrowHourly","inputs":[],"outputs":[{"name":"","type":"address","internalType":"address"}],"stateMutability":"view"},{"type":"function","name":"escrowMilestone","inputs":[],"outputs":[{"name":"","type":"address","internalType":"address"}],"stateMutability":"view"},{"type":"function","name":"factory","inputs":[],"outputs":[{"name":"","type":"address","internalType":"address"}],"stateMutability":"view"},{"type":"function","name":"feeManager","inputs":[],"outputs":[{"name":"","type":"address","internalType":"address"}],"stateMutability":"view"},{"type":"function","name":"owner","inputs":[],"outputs":[{"name":"","type":"address","internalType":"address"}],"stateMutability":"view"},{"type":"function","name":"paymentTokens","inputs":[{"name":"token","type":"address","internalType":"address"}],"outputs":[{"name":"enabled","type":"bool","internalType":"bool"}],"stateMutability":"view"},{"type":"function","name":"removeFromBlacklist","inputs":[{"name":"_user","type":"address","internalType":"address"}],"outputs":[],"stateMutability":"nonpayable"},{"type":"function","name":"removePaymentToken","inputs":[{"name":"_token","type":"address","internalType":"address"}],"outputs":[],"stateMutability":"nonpayable"},{"type":"function","name":"renounceOwner","inputs":[],"outputs":[],"stateMutability":"payable"},{"type":"function","name":"setAccountRecovery","inputs":[{"name":"_accountRecovery","type":"address","internalType":"address"}],"outputs":[],"stateMutability":"nonpayable"},{"type":"function","name":"setAdminManager","inputs":[{"name":"_adminManager","type":"address","internalType":"address"}],"outputs":[],"stateMutability":"nonpayable"},{"type":"function","name":"setTreasury","inputs":[{"name":"_treasury","type":"address","internalType":"address"}],"outputs":[],"stateMutability":"nonpayable"},{"type":"function","name":"transferOwnership","inputs":[{"name":"newOwner","type":"address","internalType":"address"}],"outputs":[],"stateMutability":"payable"},{"type":"function","name":"treasury","inputs":[],"outputs":[{"name":"","type":"address","internalType":"address"}],"stateMutability":"view"},{"type":"function","name":"updateEscrowFixedPrice","inputs":[{"name":"_escrowFixedPrice","type":"address","internalType":"address"}],"outputs":[],"stateMutability":"nonpayable"},{"type":"function","name":"updateEscrowHourly","inputs":[{"name":"_escrowHourly","type":"address","internalType":"address"}],"outputs":[],"stateMutability":"nonpayable"},{"type":"function","name":"updateEscrowMilestone","inputs":[{"name":"_escrowMilestone","type":"address","internalType":"address"}],"outputs":[],"stateMutability":"nonpayable"},{"type":"function","name":"updateFactory","inputs":[{"name":"_factory","type":"address","internalType":"address"}],"outputs":[],"stateMutability":"nonpayable"},{"type":"function","name":"updateFeeManager","inputs":[{"name":"_feeManager","type":"address","internalType":"address"}],"outputs":[],"stateMutability":"nonpayable"},{"type":"event","name":"AccountRecoverySet","inputs":[{"name":"accountRecovery","type":"address","indexed":false,"internalType":"address"}],"anonymous":false},{"type":"event","name":"AdminManagerSet","inputs":[{"name":"adminManager","type":"address","indexed":false,"internalType":"address"}],"anonymous":false},{"type":"event","name":"Blacklisted","inputs":[{"name":"user","type":"address","indexed":true,"internalType":"address"}],"anonymous":false},{"type":"event","name":"EscrowUpdated","inputs":[{"name":"escrow","type":"address","indexed":false,"internalType":"address"}],"anonymous":false},{"type":"event","name":"FactoryUpdated","inputs":[{"name":"factory","type":"address","indexed":false,"internalType":"address"}],"anonymous":false},{"type":"event","name":"FeeManagerUpdated","inputs":[{"name":"feeManager","type":"address","indexed":false,"internalType":"address"}],"anonymous":false},{"type":"event","name":"OwnerUpdateInitiated","inputs":[{"name":"user","type":"address","indexed":true,"internalType":"address"},{"name":"ownerCandidate","type":"address","indexed":true,"internalType":"address"}],"anonymous":false},{"type":"event","name":"OwnershipTransferred","inputs":[{"name":"user","type":"address","indexed":true,"internalType":"address"},{"name":"newOwner","type":"address","indexed":true,"internalType":"address"}],"anonymous":false},{"type":"event","name":"PaymentTokenAdded","inputs":[{"name":"token","type":"address","indexed":false,"internalType":"address"}],"anonymous":false},{"type":"event","name":"PaymentTokenRemoved","inputs":[{"name":"token","type":"address","indexed":false,"internalType":"address"}],"anonymous":false},{"type":"event","name":"TreasurySet","inputs":[{"name":"treasury","type":"address","indexed":false,"internalType":"address"}],"anonymous":false},{"type":"event","name":"Whitelisted","inputs":[{"name":"user","type":"address","indexed":true,"internalType":"address"}],"anonymous":false},{"type":"error","name":"Registry__PaymentTokenNotRegistered","inputs":[]},{"type":"error","name":"Registry__TokenAlreadyAdded","inputs":[]},{"type":"error","name":"Registry__ZeroAddressProvided","inputs":[]},{"type":"error","name":"Unauthorized","inputs":[]}],"bytecode":{"object":"0x608060405234801561000f575f80fd5b50604051611a6a380380611a6a83398181016040528101906100319190610130565b80805f806101000a81548173ffffffffffffffffffffffffffffffffffffffff021916908373ffffffffffffffffffffffffffffffffffffffff1602179055508073ffffffffffffffffffffffffffffffffffffffff165f73ffffffffffffffffffffffffffffffffffffffff167f8be0079c531659141344cd1fd0a4f28419497f9722a3daafe3b4186f6b6457e060405160405180910390a3505061015b565b5f80fd5b5f73ffffffffffffffffffffffffffffffffffffffff82169050919050565b5f6100ff826100d6565b9050919050565b61010f816100f5565b8114610119575f80fd5b50565b5f8151905061012a81610106565b92915050565b5f60208284031215610145576101446100d2565b5b5f6101528482850161011c565b91505092915050565b611902806101685f395ff3fe60806040526004361061019b575f3560e01c8063a210b6a4116100eb578063d0fb020311610089578063f2c22f6e11610063578063f2c22f6e14610521578063f2fde38b14610549578063f58df75214610565578063f9f92be41461058f5761019b565b8063d0fb0203146104a7578063d9f165dc146104d1578063f0f44260146104f95761019b565b8063bd9b6d86116100c5578063bd9b6d861461040f578063c3b88b4214610419578063c45a015514610455578063c6acd2741461047f5761019b565b8063a210b6a414610395578063a5125421146103bf578063bc160758146103e75761019b565b80634fef5b631161015857806361d027b31161013257806361d027b3146102ef5780638da5cb5b146103195780639036a459146103435780639fc07d051461036d5761019b565b80634fef5b63146102775780635135324f1461029f578063537df3b6146102c75761019b565b80631afcd4d31461019f57806326094a18146101c957806328c23a45146101f357806331f7d964146101fd57806344337ea1146102275780634a7dc8e01461024f575b5f80fd5b3480156101aa575f80fd5b506101b36105cb565b6040516101c09190611827565b60405180910390f35b3480156101d4575f80fd5b506101dd6105f0565b6040516101ea9190611827565b60405180910390f35b6101fb610615565b005b348015610208575f80fd5b50610211610718565b60405161021e9190611827565b60405180910390f35b348015610232575f80fd5b5061024d6004803603810190610248919061186e565b610730565b005b34801561025a575f80fd5b506102756004803603810190610270919061186e565b61084f565b005b348015610282575f80fd5b5061029d6004803603810190610298919061186e565b610962565b005b3480156102aa575f80fd5b506102c560048036038101906102c0919061186e565b610a60565b005b3480156102d2575f80fd5b506102ed60048036038101906102e8919061186e565b610b5e565b005b3480156102fa575f80fd5b50610303610c7c565b6040516103109190611827565b60405180910390f35b348015610324575f80fd5b5061032d610ca1565b60405161033a9190611827565b60405180910390f35b34801561034e575f80fd5b50610357610cc4565b6040516103649190611827565b60405180910390f35b348015610378575f80fd5b50610393600480360381019061038e919061186e565b610ce9565b005b3480156103a0575f80fd5b506103a9610de7565b6040516103b69190611827565b60405180910390f35b3480156103ca575f80fd5b506103e560048036038101906103e0919061186e565b610e0c565b005b3480156103f2575f80fd5b5061040d6004803603810190610408919061186e565b610f16565b005b610417611014565b005b348015610424575f80fd5b5061043f600480360381019061043a919061186e565b611226565b60405161044c91906118b3565b60405180910390f35b348015610460575f80fd5b50610469611243565b6040516104769190611827565b60405180910390f35b34801561048a575f80fd5b506104a560048036038101906104a0919061186e565b611268565b005b3480156104b2575f80fd5b506104bb611366565b6040516104c89190611827565b60405180910390f35b3480156104dc575f80fd5b506104f760048036038101906104f2919061186e565b61138b565b005b348015610504575f80fd5b5061051f600480360381019061051a919061186e565b611489565b005b34801561052c575f80fd5b506105476004803603810190610542919061186e565b611587565b005b610563600480360381019061055e919061186e565b611685565b005b348015610570575f80fd5b506105796117a6565b6040516105869190611827565b60405180910390f35b34801561059a575f80fd5b506105b560048036038101906105b0919061186e565b6117cb565b6040516105c291906118b3565b60405180910390f35b60045f9054906101000a900473ffffffffffffffffffffffffffffffffffffffff1681565b60035f9054906101000a900473ffffffffffffffffffffffffffffffffffffffff1681565b5f8054906101000a900473ffffffffffffffffffffffffffffffffffffffff1673ffffffffffffffffffffffffffffffffffffffff163373ffffffffffffffffffffffffffffffffffffffff1614610699576040517f82b4290000000000000000000000000000000000000000000000000000000000815260040160405180910390fd5b5f806101000a81549073ffffffffffffffffffffffffffffffffffffffff02191690555f73ffffffffffffffffffffffffffffffffffffffff163373ffffffffffffffffffffffffffffffffffffffff167f8be0079c531659141344cd1fd0a4f28419497f9722a3daafe3b4186f6b6457e060405160405180910390a3565b73eeeeeeeeeeeeeeeeeeeeeeeeeeeeeeeeeeeeeeee81565b5f8054906101000a900473ffffffffffffffffffffffffffffffffffffffff1673ffffffffffffffffffffffffffffffffffffffff163373ffffffffffffffffffffffffffffffffffffffff16146107b4576040517f82b4290000000000000000000000000000000000000000000000000000000000815260040160405180910390fd5b6001600b5f8373ffffffffffffffffffffffffffffffffffffffff1673ffffffffffffffffffffffffffffffffffffffff1681526020019081526020015f205f6101000a81548160ff0219169083151502179055508073ffffffffffffffffffffffffffffffffffffffff167fffa4e6181777692565cf28528fc88fd1516ea86b56da075235fa575af6a4b85560405160405180910390a250565b5f8054906101000a900473ffffffffffffffffffffffffffffffffffffffff1673ffffffffffffffffffffffffffffffffffffffff163373ffffffffffffffffffffffffffffffffffffffff16146108d3576040517f82b4290000000000000000000000000000000000000000000000000000000000815260040160405180910390fd5b6001600a5f8373ffffffffffffffffffffffffffffffffffffffff1673ffffffffffffffffffffffffffffffffffffffff1681526020019081526020015f205f6101000a81548160ff0219169083151502179055507fa317c10673baf4f03b3c1041bd5ddbb537d0333a86fec3607c75f9dbb630f48f816040516109579190611827565b60405180910390a150565b5f8054906101000a900473ffffffffffffffffffffffffffffffffffffffff1673ffffffffffffffffffffffffffffffffffffffff163373ffffffffffffffffffffffffffffffffffffffff16146109e6576040517f82b4290000000000000000000000000000000000000000000000000000000000815260040160405180910390fd5b8060035f6101000a81548173ffffffffffffffffffffffffffffffffffffffff021916908373ffffffffffffffffffffffffffffffffffffffff1602179055507f43ab431641dd45dd0661cad4b820e826d7c526af92e3121e1242d721f82ab3ad81604051610a559190611827565b60405180910390a150565b5f8054906101000a900473ffffffffffffffffffffffffffffffffffffffff1673ffffffffffffffffffffffffffffffffffffffff163373ffffffffffffffffffffffffffffffffffffffff1614610ae4576040517f82b4290000000000000000000000000000000000000000000000000000000000815260040160405180910390fd5b8060085f6101000a81548173ffffffffffffffffffffffffffffffffffffffff021916908373ffffffffffffffffffffffffffffffffffffffff1602179055507f15e5dd851f772470ebbe19d0e53d5f67bd9d5bf53f69e161a5af961f6547691681604051610b539190611827565b60405180910390a150565b5f8054906101000a900473ffffffffffffffffffffffffffffffffffffffff1673ffffffffffffffffffffffffffffffffffffffff163373ffffffffffffffffffffffffffffffffffffffff1614610be2576040517f82b4290000000000000000000000000000000000000000000000000000000000815260040160405180910390fd5b5f600b5f8373ffffffffffffffffffffffffffffffffffffffff1673ffffffffffffffffffffffffffffffffffffffff1681526020019081526020015f205f6101000a81548160ff0219169083151502179055508073ffffffffffffffffffffffffffffffffffffffff167faab7954e9d246b167ef88aeddad35209ca2489d95a8aeb59e288d9b19fae5a5460405160405180910390a250565b60075f9054906101000a900473ffffffffffffffffffffffffffffffffffffffff1681565b5f8054906101000a900473ffffffffffffffffffffffffffffffffffffffff1681565b60025f9054906101000a900473ffffffffffffffffffffffffffffffffffffffff1681565b5f8054906101000a900473ffffffffffffffffffffffffffffffffffffffff1673ffffffffffffffffffffffffffffffffffffffff163373ffffffffffffffffffffffffffffffffffffffff1614610d6d576040517f82b4290000000000000000000000000000000000000000000000000000000000815260040160405180910390fd5b8060025f6101000a81548173ffffffffffffffffffffffffffffffffffffffff021916908373ffffffffffffffffffffffffffffffffffffffff1602179055507f43ab431641dd45dd0661cad4b820e826d7c526af92e3121e1242d721f82ab3ad81604051610ddc9190611827565b60405180910390a150565b60095f9054906101000a900473ffffffffffffffffffffffffffffffffffffffff1681565b5f8054906101000a900473ffffffffffffffffffffffffffffffffffffffff1673ffffffffffffffffffffffffffffffffffffffff163373ffffffffffffffffffffffffffffffffffffffff1614610e90576040517f82b4290000000000000000000000000000000000000000000000000000000000815260040160405180910390fd5b600a5f8273ffffffffffffffffffffffffffffffffffffffff1673ffffffffffffffffffffffffffffffffffffffff1681526020019081526020015f205f6101000a81549060ff02191690557f85a3e72f8dd6db3794f93109c3c5f5b79d6112f6979431c45f98b26134b42af281604051610f0b9190611827565b60405180910390a150565b5f8054906101000a900473ffffffffffffffffffffffffffffffffffffffff1673ffffffffffffffffffffffffffffffffffffffff163373ffffffffffffffffffffffffffffffffffffffff1614610f9a576040517f82b4290000000000000000000000000000000000000000000000000000000000815260040160405180910390fd5b8060095f6101000a81548173ffffffffffffffffffffffffffffffffffffffff021916908373ffffffffffffffffffffffffffffffffffffffff1602179055507f5a2d44708ed5f7f712dc8547c0561c73d67fe69e5e609684406a4f0b94dfdec0816040516110099190611827565b60405180910390a150565b600160149054906101000a900460ff1615611183575f8054906101000a900473ffffffffffffffffffffffffffffffffffffffff1673ffffffffffffffffffffffffffffffffffffffff163373ffffffffffffffffffffffffffffffffffffffff16146110ad576040517f82b4290000000000000000000000000000000000000000000000000000000000815260040160405180910390fd5b600160146101000a81549060ff02191690555f60015f9054906101000a900473ffffffffffffffffffffffffffffffffffffffff169050805f806101000a81548173ffffffffffffffffffffffffffffffffffffffff021916908373ffffffffffffffffffffffffffffffffffffffff1602179055508073ffffffffffffffffffffffffffffffffffffffff163373ffffffffffffffffffffffffffffffffffffffff167f8be0079c531659141344cd1fd0a4f28419497f9722a3daafe3b4186f6b6457e060405160405180910390a350611224565b60015f9054906101000a900473ffffffffffffffffffffffffffffffffffffffff1673ffffffffffffffffffffffffffffffffffffffff163373ffffffffffffffffffffffffffffffffffffffff1614611209576040517f82b4290000000000000000000000000000000000000000000000000000000000815260040160405180910390fd5b60018060146101000a81548160ff0219169083151502179055505b565b600a602052805f5260405f205f915054906101000a900460ff1681565b60055f9054906101000a900473ffffffffffffffffffffffffffffffffffffffff1681565b5f8054906101000a900473ffffffffffffffffffffffffffffffffffffffff1673ffffffffffffffffffffffffffffffffffffffff163373ffffffffffffffffffffffffffffffffffffffff16146112ec576040517f82b4290000000000000000000000000000000000000000000000000000000000815260040160405180910390fd5b8060065f6101000a81548173ffffffffffffffffffffffffffffffffffffffff021916908373ffffffffffffffffffffffffffffffffffffffff1602179055507fe45f5e140399b0a7e12971ab020724b828fbed8ac408c420884dc7d1bbe506b48160405161135b9190611827565b60405180910390a150565b60065f9054906101000a900473ffffffffffffffffffffffffffffffffffffffff1681565b5f8054906101000a900473ffffffffffffffffffffffffffffffffffffffff1673ffffffffffffffffffffffffffffffffffffffff163373ffffffffffffffffffffffffffffffffffffffff161461140f576040517f82b4290000000000000000000000000000000000000000000000000000000000815260040160405180910390fd5b8060055f6101000a81548173ffffffffffffffffffffffffffffffffffffffff021916908373ffffffffffffffffffffffffffffffffffffffff1602179055507f24cd1310c8883cbeaf5b805ab13586ce018b79c022827158ff3e8df14d3449368160405161147e9190611827565b60405180910390a150565b5f8054906101000a900473ffffffffffffffffffffffffffffffffffffffff1673ffffffffffffffffffffffffffffffffffffffff163373ffffffffffffffffffffffffffffffffffffffff161461150d576040517f82b4290000000000000000000000000000000000000000000000000000000000815260040160405180910390fd5b8060075f6101000a81548173ffffffffffffffffffffffffffffffffffffffff021916908373ffffffffffffffffffffffffffffffffffffffff1602179055507f3c864541ef71378c6229510ed90f376565ee42d9c5e0904a984a9e863e6db44f8160405161157c9190611827565b60405180910390a150565b5f8054906101000a900473ffffffffffffffffffffffffffffffffffffffff1673ffffffffffffffffffffffffffffffffffffffff163373ffffffffffffffffffffffffffffffffffffffff161461160b576040517f82b4290000000000000000000000000000000000000000000000000000000000815260040160405180910390fd5b8060045f6101000a81548173ffffffffffffffffffffffffffffffffffffffff021916908373ffffffffffffffffffffffffffffffffffffffff1602179055507f43ab431641dd45dd0661cad4b820e826d7c526af92e3121e1242d721f82ab3ad8160405161167a9190611827565b60405180910390a150565b5f8054906101000a900473ffffffffffffffffffffffffffffffffffffffff1673ffffffffffffffffffffffffffffffffffffffff163373ffffffffffffffffffffffffffffffffffffffff1614611709576040517f82b4290000000000000000000000000000000000000000000000000000000000815260040160405180910390fd5b8060015f6101000a81548173ffffffffffffffffffffffffffffffffffffffff021916908373ffffffffffffffffffffffffffffffffffffffff1602179055508073ffffffffffffffffffffffffffffffffffffffff163373ffffffffffffffffffffffffffffffffffffffff167f365e8eca24e61548e99db9d948e4f9cf79224bcbf4fc81afe651e6e80921c87560405160405180910390a350565b60085f9054906101000a900473ffffffffffffffffffffffffffffffffffffffff1681565b600b602052805f5260405f205f915054906101000a900460ff1681565b5f73ffffffffffffffffffffffffffffffffffffffff82169050919050565b5f611811826117e8565b9050919050565b61182181611807565b82525050565b5f60208201905061183a5f830184611818565b92915050565b5f80fd5b61184d81611807565b8114611857575f80fd5b50565b5f8135905061186881611844565b92915050565b5f6020828403121561188357611882611840565b5b5f6118908482850161185a565b91505092915050565b5f8115159050919050565b6118ad81611899565b82525050565b5f6020820190506118c65f8301846118a4565b9291505056fea2646970667358221220bdadd9b1c29bc3fa2c8b1e5d1b781b694a289ba2e472b1ce753d456e2c55bfd564736f6c63430008190033","linkReferences":{}},"methodIdentifiers":{"NATIVE_TOKEN()":"31f7d964","accountRecovery()":"f58df752","addPaymentToken(address)":"4a7dc8e0","addToBlacklist(address)":"44337ea1","adminManager()":"a210b6a4","blacklist(address)":"f9f92be4","confirmOwner()":"bd9b6d86","escrowFixedPrice()":"9036a459","escrowHourly()":"1afcd4d3","escrowMilestone()":"26094a18","factory()":"c45a0155","feeManager()":"d0fb0203","owner()":"8da5cb5b","paymentTokens(address)":"c3b88b42","removeFromBlacklist(address)":"537df3b6","removePaymentToken(address)":"a5125421","renounceOwner()":"28c23a45","setAccountRecovery(address)":"5135324f","setAdminManager(address)":"bc160758","setTreasury(address)":"f0f44260","transferOwnership(address)":"f2fde38b","treasury()":"61d027b3","updateEscrowFixedPrice(address)":"9fc07d05","updateEscrowHourly(address)":"f2c22f6e","updateEscrowMilestone(address)":"4fef5b63","updateFactory(address)":"d9f165dc","updateFeeManager(address)":"c6acd274"},"id":77}