{"abi":[{"type":"constructor","inputs":[],"stateMutability":"nonpayable"},{"type":"function","name":"DOMAIN_SEPARATOR","inputs":[],"outputs":[{"name":"","type":"bytes32","internalType":"bytes32"}],"stateMutability":"view"},{"type":"function","name":"allowance","inputs":[{"name":"","type":"address","internalType":"address"},{"name":"","type":"address","internalType":"address"}],"outputs":[{"name":"","type":"uint256","internalType":"uint256"}],"stateMutability":"view"},{"type":"function","name":"approve","inputs":[{"name":"spender","type":"address","internalType":"address"},{"name":"amount","type":"uint256","internalType":"uint256"}],"outputs":[{"name":"","type":"bool","internalType":"bool"}],"stateMutability":"nonpayable"},{"type":"function","name":"balanceOf","inputs":[{"name":"","type":"address","internalType":"address"}],"outputs":[{"name":"","type":"uint256","internalType":"uint256"}],"stateMutability":"view"},{"type":"function","name":"burn","inputs":[{"name":"from","type":"address","internalType":"address"},{"name":"value","type":"uint256","internalType":"uint256"}],"outputs":[{"name":"","type":"bool","internalType":"bool"}],"stateMutability":"nonpayable"},{"type":"function","name":"claim","inputs":[],"outputs":[],"stateMutability":"nonpayable"},{"type":"function","name":"decimals","inputs":[],"outputs":[{"name":"","type":"uint8","internalType":"uint8"}],"stateMutability":"view"},{"type":"function","name":"mint","inputs":[{"name":"account","type":"address","internalType":"address"},{"name":"amount","type":"uint256","internalType":"uint256"}],"outputs":[{"name":"","type":"bool","internalType":"bool"}],"stateMutability":"nonpayable"},{"type":"function","name":"name","inputs":[],"outputs":[{"name":"","type":"string","internalType":"string"}],"stateMutability":"view"},{"type":"function","name":"nonces","inputs":[{"name":"","type":"address","internalType":"address"}],"outputs":[{"name":"","type":"uint256","internalType":"uint256"}],"stateMutability":"view"},{"type":"function","name":"permit","inputs":[{"name":"owner","type":"address","internalType":"address"},{"name":"spender","type":"address","internalType":"address"},{"name":"value","type":"uint256","internalType":"uint256"},{"name":"deadline","type":"uint256","internalType":"uint256"},{"name":"v","type":"uint8","internalType":"uint8"},{"name":"r","type":"bytes32","internalType":"bytes32"},{"name":"s","type":"bytes32","internalType":"bytes32"}],"outputs":[],"stateMutability":"nonpayable"},{"type":"function","name":"symbol","inputs":[],"outputs":[{"name":"","type":"string","internalType":"string"}],"stateMutability":"view"},{"type":"function","name":"totalSupply","inputs":[],"outputs":[{"name":"","type":"uint256","internalType":"uint256"}],"stateMutability":"view"},{"type":"function","name":"transfer","inputs":[{"name":"to","type":"address","internalType":"address"},{"name":"amount","type":"uint256","internalType":"uint256"}],"outputs":[{"name":"","type":"bool","internalType":"bool"}],"stateMutability":"nonpayable"},{"type":"function","name":"transferFrom","inputs":[{"name":"from","type":"address","internalType":"address"},{"name":"to","type":"address","internalType":"address"},{"name":"amount","type":"uint256","internalType":"uint256"}],"outputs":[{"name":"","type":"bool","internalType":"bool"}],"stateMutability":"nonpayable"},{"type":"event","name":"Approval","inputs":[{"name":"owner","type":"address","indexed":true,"internalType":"address"},{"name":"spender","type":"address","indexed":true,"internalType":"address"},{"name":"amount","type":"uint256","indexed":false,"internalType":"uint256"}],"anonymous":false},{"type":"event","name":"Transfer","inputs":[{"name":"from","type":"address","indexed":true,"internalType":"address"},{"name":"to","type":"address","indexed":true,"internalType":"address"},{"name":"amount","type":"uint256","indexed":false,"internalType":"uint256"}],"anonymous":false}],"bytecode":{"object":"0x60e060405234801561000f575f80fd5b506040518060400160405280600781526020017f4d6f636b444149000000000000000000000000000000000000000000000000008152506040518060400160405280600781526020017f4d6f636b444149000000000000000000000000000000000000000000000000008152506012825f908161008c9190610394565b50816001908161009c9190610394565b508060ff1660808160ff16815250504660a081815250506100c16100d060201b60201c565b60c081815250505050506105cc565b5f7f8b73c3c69bb8fe3d512ecc4cf759cc79239f7b179b0ffacaa9a75d522b39400f5f60405161010091906104ff565b60405180910390207fc89efdaa54c0f20c7adf612882df0950f5a951637e0307cdcb4c672f298b8bc6463060405160200161013f95949392919061057b565b60405160208183030381529060405280519060200120905090565b5f81519050919050565b7f4e487b71000000000000000000000000000000000000000000000000000000005f52604160045260245ffd5b7f4e487b71000000000000000000000000000000000000000000000000000000005f52602260045260245ffd5b5f60028204905060018216806101d557607f821691505b6020821081036101e8576101e7610191565b5b50919050565b5f819050815f5260205f209050919050565b5f6020601f8301049050919050565b5f82821b905092915050565b5f6008830261024a7fffffffffffffffffffffffffffffffffffffffffffffffffffffffffffffffff8261020f565b610254868361020f565b95508019841693508086168417925050509392505050565b5f819050919050565b5f819050919050565b5f61029861029361028e8461026c565b610275565b61026c565b9050919050565b5f819050919050565b6102b18361027e565b6102c56102bd8261029f565b84845461021b565b825550505050565b5f90565b6102d96102cd565b6102e48184846102a8565b505050565b5b81811015610307576102fc5f826102d1565b6001810190506102ea565b5050565b601f82111561034c5761031d816101ee565b61032684610200565b81016020851015610335578190505b61034961034185610200565b8301826102e9565b50505b505050565b5f82821c905092915050565b5f61036c5f1984600802610351565b1980831691505092915050565b5f610384838361035d565b9150826002028217905092915050565b61039d8261015a565b67ffffffffffffffff8111156103b6576103b5610164565b5b6103c082546101be565b6103cb82828561030b565b5f60209050601f8311600181146103fc575f84156103ea578287015190505b6103f48582610379565b86555061045b565b601f19841661040a866101ee565b5f5b828110156104315784890151825560018201915060208501945060208101905061040c565b8683101561044e578489015161044a601f89168261035d565b8355505b6001600288020188555050505b505050505050565b5f81905092915050565b5f819050815f5260205f209050919050565b5f815461048b816101be565b6104958186610463565b9450600182165f81146104af57600181146104c4576104f6565b60ff19831686528115158202860193506104f6565b6104cd8561046d565b5f5b838110156104ee578154818901526001820191506020810190506104cf565b838801955050505b50505092915050565b5f61050a828461047f565b915081905092915050565b5f819050919050565b61052781610515565b82525050565b6105368161026c565b82525050565b5f73ffffffffffffffffffffffffffffffffffffffff82169050919050565b5f6105658261053c565b9050919050565b6105758161055b565b82525050565b5f60a08201905061058e5f83018861051e565b61059b602083018761051e565b6105a8604083018661051e565b6105b5606083018561052d565b6105c2608083018461056c565b9695505050505050565b60805160a05160c0516116b86105f65f395f61074701525f61071301525f6106ee01526116b85ff3fe608060405234801561000f575f80fd5b50600436106100f3575f3560e01c80634e71d92d116100955780639dc29fac116100645780639dc29fac14610287578063a9059cbb146102b7578063d505accf146102e7578063dd62ed3e14610303576100f3565b80634e71d92d146101ff57806370a08231146102095780637ecebe001461023957806395d89b4114610269576100f3565b806323b872dd116100d157806323b872dd14610163578063313ce567146101935780633644e515146101b157806340c10f19146101cf576100f3565b806306fdde03146100f7578063095ea7b31461011557806318160ddd14610145575b5f80fd5b6100ff610333565b60405161010c9190610f0b565b60405180910390f35b61012f600480360381019061012a9190610fbc565b6103be565b60405161013c9190611014565b60405180910390f35b61014d6104ab565b60405161015a919061103c565b60405180910390f35b61017d60048036038101906101789190611055565b6104b1565b60405161018a9190611014565b60405180910390f35b61019b6106ec565b6040516101a891906110c0565b60405180910390f35b6101b9610710565b6040516101c691906110f1565b60405180910390f35b6101e960048036038101906101e49190610fbc565b61076c565b6040516101f69190611014565b60405180910390f35b610207610781565b005b610223600480360381019061021e919061110a565b610796565b604051610230919061103c565b60405180910390f35b610253600480360381019061024e919061110a565b6107ab565b604051610260919061103c565b60405180910390f35b6102716107c0565b60405161027e9190610f0b565b60405180910390f35b6102a1600480360381019061029c9190610fbc565b61084c565b6040516102ae9190611014565b60405180910390f35b6102d160048036038101906102cc9190610fbc565b610861565b6040516102de9190611014565b60405180910390f35b61030160048036038101906102fc9190611189565b61096e565b005b61031d60048036038101906103189190611226565b610c5b565b60405161032a919061103c565b60405180910390f35b5f805461033f90611291565b80601f016020809104026020016040519081016040528092919081815260200182805461036b90611291565b80156103b65780601f1061038d576101008083540402835291602001916103b6565b820191905f5260205f20905b81548152906001019060200180831161039957829003601f168201915b505050505081565b5f8160045f3373ffffffffffffffffffffffffffffffffffffffff1673ffffffffffffffffffffffffffffffffffffffff1681526020019081526020015f205f8573ffffffffffffffffffffffffffffffffffffffff1673ffffffffffffffffffffffffffffffffffffffff1681526020019081526020015f20819055508273ffffffffffffffffffffffffffffffffffffffff163373ffffffffffffffffffffffffffffffffffffffff167f8c5be1e5ebec7d5bd14f71427d1e84f3dd0314c0f7b2291e5b200ac8c7c3b92584604051610499919061103c565b60405180910390a36001905092915050565b60025481565b5f8060045f8673ffffffffffffffffffffffffffffffffffffffff1673ffffffffffffffffffffffffffffffffffffffff1681526020019081526020015f205f3373ffffffffffffffffffffffffffffffffffffffff1673ffffffffffffffffffffffffffffffffffffffff1681526020019081526020015f205490507fffffffffffffffffffffffffffffffffffffffffffffffffffffffffffffffff81146105de57828161056191906112ee565b60045f8773ffffffffffffffffffffffffffffffffffffffff1673ffffffffffffffffffffffffffffffffffffffff1681526020019081526020015f205f3373ffffffffffffffffffffffffffffffffffffffff1673ffffffffffffffffffffffffffffffffffffffff1681526020019081526020015f20819055505b8260035f8773ffffffffffffffffffffffffffffffffffffffff1673ffffffffffffffffffffffffffffffffffffffff1681526020019081526020015f205f82825461062a91906112ee565b925050819055508260035f8673ffffffffffffffffffffffffffffffffffffffff1673ffffffffffffffffffffffffffffffffffffffff1681526020019081526020015f205f82825401925050819055508373ffffffffffffffffffffffffffffffffffffffff168573ffffffffffffffffffffffffffffffffffffffff167fddf252ad1be2c89b69c2b068fc378daa952ba7f163c4a11628f55a4df523b3ef856040516106d8919061103c565b60405180910390a360019150509392505050565b7f000000000000000000000000000000000000000000000000000000000000000081565b5f7f0000000000000000000000000000000000000000000000000000000000000000461461074557610740610c7b565b610767565b7f00000000000000000000000000000000000000000000000000000000000000005b905090565b5f6107778383610d05565b6001905092915050565b61079433683635c9adc5dea00000610d05565b565b6003602052805f5260405f205f915090505481565b6005602052805f5260405f205f915090505481565b600180546107cd90611291565b80601f01602080910402602001604051908101604052809291908181526020018280546107f990611291565b80156108445780601f1061081b57610100808354040283529160200191610844565b820191905f5260205f20905b81548152906001019060200180831161082757829003601f168201915b505050505081565b5f6108578383610dd0565b6001905092915050565b5f8160035f3373ffffffffffffffffffffffffffffffffffffffff1673ffffffffffffffffffffffffffffffffffffffff1681526020019081526020015f205f8282546108ae91906112ee565b925050819055508160035f8573ffffffffffffffffffffffffffffffffffffffff1673ffffffffffffffffffffffffffffffffffffffff1681526020019081526020015f205f82825401925050819055508273ffffffffffffffffffffffffffffffffffffffff163373ffffffffffffffffffffffffffffffffffffffff167fddf252ad1be2c89b69c2b068fc378daa952ba7f163c4a11628f55a4df523b3ef8460405161095c919061103c565b60405180910390a36001905092915050565b428410156109b1576040517f08c379a00000000000000000000000000000000000000000000000000000000081526004016109a89061136b565b60405180910390fd5b5f60016109bc610710565b7f6e71edae12b1b97f4d1f60370fef10105fa2faae0126114a169c64845d6126c98a8a8a60055f8f73ffffffffffffffffffffffffffffffffffffffff1673ffffffffffffffffffffffffffffffffffffffff1681526020019081526020015f205f815480929190600101919050558b604051602001610a4196959493929190611398565b60405160208183030381529060405280519060200120604051602001610a6892919061146b565b604051602081830303815290604052805190602001208585856040515f8152602001604052604051610a9d94939291906114a1565b6020604051602081039080840390855afa158015610abd573d5f803e3d5ffd5b5050506020604051035190505f73ffffffffffffffffffffffffffffffffffffffff168173ffffffffffffffffffffffffffffffffffffffff1614158015610b3057508773ffffffffffffffffffffffffffffffffffffffff168173ffffffffffffffffffffffffffffffffffffffff16145b610b6f576040517f08c379a0000000000000000000000000000000000000000000000000000000008152600401610b669061152e565b60405180910390fd5b8560045f8373ffffffffffffffffffffffffffffffffffffffff1673ffffffffffffffffffffffffffffffffffffffff1681526020019081526020015f205f8973ffffffffffffffffffffffffffffffffffffffff1673ffffffffffffffffffffffffffffffffffffffff1681526020019081526020015f2081905550508573ffffffffffffffffffffffffffffffffffffffff168773ffffffffffffffffffffffffffffffffffffffff167f8c5be1e5ebec7d5bd14f71427d1e84f3dd0314c0f7b2291e5b200ac8c7c3b92587604051610c4a919061103c565b60405180910390a350505050505050565b6004602052815f5260405f20602052805f5260405f205f91509150505481565b5f7f8b73c3c69bb8fe3d512ecc4cf759cc79239f7b179b0ffacaa9a75d522b39400f5f604051610cab91906115e8565b60405180910390207fc89efdaa54c0f20c7adf612882df0950f5a951637e0307cdcb4c672f298b8bc64630604051602001610cea9594939291906115fe565b60405160208183030381529060405280519060200120905090565b8060025f828254610d16919061164f565b925050819055508060035f8473ffffffffffffffffffffffffffffffffffffffff1673ffffffffffffffffffffffffffffffffffffffff1681526020019081526020015f205f82825401925050819055508173ffffffffffffffffffffffffffffffffffffffff165f73ffffffffffffffffffffffffffffffffffffffff167fddf252ad1be2c89b69c2b068fc378daa952ba7f163c4a11628f55a4df523b3ef83604051610dc4919061103c565b60405180910390a35050565b8060035f8473ffffffffffffffffffffffffffffffffffffffff1673ffffffffffffffffffffffffffffffffffffffff1681526020019081526020015f205f828254610e1c91906112ee565b925050819055508060025f82825403925050819055505f73ffffffffffffffffffffffffffffffffffffffff168273ffffffffffffffffffffffffffffffffffffffff167fddf252ad1be2c89b69c2b068fc378daa952ba7f163c4a11628f55a4df523b3ef83604051610e8f919061103c565b60405180910390a35050565b5f81519050919050565b5f82825260208201905092915050565b8281835e5f83830152505050565b5f601f19601f8301169050919050565b5f610edd82610e9b565b610ee78185610ea5565b9350610ef7818560208601610eb5565b610f0081610ec3565b840191505092915050565b5f6020820190508181035f830152610f238184610ed3565b905092915050565b5f80fd5b5f73ffffffffffffffffffffffffffffffffffffffff82169050919050565b5f610f5882610f2f565b9050919050565b610f6881610f4e565b8114610f72575f80fd5b50565b5f81359050610f8381610f5f565b92915050565b5f819050919050565b610f9b81610f89565b8114610fa5575f80fd5b50565b5f81359050610fb681610f92565b92915050565b5f8060408385031215610fd257610fd1610f2b565b5b5f610fdf85828601610f75565b9250506020610ff085828601610fa8565b9150509250929050565b5f8115159050919050565b61100e81610ffa565b82525050565b5f6020820190506110275f830184611005565b92915050565b61103681610f89565b82525050565b5f60208201905061104f5f83018461102d565b92915050565b5f805f6060848603121561106c5761106b610f2b565b5b5f61107986828701610f75565b935050602061108a86828701610f75565b925050604061109b86828701610fa8565b9150509250925092565b5f60ff82169050919050565b6110ba816110a5565b82525050565b5f6020820190506110d35f8301846110b1565b92915050565b5f819050919050565b6110eb816110d9565b82525050565b5f6020820190506111045f8301846110e2565b92915050565b5f6020828403121561111f5761111e610f2b565b5b5f61112c84828501610f75565b91505092915050565b61113e816110a5565b8114611148575f80fd5b50565b5f8135905061115981611135565b92915050565b611168816110d9565b8114611172575f80fd5b50565b5f813590506111838161115f565b92915050565b5f805f805f805f60e0888a0312156111a4576111a3610f2b565b5b5f6111b18a828b01610f75565b97505060206111c28a828b01610f75565b96505060406111d38a828b01610fa8565b95505060606111e48a828b01610fa8565b94505060806111f58a828b0161114b565b93505060a06112068a828b01611175565b92505060c06112178a828b01611175565b91505092959891949750929550565b5f806040838503121561123c5761123b610f2b565b5b5f61124985828601610f75565b925050602061125a85828601610f75565b9150509250929050565b7f4e487b71000000000000000000000000000000000000000000000000000000005f52602260045260245ffd5b5f60028204905060018216806112a857607f821691505b6020821081036112bb576112ba611264565b5b50919050565b7f4e487b71000000000000000000000000000000000000000000000000000000005f52601160045260245ffd5b5f6112f882610f89565b915061130383610f89565b925082820390508181111561131b5761131a6112c1565b5b92915050565b7f5045524d49545f444541444c494e455f455850495245440000000000000000005f82015250565b5f611355601783610ea5565b915061136082611321565b602082019050919050565b5f6020820190508181035f83015261138281611349565b9050919050565b61139281610f4e565b82525050565b5f60c0820190506113ab5f8301896110e2565b6113b86020830188611389565b6113c56040830187611389565b6113d2606083018661102d565b6113df608083018561102d565b6113ec60a083018461102d565b979650505050505050565b5f81905092915050565b7f19010000000000000000000000000000000000000000000000000000000000005f82015250565b5f6114356002836113f7565b915061144082611401565b600282019050919050565b5f819050919050565b611465611460826110d9565b61144b565b82525050565b5f61147582611429565b91506114818285611454565b6020820191506114918284611454565b6020820191508190509392505050565b5f6080820190506114b45f8301876110e2565b6114c160208301866110b1565b6114ce60408301856110e2565b6114db60608301846110e2565b95945050505050565b7f494e56414c49445f5349474e45520000000000000000000000000000000000005f82015250565b5f611518600e83610ea5565b9150611523826114e4565b602082019050919050565b5f6020820190508181035f8301526115458161150c565b9050919050565b5f81905092915050565b5f819050815f5260205f209050919050565b5f815461157481611291565b61157e818661154c565b9450600182165f811461159857600181146115ad576115df565b60ff19831686528115158202860193506115df565b6115b685611556565b5f5b838110156115d7578154818901526001820191506020810190506115b8565b838801955050505b50505092915050565b5f6115f38284611568565b915081905092915050565b5f60a0820190506116115f8301886110e2565b61161e60208301876110e2565b61162b60408301866110e2565b611638606083018561102d565b6116456080830184611389565b9695505050505050565b5f61165982610f89565b915061166483610f89565b925082820190508082111561167c5761167b6112c1565b5b9291505056fea2646970667358221220787af4476c30e243d7c66d2d480d008a1a7b06d4b3f8e45bb11826d06634b60764736f6c63430008190033","linkReferences":{}},"methodIdentifiers":{"DOMAIN_SEPARATOR()":"3644e515","allowance(address,address)":"dd62ed3e","approve(address,uint256)":"095ea7b3","balanceOf(address)":"70a08231","burn(address,uint256)":"9dc29fac","claim()":"4e71d92d","decimals()":"313ce567","mint(address,uint256)":"40c10f19","name()":"06fdde03","nonces(address)":"7ecebe00","permit(address,address,uint256,uint256,uint8,bytes32,bytes32)":"d505accf","symbol()":"95d89b41","totalSupply()":"18160ddd","transfer(address,uint256)":"a9059cbb","transferFrom(address,address,uint256)":"23b872dd"},"id":76}