{"abi":[{"type":"function","name":"ACCOUNT_RECOVERY","inputs":[],"outputs":[{"name":"","type":"address","internalType":"address"}],"stateMutability":"view"},{"type":"function","name":"ADMIN_MANAGER","inputs":[],"outputs":[{"name":"","type":"address","internalType":"address"}],"stateMutability":"view"},{"type":"function","name":"CHAIN_ID","inputs":[],"outputs":[{"name":"","type":"uint256","internalType":"uint256"}],"stateMutability":"view"},{"type":"function","name":"ESCROW_FIXED_PRICE","inputs":[],"outputs":[{"name":"","type":"address","internalType":"address"}],"stateMutability":"view"},{"type":"function","name":"ESCROW_FIXED_PRICE_1","inputs":[],"outputs":[{"name":"","type":"address","internalType":"address"}],"stateMutability":"view"},{"type":"function","name":"ESCROW_HOURLY","inputs":[],"outputs":[{"name":"","type":"address","internalType":"address"}],"stateMutability":"view"},{"type":"function","name":"ESCROW_HOURLY_1","inputs":[],"outputs":[{"name":"","type":"address","internalType":"address"}],"stateMutability":"view"},{"type":"function","name":"ESCROW_MILESTONE","inputs":[],"outputs":[{"name":"","type":"address","internalType":"address"}],"stateMutability":"view"},{"type":"function","name":"ESCROW_MILESTONE_1","inputs":[],"outputs":[{"name":"","type":"address","internalType":"address"}],"stateMutability":"view"},{"type":"function","name":"FACTORY","inputs":[],"outputs":[{"name":"","type":"address","internalType":"address"}],"stateMutability":"view"},{"type":"function","name":"FACTORY_1","inputs":[],"outputs":[{"name":"","type":"address","internalType":"address"}],"stateMutability":"view"},{"type":"function","name":"FEE_MANAGER","inputs":[],"outputs":[{"name":"","type":"address","internalType":"address"}],"stateMutability":"view"},{"type":"function","name":"FEE_MANAGER_1","inputs":[],"outputs":[{"name":"","type":"address","internalType":"address"}],"stateMutability":"view"},{"type":"function","name":"MOCK_DAI","inputs":[],"outputs":[{"name":"","type":"address","internalType":"address"}],"stateMutability":"view"},{"type":"function","name":"MOCK_USDT","inputs":[],"outputs":[{"name":"","type":"address","internalType":"address"}],"stateMutability":"view"},{"type":"function","name":"OWNER","inputs":[],"outputs":[{"name":"","type":"address","internalType":"address"}],"stateMutability":"view"},{"type":"function","name":"REGISTRY","inputs":[],"outputs":[{"name":"","type":"address","internalType":"address"}],"stateMutability":"view"},{"type":"function","name":"REGISTRY_1","inputs":[],"outputs":[{"name":"","type":"address","internalType":"address"}],"stateMutability":"view"}],"bytecode":{"object":"0x61059d61004d600b8282823980515f1a6073146041577f4e487b71000000000000000000000000000000000000000000000000000000005f525f60045260245ffd5b305f52607381538281f3fe730000000000000000000000000000000000000000301460806040526004361061011f575f3560e01c80635f9cdbaf116100ab5780639a5b6f8f1161007a5780639a5b6f8f146102a9578063aa95657a146102c7578063ab78eb5e146102e5578063ca4608e214610303578063ea26266c146103215761011f565b80635f9cdbaf146102315780635ff55ad11461024f57806385e1f4d01461026d5780638f75991d1461028b5761011f565b80632596eda4116100f25780632596eda41461019b5780632dd31000146101b95780633c19f520146101d7578063467c85d8146101f55780634cc26162146102135761011f565b806306433b1b1461012357806307c6a7f8146101415780630e6f66c51461015f578063117803e31461017d575b5f80fd5b61012b61033f565b604051610138919061051d565b60405180910390f35b610149610357565b604051610156919061051d565b60405180910390f35b61016761036f565b604051610174919061051d565b60405180910390f35b610185610387565b604051610192919061051d565b60405180910390f35b6101a361039f565b6040516101b0919061051d565b60405180910390f35b6101c16103b7565b6040516101ce919061051d565b60405180910390f35b6101df6103cf565b6040516101ec919061051d565b60405180910390f35b6101fd6103e7565b60405161020a919061051d565b60405180910390f35b61021b6103ff565b604051610228919061051d565b60405180910390f35b610239610417565b604051610246919061051d565b60405180910390f35b61025761042f565b604051610264919061051d565b60405180910390f35b610275610447565b604051610282919061054e565b60405180910390f35b61029361044e565b6040516102a0919061051d565b60405180910390f35b6102b1610466565b6040516102be919061051d565b60405180910390f35b6102cf61047e565b6040516102dc919061051d565b60405180910390f35b6102ed610496565b6040516102fa919061051d565b60405180910390f35b61030b6104ae565b604051610318919061051d565b60405180910390f35b6103296104c6565b604051610336919061051d565b60405180910390f35b73043b15159a4210dd884e254fa794ecf6ae8449b381565b73a0a8ee7bf502ec4eb5c670fe5c63092950dbb71881565b736c71098e924d99ad6d91a48591cd3ae67a2583d681565b733eab900ac1e0de25f465c63717cd1044ff69243c81565b739fab81e260be5a5cd7371d6227a004ce219c46f581565b737cdfbb8867450f3791ce79dc41b0027b6de5943f81565b7317eb9587525a4cdd60a06375f1f5ba9d6968419881565b73c4f460ed012c71ec78392bdf6b983fbbdeb38a6d81565b73d06378ac34c64f1e32ced460bb5cead25f2620cb81565b73803dfc1fbb4ba3a6eb9603ede2458b5f62c117a881565b73d19ac10fe911d913eb0b731925d3a69c80bd664381565b6201388281565b73e2b05184705a5b25de95dcec77147b93b4a26f3181565b73501cbbca63ea1f0cc9a490a33b60f08ecd2dab2781565b730f2bb056a862c1576ce387803a828ca065687f2981565b732d789b9133e5a88d64ed6b17cf6443a1fc8bfce381565b73d0e424c9ebda1d635cfdfb11ac10303c148f504981565b7306d2c7002b78dffabdf32f3650d4f1100d4c413d81565b5f73ffffffffffffffffffffffffffffffffffffffff82169050919050565b5f610507826104de565b9050919050565b610517816104fd565b82525050565b5f6020820190506105305f83018461050e565b92915050565b5f819050919050565b61054881610536565b82525050565b5f6020820190506105615f83018461053f565b9291505056fea264697066735822122061d319bc83e6f23c466400ac3f9ba79456786bac0da7b130c7468d7fc169015e64736f6c63430008190033","linkReferences":{}},"methodIdentifiers":{"ACCOUNT_RECOVERY()":"467c85d8","ADMIN_MANAGER()":"9a5b6f8f","CHAIN_ID()":"85e1f4d0","ESCROW_FIXED_PRICE()":"0e6f66c5","ESCROW_FIXED_PRICE_1()":"5f9cdbaf","ESCROW_HOURLY()":"4cc26162","ESCROW_HOURLY_1()":"ca4608e2","ESCROW_MILESTONE()":"aa95657a","ESCROW_MILESTONE_1()":"ab78eb5e","FACTORY()":"2dd31000","FACTORY_1()":"8f75991d","FEE_MANAGER()":"ea26266c","FEE_MANAGER_1()":"2596eda4","MOCK_DAI()":"07c6a7f8","MOCK_USDT()":"5ff55ad1","OWNER()":"117803e3","REGISTRY()":"06433b1b","REGISTRY_1()":"3c19f520"},"id":1}