{"abi":[{"type":"function","name":"adminApprove","inputs":[{"name":"_contractId","type":"uint256","internalType":"uint256"},{"name":"_weekId","type":"uint256","internalType":"uint256"},{"name":"_amountApprove","type":"uint256","internalType":"uint256"},{"name":"_receiver","type":"address","internalType":"address"},{"name":"_initializeNewWeek","type":"bool","internalType":"bool"}],"outputs":[],"stateMutability":"nonpayable"},{"type":"function","name":"adminManager","inputs":[],"outputs":[{"name":"","type":"address","internalType":"contract IEscrowAdminManager"}],"stateMutability":"view"},{"type":"function","name":"approve","inputs":[{"name":"_contractId","type":"uint256","internalType":"uint256"},{"name":"_weekId","type":"uint256","internalType":"uint256"},{"name":"_amountApprove","type":"uint256","internalType":"uint256"},{"name":"_receiver","type":"address","internalType":"address"}],"outputs":[],"stateMutability":"nonpayable"},{"type":"function","name":"approveReturn","inputs":[{"name":"_contractId","type":"uint256","internalType":"uint256"}],"outputs":[],"stateMutability":"nonpayable"},{"type":"function","name":"cancelReturn","inputs":[{"name":"_contractId","type":"uint256","internalType":"uint256"},{"name":"_status","type":"uint8","internalType":"enum Enums.Status"}],"outputs":[],"stateMutability":"nonpayable"},{"type":"function","name":"claim","inputs":[{"name":"_contractId","type":"uint256","internalType":"uint256"},{"name":"_weekId","type":"uint256","internalType":"uint256"}],"outputs":[],"stateMutability":"nonpayable"},{"type":"function","name":"claimAll","inputs":[{"name":"_contractId","type":"uint256","internalType":"uint256"},{"name":"_startWeekId","type":"uint256","internalType":"uint256"},{"name":"_endWeekId","type":"uint256","internalType":"uint256"}],"outputs":[],"stateMutability":"nonpayable"},{"type":"function","name":"client","inputs":[],"outputs":[{"name":"","type":"address","internalType":"address"}],"stateMutability":"view"},{"type":"function","name":"contractDetails","inputs":[{"name":"contractId","type":"uint256","internalType":"uint256"}],"outputs":[{"name":"contractor","type":"address","internalType":"address"},{"name":"paymentToken","type":"address","internalType":"address"},{"name":"prepaymentAmount","type":"uint256","internalType":"uint256"},{"name":"amountToWithdraw","type":"uint256","internalType":"uint256"},{"name":"feeConfig","type":"uint8","internalType":"enum Enums.FeeConfig"},{"name":"status","type":"uint8","internalType":"enum Enums.Status"}],"stateMutability":"view"},{"type":"function","name":"createDispute","inputs":[{"name":"_contractId","type":"uint256","internalType":"uint256"},{"name":"_weekId","type":"uint256","internalType":"uint256"}],"outputs":[],"stateMutability":"nonpayable"},{"type":"function","name":"deposit","inputs":[{"name":"_contractId","type":"uint256","internalType":"uint256"},{"name":"_deposit","type":"tuple","internalType":"struct IEscrowHourly.Deposit","components":[{"name":"contractor","type":"address","internalType":"address"},{"name":"paymentToken","type":"address","internalType":"address"},{"name":"prepaymentAmount","type":"uint256","internalType":"uint256"},{"name":"amountToClaim","type":"uint256","internalType":"uint256"},{"name":"feeConfig","type":"uint8","internalType":"enum Enums.FeeConfig"}]}],"outputs":[],"stateMutability":"nonpayable"},{"type":"function","name":"getCurrentContractId","inputs":[],"outputs":[{"name":"","type":"uint256","internalType":"uint256"}],"stateMutability":"view"},{"type":"function","name":"getWeeksCount","inputs":[{"name":"_contractId","type":"uint256","internalType":"uint256"}],"outputs":[{"name":"","type":"uint256","internalType":"uint256"}],"stateMutability":"view"},{"type":"function","name":"initialize","inputs":[{"name":"_client","type":"address","internalType":"address"},{"name":"_adminManager","type":"address","internalType":"address"},{"name":"_registry","type":"address","internalType":"address"}],"outputs":[],"stateMutability":"nonpayable"},{"type":"function","name":"initialized","inputs":[],"outputs":[{"name":"","type":"bool","internalType":"bool"}],"stateMutability":"view"},{"type":"function","name":"isValidSignature","inputs":[{"name":"_hash","type":"bytes32","internalType":"bytes32"},{"name":"_signature","type":"bytes","internalType":"bytes"}],"outputs":[{"name":"","type":"bytes4","internalType":"bytes4"}],"stateMutability":"view"},{"type":"function","name":"refill","inputs":[{"name":"_contractId","type":"uint256","internalType":"uint256"},{"name":"_weekId","type":"uint256","internalType":"uint256"},{"name":"_amount","type":"uint256","internalType":"uint256"},{"name":"_type","type":"uint8","internalType":"enum Enums.RefillType"}],"outputs":[],"stateMutability":"nonpayable"},{"type":"function","name":"registry","inputs":[],"outputs":[{"name":"","type":"address","internalType":"contract IEscrowRegistry"}],"stateMutability":"view"},{"type":"function","name":"requestReturn","inputs":[{"name":"_contractId","type":"uint256","internalType":"uint256"}],"outputs":[],"stateMutability":"nonpayable"},{"type":"function","name":"resolveDispute","inputs":[{"name":"_contractId","type":"uint256","internalType":"uint256"},{"name":"_weekId","type":"uint256","internalType":"uint256"},{"name":"_winner","type":"uint8","internalType":"enum Enums.Winner"},{"name":"_clientAmount","type":"uint256","internalType":"uint256"},{"name":"_contractorAmount","type":"uint256","internalType":"uint256"}],"outputs":[],"stateMutability":"nonpayable"},{"type":"function","name":"transferClientOwnership","inputs":[{"name":"_newAccount","type":"address","internalType":"address"}],"outputs":[],"stateMutability":"nonpayable"},{"type":"function","name":"transferContractorOwnership","inputs":[{"name":"_contractId","type":"uint256","internalType":"uint256"},{"name":"_newAccount","type":"address","internalType":"address"}],"outputs":[],"stateMutability":"nonpayable"},{"type":"function","name":"updateAdminManager","inputs":[{"name":"_adminManager","type":"address","internalType":"address"}],"outputs":[],"stateMutability":"nonpayable"},{"type":"function","name":"updateRegistry","inputs":[{"name":"_registry","type":"address","internalType":"address"}],"outputs":[],"stateMutability":"nonpayable"},{"type":"function","name":"weeklyEntries","inputs":[{"name":"contractId","type":"uint256","internalType":"uint256"},{"name":"","type":"uint256","internalType":"uint256"}],"outputs":[{"name":"amountToClaim","type":"uint256","internalType":"uint256"},{"name":"weekStatus","type":"uint8","internalType":"enum Enums.Status"}],"stateMutability":"view"},{"type":"function","name":"withdraw","inputs":[{"name":"_contractId","type":"uint256","internalType":"uint256"}],"outputs":[],"stateMutability":"nonpayable"},{"type":"event","name":"AdminManagerUpdated","inputs":[{"name":"adminManager","type":"address","indexed":false,"internalType":"address"}],"anonymous":false},{"type":"event","name":"Approved","inputs":[{"name":"approver","type":"address","indexed":true,"internalType":"address"},{"name":"contractId","type":"uint256","indexed":true,"internalType":"uint256"},{"name":"weekId","type":"uint256","indexed":false,"internalType":"uint256"},{"name":"amountApprove","type":"uint256","indexed":false,"internalType":"uint256"},{"name":"receiver","type":"address","indexed":false,"internalType":"address"}],"anonymous":false},{"type":"event","name":"BulkClaimed","inputs":[{"name":"contractor","type":"address","indexed":true,"internalType":"address"},{"name":"contractId","type":"uint256","indexed":true,"internalType":"uint256"},{"name":"startWeekId","type":"uint256","indexed":false,"internalType":"uint256"},{"name":"endWeekId","type":"uint256","indexed":false,"internalType":"uint256"},{"name":"totalClaimedAmount","type":"uint256","indexed":false,"internalType":"uint256"},{"name":"totalFeeAmount","type":"uint256","indexed":false,"internalType":"uint256"},{"name":"totalClientFee","type":"uint256","indexed":false,"internalType":"uint256"}],"anonymous":false},{"type":"event","name":"Claimed","inputs":[{"name":"contractor","type":"address","indexed":true,"internalType":"address"},{"name":"contractId","type":"uint256","indexed":true,"internalType":"uint256"},{"name":"weekId","type":"uint256","indexed":false,"internalType":"uint256"},{"name":"amount","type":"uint256","indexed":false,"internalType":"uint256"},{"name":"feeAmount","type":"uint256","indexed":false,"internalType":"uint256"}],"anonymous":false},{"type":"event","name":"ClientOwnershipTransferred","inputs":[{"name":"previousOwner","type":"address","indexed":true,"internalType":"address"},{"name":"newOwner","type":"address","indexed":true,"internalType":"address"}],"anonymous":false},{"type":"event","name":"ContractorOwnershipTransferred","inputs":[{"name":"contractId","type":"uint256","indexed":true,"internalType":"uint256"},{"name":"previousOwner","type":"address","indexed":true,"internalType":"address"},{"name":"newOwner","type":"address","indexed":true,"internalType":"address"}],"anonymous":false},{"type":"event","name":"Deposited","inputs":[{"name":"sender","type":"address","indexed":true,"internalType":"address"},{"name":"contractId","type":"uint256","indexed":true,"internalType":"uint256"},{"name":"weekId","type":"uint256","indexed":false,"internalType":"uint256"},{"name":"totalDepositAmount","type":"uint256","indexed":false,"internalType":"uint256"},{"name":"contractor","type":"address","indexed":true,"internalType":"address"}],"anonymous":false},{"type":"event","name":"DisputeCreated","inputs":[{"name":"sender","type":"address","indexed":true,"internalType":"address"},{"name":"contractId","type":"uint256","indexed":true,"internalType":"uint256"},{"name":"weekId","type":"uint256","indexed":false,"internalType":"uint256"}],"anonymous":false},{"type":"event","name":"DisputeResolved","inputs":[{"name":"approver","type":"address","indexed":true,"internalType":"address"},{"name":"contractId","type":"uint256","indexed":true,"internalType":"uint256"},{"name":"weekId","type":"uint256","indexed":false,"internalType":"uint256"},{"name":"winner","type":"uint8","indexed":false,"internalType":"enum Enums.Winner"},{"name":"clientAmount","type":"uint256","indexed":false,"internalType":"uint256"},{"name":"contractorAmount","type":"uint256","indexed":false,"internalType":"uint256"}],"anonymous":false},{"type":"event","name":"RefilledPrepayment","inputs":[{"name":"sender","type":"address","indexed":true,"internalType":"address"},{"name":"contractId","type":"uint256","indexed":true,"internalType":"uint256"},{"name":"amount","type":"uint256","indexed":false,"internalType":"uint256"}],"anonymous":false},{"type":"event","name":"RefilledWeekPayment","inputs":[{"name":"sender","type":"address","indexed":true,"internalType":"address"},{"name":"contractId","type":"uint256","indexed":true,"internalType":"uint256"},{"name":"weekId","type":"uint256","indexed":false,"internalType":"uint256"},{"name":"amount","type":"uint256","indexed":false,"internalType":"uint256"}],"anonymous":false},{"type":"event","name":"RegistryUpdated","inputs":[{"name":"registry","type":"address","indexed":false,"internalType":"address"}],"anonymous":false},{"type":"event","name":"ReturnApproved","inputs":[{"name":"approver","type":"address","indexed":true,"internalType":"address"},{"name":"contractId","type":"uint256","indexed":true,"internalType":"uint256"}],"anonymous":false},{"type":"event","name":"ReturnCanceled","inputs":[{"name":"sender","type":"address","indexed":true,"internalType":"address"},{"name":"contractId","type":"uint256","indexed":true,"internalType":"uint256"}],"anonymous":false},{"type":"event","name":"ReturnRequested","inputs":[{"name":"sender","type":"address","indexed":true,"internalType":"address"},{"name":"contractId","type":"uint256","indexed":true,"internalType":"uint256"}],"anonymous":false},{"type":"event","name":"Withdrawn","inputs":[{"name":"withdrawer","type":"address","indexed":true,"internalType":"address"},{"name":"contractId","type":"uint256","indexed":true,"internalType":"uint256"},{"name":"amount","type":"uint256","indexed":false,"internalType":"uint256"},{"name":"feeAmount","type":"uint256","indexed":false,"internalType":"uint256"}],"anonymous":false},{"type":"error","name":"Escrow__AlreadyInitialized","inputs":[]},{"type":"error","name":"Escrow__BlacklistedAccount","inputs":[]},{"type":"error","name":"Escrow__ContractorMismatch","inputs":[]},{"type":"error","name":"Escrow__CreateDisputeNotAllowed","inputs":[]},{"type":"error","name":"Escrow__DisputeNotActiveForThisDeposit","inputs":[]},{"type":"error","name":"Escrow__FeeTooHigh","inputs":[]},{"type":"error","name":"Escrow__InsufficientPrepayment","inputs":[]},{"type":"error","name":"Escrow__InvalidAmount","inputs":[]},{"type":"error","name":"Escrow__InvalidContractId","inputs":[]},{"type":"error","name":"Escrow__InvalidContractorDataHash","inputs":[]},{"type":"error","name":"Escrow__InvalidFeeConfig","inputs":[]},{"type":"error","name":"Escrow__InvalidRange","inputs":[]},{"type":"error","name":"Escrow__InvalidStatusForApprove","inputs":[]},{"type":"error","name":"Escrow__InvalidStatusForSubmit","inputs":[]},{"type":"error","name":"Escrow__InvalidStatusProvided","inputs":[]},{"type":"error","name":"Escrow__InvalidStatusToClaim","inputs":[]},{"type":"error","name":"Escrow__InvalidStatusToWithdraw","inputs":[]},{"type":"error","name":"Escrow__InvalidWeekId","inputs":[]},{"type":"error","name":"Escrow__InvalidWinnerSpecified","inputs":[]},{"type":"error","name":"Escrow__NoDepositsProvided","inputs":[]},{"type":"error","name":"Escrow__NoFundsAvailableForWithdraw","inputs":[]},{"type":"error","name":"Escrow__NoReturnRequested","inputs":[]},{"type":"error","name":"Escrow__NotApproved","inputs":[]},{"type":"error","name":"Escrow__NotEnoughDeposit","inputs":[]},{"type":"error","name":"Escrow__NotSetFeeManager","inputs":[]},{"type":"error","name":"Escrow__NotSupportedPaymentToken","inputs":[]},{"type":"error","name":"Escrow__OutOfRange","inputs":[]},{"type":"error","name":"Escrow__ResolutionExceedsDepositedAmount","inputs":[]},{"type":"error","name":"Escrow__ReturnNotAllowed","inputs":[]},{"type":"error","name":"Escrow__UnauthorizedAccount","inputs":[{"name":"account","type":"address","internalType":"address"}]},{"type":"error","name":"Escrow__UnauthorizedReceiver","inputs":[]},{"type":"error","name":"Escrow__UnauthorizedToApproveDispute","inputs":[]},{"type":"error","name":"Escrow__UnauthorizedToApproveReturn","inputs":[]},{"type":"error","name":"Escrow__ZeroAddressProvided","inputs":[]},{"type":"error","name":"Escrow__ZeroDepositAmount","inputs":[]}],"bytecode":{"object":"0x6080604052348015600e575f80fd5b506159dc8061001c5f395ff3fe608060405234801561000f575f80fd5b506004361061018c575f3560e01c80637f82c613116100dc578063a60429c911610095578063c34902631161006f578063c349026314610458578063cce3de8114610474578063f26999cd14610490578063fa6c61e7146104ac5761018c565b8063a60429c914610404578063acd471c414610420578063c0c53b8b1461043c5761018c565b80637f82c613146103435780638588ea3d1461035f5780638a843d491461037b5780638c62e594146103ac57806399c4b24c146103c8578063a210b6a4146103e65761018c565b80633c4979c4116101495780636a33e558116101235780636a33e558146102d15780636d079469146102ed5780637b103999146103095780637df8ff5f146103275761018c565b80633c4979c41461026957806358676582146102995780635a3c88ea146102b55761018c565b8063109e94cf14610190578063158ef93e146101ae5780631626ba7e146101cc5780631a5da6c8146101fc5780632e1a7d4d146102185780633330a55f14610234575b5f80fd5b6101986104c8565b6040516101a59190614bd7565b60405180910390f35b6101b66104ed565b6040516101c39190614c0a565b60405180910390f35b6101e660048036038101906101e19190614cbf565b6104ff565b6040516101f39190614d56565b60405180910390f35b61021660048036038101906102119190614d99565b610531565b005b610232600480360381019061022d9190614df7565b6106e8565b005b61024e60048036038101906102499190614df7565b610b86565b60405161026096959493929190614eea565b60405180910390f35b610283600480360381019061027e9190614df7565b610c15565b6040516102909190614f49565b60405180910390f35b6102b360048036038101906102ae9190614df7565b610c32565b005b6102cf60048036038101906102ca9190614df7565b610e41565b005b6102eb60048036038101906102e69190614f84565b61106f565b005b61030760048036038101906103029190614fc2565b611917565b005b610311611b50565b60405161031e919061505b565b60405180910390f35b610341600480360381019061033c9190615097565b611b75565b005b61035d60048036038101906103589190615131565b611f58565b005b610379600480360381019061037491906151b8565b612507565b005b610395600480360381019061039091906151f6565b612752565b6040516103a3929190615234565b60405180910390f35b6103c660048036038101906103c19190614d99565b612798565b005b6103d0612971565b6040516103dd9190614f49565b60405180910390f35b6103ee61297a565b6040516103fb919061527b565b60405180910390f35b61041e60048036038101906104199190615294565b61299d565b005b61043a600480360381019061043591906152f8565b612daf565b005b61045660048036038101906104519190615348565b613326565b005b610472600480360381019061046d91906151f6565b61351c565b005b61048e60048036038101906104899190614d99565b613a10565b005b6104aa60048036038101906104a591906151f6565b613c30565b005b6104c660048036038101906104c191906153c2565b613eb3565b005b60025f9054906101000a900473ffffffffffffffffffffffffffffffffffffffff1681565b60045f9054906101000a900460ff1681565b5f61050b8484846143af565b1561051f57631626ba7e60e01b905061052a565b63ffffffff60e01b90505b9392505050565b5f8054906101000a900473ffffffffffffffffffffffffffffffffffffffff1673ffffffffffffffffffffffffffffffffffffffff166324d7806c336040518263ffffffff1660e01b81526004016105899190614bd7565b602060405180830381865afa1580156105a4573d5f803e3d5ffd5b505050506040513d601f19601f820116820180604052508101906105c8919061544d565b61060957336040517f65823a200000000000000000000000000000000000000000000000000000000081526004016106009190614bd7565b60405180910390fd5b5f73ffffffffffffffffffffffffffffffffffffffff168173ffffffffffffffffffffffffffffffffffffffff160361066e576040517fdc676cab00000000000000000000000000000000000000000000000000000000815260040160405180910390fd5b8060015f6101000a81548173ffffffffffffffffffffffffffffffffffffffff021916908373ffffffffffffffffffffffffffffffffffffffff1602179055507fd6ceddf6d2a22f21c7c81675c518004eff43bc5c8a6fc32a0b748e69d58671cd816040516106dd9190614bd7565b60405180910390a150565b60025f9054906101000a900473ffffffffffffffffffffffffffffffffffffffff1673ffffffffffffffffffffffffffffffffffffffff163373ffffffffffffffffffffffffffffffffffffffff161461077957336040517f65823a200000000000000000000000000000000000000000000000000000000081526004016107709190614bd7565b60405180910390fd5b60015f9054906101000a900473ffffffffffffffffffffffffffffffffffffffff1673ffffffffffffffffffffffffffffffffffffffff1663f9f92be4336040518263ffffffff1660e01b81526004016107d39190614bd7565b602060405180830381865afa1580156107ee573d5f803e3d5ffd5b505050506040513d601f19601f82011682018060405250810190610812919061544d565b15610849576040517fe2eb7ad400000000000000000000000000000000000000000000000000000000815260040160405180910390fd5b5f60055f8381526020019081526020015f2090506009808111156108705761086f614e31565b5b8160040160019054906101000a900460ff16600981111561089457610893614e31565b5b036108cb576040517fea9b41cf00000000000000000000000000000000000000000000000000000000815260040160405180910390fd5b600860098111156108df576108de614e31565b5b8160040160019054906101000a900460ff16600981111561090357610902614e31565b5b141580156109475750600760098111156109205761091f614e31565b5b8160040160019054906101000a900460ff16600981111561094457610943614e31565b5b14155b801561098957506004600981111561096257610961614e31565b5b8160040160019054906101000a900460ff16600981111561098657610985614e31565b5b14155b156109c0576040517fea9b41cf00000000000000000000000000000000000000000000000000000000815260040160405180910390fd5b5f8160030154036109fd576040517f91533c4900000000000000000000000000000000000000000000000000000000815260040160405180910390fd5b5f610a1e83338460030154856004015f9054906101000a900460ff1661447a565b9150505f610a4284338560020154866004015f9054906101000a900460ff1661447a565b9150508260030154836002015f828254610a5c91906154a5565b925050819055505f828460030154610a7491906154d8565b90505f846003018190555060098460040160016101000a81548160ff02191690836009811115610aa757610aa6614e31565b5b0217905550610ada846001015f9054906101000a900473ffffffffffffffffffffffffffffffffffffffff163383614608565b5f838311610ae8575f610af5565b8383610af491906154a5565b5b90505f811115610b2d57610b2c856001015f9054906101000a900473ffffffffffffffffffffffffffffffffffffffff1682614649565b5b853373ffffffffffffffffffffffffffffffffffffffff167f75e161b3e824b114fc1a33274bd7091918dd4e639cede50b78b15a4eea956a218484604051610b7692919061550b565b60405180910390a3505050505050565b6005602052805f5260405f205f91509050805f015f9054906101000a900473ffffffffffffffffffffffffffffffffffffffff1690806001015f9054906101000a900473ffffffffffffffffffffffffffffffffffffffff1690806002015490806003015490806004015f9054906101000a900460ff16908060040160019054906101000a900460ff16905086565b5f60065f8381526020019081526020015f20805490509050919050565b60025f9054906101000a900473ffffffffffffffffffffffffffffffffffffffff1673ffffffffffffffffffffffffffffffffffffffff163373ffffffffffffffffffffffffffffffffffffffff1614610cc357336040517f65823a20000000000000000000000000000000000000000000000000000000008152600401610cba9190614bd7565b60405180910390fd5b5f60055f8381526020019081526020015f20905060016009811115610ceb57610cea614e31565b5b8160040160019054906101000a900460ff166009811115610d0f57610d0e614e31565b5b14158015610d53575060036009811115610d2c57610d2b614e31565b5b8160040160019054906101000a900460ff166009811115610d5057610d4f614e31565b5b14155b8015610d95575060046009811115610d6e57610d6d614e31565b5b8160040160019054906101000a900460ff166009811115610d9257610d91614e31565b5b14155b15610dcc576040517f2d5adc4200000000000000000000000000000000000000000000000000000000815260040160405180910390fd5b60058160040160016101000a81548160ff02191690836009811115610df457610df3614e31565b5b0217905550813373ffffffffffffffffffffffffffffffffffffffff167f304cb4352da5a899bd058ad614ef730382d644701193a3331953fd4456768bd560405160405180910390a35050565b5f60055f8381526020019081526020015f20905060056009811115610e6957610e68614e31565b5b8160040160019054906101000a900460ff166009811115610e8d57610e8c614e31565b5b14610ec4576040517fe828419600000000000000000000000000000000000000000000000000000000815260040160405180910390fd5b805f015f9054906101000a900473ffffffffffffffffffffffffffffffffffffffff1673ffffffffffffffffffffffffffffffffffffffff163373ffffffffffffffffffffffffffffffffffffffff1614158015610fb657505f8054906101000a900473ffffffffffffffffffffffffffffffffffffffff1673ffffffffffffffffffffffffffffffffffffffff166324d7806c336040518263ffffffff1660e01b8152600401610f759190614bd7565b602060405180830381865afa158015610f90573d5f803e3d5ffd5b505050506040513d601f19601f82011682018060405250810190610fb4919061544d565b155b15610fed576040517f9878552e00000000000000000000000000000000000000000000000000000000815260040160405180910390fd5b8060020154816003018190555060088160040160016101000a81548160ff0219169083600981111561102257611021614e31565b5b0217905550813373ffffffffffffffffffffffffffffffffffffffff167f250546cc3ce5d1e96179a08952362712d5396cbea88ee493feec2ebf76ba107e60405160405180910390a35050565b60025f9054906101000a900473ffffffffffffffffffffffffffffffffffffffff1673ffffffffffffffffffffffffffffffffffffffff163373ffffffffffffffffffffffffffffffffffffffff161461110057336040517f65823a200000000000000000000000000000000000000000000000000000000081526004016110f79190614bd7565b60405180910390fd5b60015f9054906101000a900473ffffffffffffffffffffffffffffffffffffffff1673ffffffffffffffffffffffffffffffffffffffff1663f9f92be4336040518263ffffffff1660e01b815260040161115a9190614bd7565b602060405180830381865afa158015611175573d5f803e3d5ffd5b505050506040513d601f19601f82011682018060405250810190611199919061544d565b156111d0576040517fe2eb7ad400000000000000000000000000000000000000000000000000000000815260040160405180910390fd5b60015f9054906101000a900473ffffffffffffffffffffffffffffffffffffffff1673ffffffffffffffffffffffffffffffffffffffff1663c3b88b428260200160208101906112209190614d99565b6040518263ffffffff1660e01b815260040161123c9190614bd7565b602060405180830381865afa158015611257573d5f803e3d5ffd5b505050506040513d601f19601f8201168201806040525081019061127b919061544d565b6112b1576040517f800a391c00000000000000000000000000000000000000000000000000000000815260040160405180910390fd5b5f81604001351480156112c757505f8160600135145b156112fe576040517fad22439800000000000000000000000000000000000000000000000000000000815260040160405180910390fd5b5f73ffffffffffffffffffffffffffffffffffffffff16815f0160208101906113279190614d99565b73ffffffffffffffffffffffffffffffffffffffff1603611374576040517fdc676cab00000000000000000000000000000000000000000000000000000000815260040160405180910390fd5b5f8083146113825782611397565b60035f815461139090615532565b9190508190555b90505f60055f8381526020019081526020015f2090505f841115611411575f60065f8681526020019081526020015f20805490501480156113d9575060035484115b15611410576040517f2e78804a00000000000000000000000000000000000000000000000000000000815260040160405180910390fd5b5b5f73ffffffffffffffffffffffffffffffffffffffff16815f015f9054906101000a900473ffffffffffffffffffffffffffffffffffffffff1673ffffffffffffffffffffffffffffffffffffffff16141580156114ce5750805f015f9054906101000a900473ffffffffffffffffffffffffffffffffffffffff1673ffffffffffffffffffffffffffffffffffffffff16835f0160208101906114b59190614d99565b73ffffffffffffffffffffffffffffffffffffffff1614155b15611505576040517fcd8f404200000000000000000000000000000000000000000000000000000000815260040160405180910390fd5b5f73ffffffffffffffffffffffffffffffffffffffff16815f015f9054906101000a900473ffffffffffffffffffffffffffffffffffffffff1673ffffffffffffffffffffffffffffffffffffffff160361163e57825f01602081019061156c9190614d99565b815f015f6101000a81548173ffffffffffffffffffffffffffffffffffffffff021916908373ffffffffffffffffffffffffffffffffffffffff1602179055508260200160208101906115bf9190614d99565b816001015f6101000a81548173ffffffffffffffffffffffffffffffffffffffff021916908373ffffffffffffffffffffffffffffffffffffffff160217905550826080016020810190611613919061559c565b816004015f6101000a81548160ff0219169083600481111561163857611637614e31565b5b02179055505b5f83604001351115611669578260400135816002015f82825461166191906154d8565b925050819055505b6001600981111561167d5761167c614e31565b5b8160040160019054906101000a900460ff1660098111156116a1576116a0614e31565b5b1415806116e45750600360098111156116bd576116bc614e31565b5b8160040160019054906101000a900460ff1660098111156116e1576116e0614e31565b5b14155b15611742575f8084604001351161170f575f84606001351161170757600161170a565b60035b611712565b60015b9050808260040160016101000a81548160ff0219169083600981111561173b5761173a614e31565b5b0217905550505b5f80846060013511611755576001611758565b60035b905060065f8481526020019081526020015f2060405180604001604052808660600135815260200183600981111561179357611792614e31565b5b815250908060018154018082558091505060019003905f5260205f2090600202015f909190919091505f820151815f01556020820151816001015f6101000a81548160ff021916908360098111156117ee576117ed614e31565b5b021790555050505f808086604001351161180c578560600135611812565b85604001355b9050611830853383876004015f9054906101000a900460ff1661447a565b5080925050611864846001015f9054906101000a900473ffffffffffffffffffffffffffffffffffffffff1633308561474f565b835f015f9054906101000a900473ffffffffffffffffffffffffffffffffffffffff1673ffffffffffffffffffffffffffffffffffffffff16853373ffffffffffffffffffffffffffffffffffffffff167f0dc7374ab4e9eabe7858f135d2bbdad836f3c57f486170ee19796c78313c75be600160065f8b81526020019081526020015f20805490506118f791906154a5565b8660405161190692919061550b565b60405180910390a450505050505050565b60015f9054906101000a900473ffffffffffffffffffffffffffffffffffffffff1673ffffffffffffffffffffffffffffffffffffffff1663f58df7526040518163ffffffff1660e01b8152600401602060405180830381865afa158015611981573d5f803e3d5ffd5b505050506040513d601f19601f820116820180604052508101906119a591906155db565b73ffffffffffffffffffffffffffffffffffffffff163373ffffffffffffffffffffffffffffffffffffffff1614611a1457336040517f65823a20000000000000000000000000000000000000000000000000000000008152600401611a0b9190614bd7565b60405180910390fd5b5f73ffffffffffffffffffffffffffffffffffffffff168173ffffffffffffffffffffffffffffffffffffffff1603611a79576040517fdc676cab00000000000000000000000000000000000000000000000000000000815260040160405180910390fd5b5f60055f8481526020019081526020015f2090508173ffffffffffffffffffffffffffffffffffffffff16815f015f9054906101000a900473ffffffffffffffffffffffffffffffffffffffff1673ffffffffffffffffffffffffffffffffffffffff16847fe066c3cb94248d16e9353d7bb30f5ef028cc262ad9c06df7cdc4730ac8f58eb760405160405180910390a481815f015f6101000a81548173ffffffffffffffffffffffffffffffffffffffff021916908373ffffffffffffffffffffffffffffffffffffffff160217905550505050565b60015f9054906101000a900473ffffffffffffffffffffffffffffffffffffffff1681565b5f8054906101000a900473ffffffffffffffffffffffffffffffffffffffff1673ffffffffffffffffffffffffffffffffffffffff166324d7806c336040518263ffffffff1660e01b8152600401611bcd9190614bd7565b602060405180830381865afa158015611be8573d5f803e3d5ffd5b505050506040513d601f19601f82011682018060405250810190611c0c919061544d565b611c4d57336040517f65823a20000000000000000000000000000000000000000000000000000000008152600401611c449190614bd7565b60405180910390fd5b5f60055f8781526020019081526020015f2090505f60065f8881526020019081526020015f208681548110611c8557611c84615606565b5b905f5260205f209060020201905060066009811115611ca757611ca6614e31565b5b8260040160019054906101000a900460ff166009811115611ccb57611cca614e31565b5b14158015611d0e575060066009811115611ce857611ce7614e31565b5b816001015f9054906101000a900460ff166009811115611d0b57611d0a614e31565b5b14155b15611d45576040517fa98ca33000000000000000000000000000000000000000000000000000000000815260040160405180910390fd5b5f8385611d5291906154d8565b90508260020154811115611d92576040517f774c2f4f00000000000000000000000000000000000000000000000000000000815260040160405180910390fd5b60026003811115611da657611da5614e31565b5b866003811115611db957611db8614e31565b5b1480611de85750600380811115611dd357611dd2614e31565b5b866003811115611de657611de5614e31565b5b145b611df2575f611df4565b835b825f018190555060026003811115611e0f57611e0e614e31565b5b866003811115611e2257611e21614e31565b5b03611e35575f8360030181905550611ea0565b60016003811115611e4957611e48614e31565b5b866003811115611e5c57611e5b614e31565b5b1480611e8b5750600380811115611e7657611e75614e31565b5b866003811115611e8957611e88614e31565b5b145b611e95575f611e97565b845b83600301819055505b60078360040160016101000a81548160ff02191690836009811115611ec857611ec7614e31565b5b02179055506007826001015f6101000a81548160ff02191690836009811115611ef457611ef3614e31565b5b0217905550873373ffffffffffffffffffffffffffffffffffffffff167f5e763585c765fbc61b32f0a758a69702b20f8a3affdea69544443e71bcc9c9d589898989604051611f469493929190615679565b60405180910390a35050505050505050565b60025f9054906101000a900473ffffffffffffffffffffffffffffffffffffffff1673ffffffffffffffffffffffffffffffffffffffff163373ffffffffffffffffffffffffffffffffffffffff1614611fe957336040517f65823a20000000000000000000000000000000000000000000000000000000008152600401611fe09190614bd7565b60405180910390fd5b60015f9054906101000a900473ffffffffffffffffffffffffffffffffffffffff1673ffffffffffffffffffffffffffffffffffffffff1663f9f92be4336040518263ffffffff1660e01b81526004016120439190614bd7565b602060405180830381865afa15801561205e573d5f803e3d5ffd5b505050506040513d601f19601f82011682018060405250810190612082919061544d565b156120b9576040517fe2eb7ad400000000000000000000000000000000000000000000000000000000815260040160405180910390fd5b5f82036120f2576040517fad22439800000000000000000000000000000000000000000000000000000000815260040160405180910390fd5b60018081111561210557612104614e31565b5b81600181111561211857612117614e31565b5b148015612139575060065f8581526020019081526020015f20805490508310155b15612170576040517f4f82a3fd00000000000000000000000000000000000000000000000000000000815260040160405180910390fd5b5f60055f8681526020019081526020015f20905060015f9054906101000a900473ffffffffffffffffffffffffffffffffffffffff1673ffffffffffffffffffffffffffffffffffffffff1663c3b88b42826001015f9054906101000a900473ffffffffffffffffffffffffffffffffffffffff166040518263ffffffff1660e01b81526004016122019190614bd7565b602060405180830381865afa15801561221c573d5f803e3d5ffd5b505050506040513d601f19601f82011682018060405250810190612240919061544d565b612276576040517f800a391c00000000000000000000000000000000000000000000000000000000815260040160405180910390fd5b6004600981111561228a57612289614e31565b5b8160040160019054906101000a900460ff1660098111156122ae576122ad614e31565b5b14806122ee57506009808111156122c8576122c7614e31565b5b8160040160019054906101000a900460ff1660098111156122ec576122eb614e31565b5b145b156123215760038160040160016101000a81548160ff0219169083600981111561231b5761231a614e31565b5b02179055505b5f61233e863386856004015f9054906101000a900460ff1661447a565b509050612370826001015f9054906101000a900473ffffffffffffffffffffffffffffffffffffffff1633308461474f565b5f600181111561238357612382614e31565b5b83600181111561239657612395614e31565b5b036124095783826002015f8282546123ae91906154d8565b92505081905550853373ffffffffffffffffffffffffffffffffffffffff167f0ea109ee758c8e028e659dec82e5630bc625011cfa2f2a2c3b962b7bf3f8c6b3866040516123fc9190614f49565b60405180910390a36124ff565b60018081111561241c5761241b614e31565b5b83600181111561242f5761242e614e31565b5b036124fe575f60065f8881526020019081526020015f20868154811061245857612457615606565b5b905f5260205f209060020201905084815f015f82825461247891906154d8565b925050819055506003816001015f6101000a81548160ff021916908360098111156124a6576124a5614e31565b5b0217905550863373ffffffffffffffffffffffffffffffffffffffff167fdc2abed1673831d7e2c046c674a85ba8cfa9ddaff7029e9896dc13faebf4a41388886040516124f492919061550b565b60405180910390a3505b5b505050505050565b60025f9054906101000a900473ffffffffffffffffffffffffffffffffffffffff1673ffffffffffffffffffffffffffffffffffffffff163373ffffffffffffffffffffffffffffffffffffffff161461259857336040517f65823a2000000000000000000000000000000000000000000000000000000000815260040161258f9190614bd7565b60405180910390fd5b5f60055f8481526020019081526020015f209050600560098111156125c0576125bf614e31565b5b8160040160019054906101000a900460ff1660098111156125e4576125e3614e31565b5b1461261b576040517fe828419600000000000000000000000000000000000000000000000000000000815260040160405180910390fd5b6001600981111561262f5761262e614e31565b5b82600981111561264257612641614e31565b5b1415801561267557506003600981111561265f5761265e614e31565b5b82600981111561267257612671614e31565b5b14155b80156126a65750600460098111156126905761268f614e31565b5b8260098111156126a3576126a2614e31565b5b14155b156126dd576040517f65aed4e800000000000000000000000000000000000000000000000000000000815260040160405180910390fd5b818160040160016101000a81548160ff0219169083600981111561270457612703614e31565b5b0217905550823373ffffffffffffffffffffffffffffffffffffffff167f3b5e3bb2d6626166d4a596b6d05551dce617e3c39bdbf957740a4b1524c85bb460405160405180910390a3505050565b6006602052815f5260405f20818154811061276b575f80fd5b905f5260205f2090600202015f9150915050805f015490806001015f9054906101000a900460ff16905082565b5f8054906101000a900473ffffffffffffffffffffffffffffffffffffffff1673ffffffffffffffffffffffffffffffffffffffff16638da5cb5b6040518163ffffffff1660e01b8152600401602060405180830381865afa158015612800573d5f803e3d5ffd5b505050506040513d601f19601f8201168201806040525081019061282491906155db565b73ffffffffffffffffffffffffffffffffffffffff163373ffffffffffffffffffffffffffffffffffffffff161461289357336040517f65823a2000000000000000000000000000000000000000000000000000000000815260040161288a9190614bd7565b60405180910390fd5b5f73ffffffffffffffffffffffffffffffffffffffff168173ffffffffffffffffffffffffffffffffffffffff16036128f8576040517fdc676cab00000000000000000000000000000000000000000000000000000000815260040160405180910390fd5b805f806101000a81548173ffffffffffffffffffffffffffffffffffffffff021916908373ffffffffffffffffffffffffffffffffffffffff1602179055507fae0b51d5743004c7c8d5baf4068214f299f2b88b9fc91758454d5ac7d69c9491816040516129669190614bd7565b60405180910390a150565b5f600354905090565b5f8054906101000a900473ffffffffffffffffffffffffffffffffffffffff1681565b60025f9054906101000a900473ffffffffffffffffffffffffffffffffffffffff1673ffffffffffffffffffffffffffffffffffffffff163373ffffffffffffffffffffffffffffffffffffffff1614612a2e57336040517f65823a20000000000000000000000000000000000000000000000000000000008152600401612a259190614bd7565b60405180910390fd5b60015f9054906101000a900473ffffffffffffffffffffffffffffffffffffffff1673ffffffffffffffffffffffffffffffffffffffff1663f9f92be4336040518263ffffffff1660e01b8152600401612a889190614bd7565b602060405180830381865afa158015612aa3573d5f803e3d5ffd5b505050506040513d601f19601f82011682018060405250810190612ac7919061544d565b15612afe576040517fe2eb7ad400000000000000000000000000000000000000000000000000000000815260040160405180910390fd5b5f8203612b37576040517fad22439800000000000000000000000000000000000000000000000000000000815260040160405180910390fd5b60065f8581526020019081526020015f20805490508310612b84576040517f4f82a3fd00000000000000000000000000000000000000000000000000000000815260040160405180910390fd5b5f60065f8681526020019081526020015f208481548110612ba857612ba7615606565b5b905f5260205f209060020201905060016009811115612bca57612bc9614e31565b5b816001015f9054906101000a900460ff166009811115612bed57612bec614e31565b5b14612c24576040517f4e19ad4700000000000000000000000000000000000000000000000000000000815260040160405180910390fd5b5f60055f8781526020019081526020015f2090508273ffffffffffffffffffffffffffffffffffffffff16815f015f9054906101000a900473ffffffffffffffffffffffffffffffffffffffff1673ffffffffffffffffffffffffffffffffffffffff1614612cbf576040517f5ea782de00000000000000000000000000000000000000000000000000000000815260040160405180910390fd5b5f612cdc873387856004015f9054906101000a900460ff1661447a565b509050612d0e826001015f9054906101000a900473ffffffffffffffffffffffffffffffffffffffff1633308461474f565b84835f015f828254612d2091906154d8565b925050819055506003836001015f6101000a81548160ff02191690836009811115612d4e57612d4d614e31565b5b0217905550863373ffffffffffffffffffffffffffffffffffffffff167f241588f2f4ebae3791a97d90908f6d8d3087dca163700d057ce90a70070b26c0888888604051612d9e939291906156bc565b60405180910390a350505050505050565b60015f9054906101000a900473ffffffffffffffffffffffffffffffffffffffff1673ffffffffffffffffffffffffffffffffffffffff1663f9f92be4336040518263ffffffff1660e01b8152600401612e099190614bd7565b602060405180830381865afa158015612e24573d5f803e3d5ffd5b505050506040513d601f19601f82011682018060405250810190612e48919061544d565b15612e7f576040517fe2eb7ad400000000000000000000000000000000000000000000000000000000815260040160405180910390fd5b80821115612eb9576040517f4cb4bdb600000000000000000000000000000000000000000000000000000000815260040160405180910390fd5b60065f8481526020019081526020015f20805490508110612f06576040517f40d8540800000000000000000000000000000000000000000000000000000000815260040160405180910390fd5b5f60055f8581526020019081526020015f2090503373ffffffffffffffffffffffffffffffffffffffff16815f015f9054906101000a900473ffffffffffffffffffffffffffffffffffffffff1673ffffffffffffffffffffffffffffffffffffffff1614612fac57336040517f65823a20000000000000000000000000000000000000000000000000000000008152600401612fa39190614bd7565b60405180910390fd5b5f805f808690505b8581116131c8575f60065f8a81526020019081526020015f208281548110612fdf57612fde615606565b5b905f5260205f20906002020190505f815f015414801561303457506003600981111561300e5761300d614e31565b5b816001015f9054906101000a900460ff16600981111561303157613030614e31565b5b14155b801561307557506007600981111561304f5761304e614e31565b5b816001015f9054906101000a900460ff16600981111561307257613071614e31565b5b14155b1561308057506131b5565b5f86600201541180156131075750600760098111156130a2576130a1614e31565b5b8660040160019054906101000a900460ff1660098111156130c6576130c5614e31565b5b148061310657506009808111156130e0576130df614e31565b5b8660040160019054906101000a900460ff16600981111561310457613103614e31565b5b145b5b1561312a57805f0154866002015f82825461312291906154a5565b925050819055505b5f805f61314c8c33865f01548c6004015f9054906101000a900460ff16614799565b9250925092505f845f01819055506004846001015f6101000a81548160ff0219169083600981111561318157613180614e31565b5b0217905550828861319291906154d8565b975081876131a091906154d8565b965080866131ae91906154d8565b9550505050505b80806131c090615532565b915050612fb4565b506131f7846001015f9054906101000a900473ffffffffffffffffffffffffffffffffffffffff163385614608565b5f82118061320457505f81115b1561328a575f60098081111561321d5761321c614e31565b5b8560040160019054906101000a900460ff16600981111561324157613240614e31565b5b1461325757818361325291906154d8565b613259565b825b9050613288856001015f9054906101000a900473ffffffffffffffffffffffffffffffffffffffff1682614649565b505b6132938761492e565b156132c65760048460040160016101000a81548160ff021916908360098111156132c0576132bf614e31565b5b02179055505b863373ffffffffffffffffffffffffffffffffffffffff167fa992668b5ec21a8c71122720bcb9ead116dce9311db649b5a0917e8a5df9e10b88888787876040516133159594939291906156f1565b60405180910390a350505050505050565b60045f9054906101000a900460ff161561336c576040517f29d27b3800000000000000000000000000000000000000000000000000000000815260040160405180910390fd5b5f73ffffffffffffffffffffffffffffffffffffffff168373ffffffffffffffffffffffffffffffffffffffff1614806133d157505f73ffffffffffffffffffffffffffffffffffffffff168273ffffffffffffffffffffffffffffffffffffffff16145b8061340757505f73ffffffffffffffffffffffffffffffffffffffff168173ffffffffffffffffffffffffffffffffffffffff16145b1561343e576040517fdc676cab00000000000000000000000000000000000000000000000000000000815260040160405180910390fd5b8260025f6101000a81548173ffffffffffffffffffffffffffffffffffffffff021916908373ffffffffffffffffffffffffffffffffffffffff160217905550815f806101000a81548173ffffffffffffffffffffffffffffffffffffffff021916908373ffffffffffffffffffffffffffffffffffffffff1602179055508060015f6101000a81548173ffffffffffffffffffffffffffffffffffffffff021916908373ffffffffffffffffffffffffffffffffffffffff160217905550600160045f6101000a81548160ff021916908315150217905550505050565b60015f9054906101000a900473ffffffffffffffffffffffffffffffffffffffff1673ffffffffffffffffffffffffffffffffffffffff1663f9f92be4336040518263ffffffff1660e01b81526004016135769190614bd7565b602060405180830381865afa158015613591573d5f803e3d5ffd5b505050506040513d601f19601f820116820180604052508101906135b5919061544d565b156135ec576040517fe2eb7ad400000000000000000000000000000000000000000000000000000000815260040160405180910390fd5b5f60055f8481526020019081526020015f2090503373ffffffffffffffffffffffffffffffffffffffff16815f015f9054906101000a900473ffffffffffffffffffffffffffffffffffffffff1673ffffffffffffffffffffffffffffffffffffffff161461369257336040517f65823a200000000000000000000000000000000000000000000000000000000081526004016136899190614bd7565b60405180910390fd5b5f60065f8581526020019081526020015f2083815481106136b6576136b5615606565b5b905f5260205f2090600202019050600360098111156136d8576136d7614e31565b5b816001015f9054906101000a900460ff1660098111156136fb576136fa614e31565b5b1415801561373e57506007600981111561371857613717614e31565b5b816001015f9054906101000a900460ff16600981111561373b5761373a614e31565b5b14155b15613775576040517fc57c4a9a00000000000000000000000000000000000000000000000000000000815260040160405180910390fd5b5f815f0154036137b1576040517f6b02ce8f00000000000000000000000000000000000000000000000000000000815260040160405180910390fd5b5f805f6137d38733865f0154886004015f9054906101000a900460ff16614799565b9250925092505f85600201541180156138605750600760098111156137fb576137fa614e31565b5b8560040160019054906101000a900460ff16600981111561381f5761381e614e31565b5b148061385f575060098081111561383957613838614e31565b5b8560040160019054906101000a900460ff16600981111561385d5761385c614e31565b5b145b5b1561388357835f0154856002015f82825461387b91906154a5565b925050819055505b5f845f01819055506004846001015f6101000a81548160ff021916908360098111156138b2576138b1614e31565b5b02179055506138e5856001015f9054906101000a900473ffffffffffffffffffffffffffffffffffffffff163385614608565b5f8211806138f257505f81115b15613978575f60098081111561390b5761390a614e31565b5b8660040160019054906101000a900460ff16600981111561392f5761392e614e31565b5b1461394557818361394091906154d8565b613947565b825b9050613976866001015f9054906101000a900473ffffffffffffffffffffffffffffffffffffffff1682614649565b505b6139818761492e565b156139b45760048560040160016101000a81548160ff021916908360098111156139ae576139ad614e31565b5b02179055505b863373ffffffffffffffffffffffffffffffffffffffff167f7708755c9b641bf197be5047b04002d2e88fa658c173a351067747eb5dfc568a8886866040516139ff93929190615742565b60405180910390a350505050505050565b60015f9054906101000a900473ffffffffffffffffffffffffffffffffffffffff1673ffffffffffffffffffffffffffffffffffffffff1663f58df7526040518163ffffffff1660e01b8152600401602060405180830381865afa158015613a7a573d5f803e3d5ffd5b505050506040513d601f19601f82011682018060405250810190613a9e91906155db565b73ffffffffffffffffffffffffffffffffffffffff163373ffffffffffffffffffffffffffffffffffffffff1614613b0d57336040517f65823a20000000000000000000000000000000000000000000000000000000008152600401613b049190614bd7565b60405180910390fd5b5f73ffffffffffffffffffffffffffffffffffffffff168173ffffffffffffffffffffffffffffffffffffffff1603613b72576040517fdc676cab00000000000000000000000000000000000000000000000000000000815260040160405180910390fd5b8073ffffffffffffffffffffffffffffffffffffffff1660025f9054906101000a900473ffffffffffffffffffffffffffffffffffffffff1673ffffffffffffffffffffffffffffffffffffffff167f98b29eb9b91620effb197cb3c80c0ecb52300a1c251acaf3361577cf362aafcd60405160405180910390a38060025f6101000a81548173ffffffffffffffffffffffffffffffffffffffff021916908373ffffffffffffffffffffffffffffffffffffffff16021790555050565b5f60055f8481526020019081526020015f20905060056009811115613c5857613c57614e31565b5b8160040160019054906101000a900460ff166009811115613c7c57613c7b614e31565b5b14158015613cc0575060036009811115613c9957613c98614e31565b5b8160040160019054906101000a900460ff166009811115613cbd57613cbc614e31565b5b14155b15613cf7576040517f0ce3dabc00000000000000000000000000000000000000000000000000000000815260040160405180910390fd5b60025f9054906101000a900473ffffffffffffffffffffffffffffffffffffffff1673ffffffffffffffffffffffffffffffffffffffff163373ffffffffffffffffffffffffffffffffffffffff1614158015613da25750805f015f9054906101000a900473ffffffffffffffffffffffffffffffffffffffff1673ffffffffffffffffffffffffffffffffffffffff163373ffffffffffffffffffffffffffffffffffffffff1614155b15613dd9576040517fa409840800000000000000000000000000000000000000000000000000000000815260040160405180910390fd5b60068160040160016101000a81548160ff02191690836009811115613e0157613e00614e31565b5b02179055506006805f8581526020019081526020015f208381548110613e2a57613e29615606565b5b905f5260205f2090600202016001015f6101000a81548160ff02191690836009811115613e5a57613e59614e31565b5b0217905550823373ffffffffffffffffffffffffffffffffffffffff167f5a7e8fc179f9a9e33f9f8011311c26c697f33559984a5ab0e03bc2b9b744e62184604051613ea69190614f49565b60405180910390a3505050565b5f8054906101000a900473ffffffffffffffffffffffffffffffffffffffff1673ffffffffffffffffffffffffffffffffffffffff166324d7806c336040518263ffffffff1660e01b8152600401613f0b9190614bd7565b602060405180830381865afa158015613f26573d5f803e3d5ffd5b505050506040513d601f19601f82011682018060405250810190613f4a919061544d565b613f8b57336040517f65823a20000000000000000000000000000000000000000000000000000000008152600401613f829190614bd7565b60405180910390fd5b5f8303613fc4576040517fad22439800000000000000000000000000000000000000000000000000000000815260040160405180910390fd5b5f60055f8781526020019081526020015f20905060016009811115613fec57613feb614e31565b5b8160040160019054906101000a900460ff1660098111156140105761400f614e31565b5b1415801561405457506003600981111561402d5761402c614e31565b5b8160040160019054906101000a900460ff16600981111561405157614050614e31565b5b14155b801561409657506004600981111561406f5761406e614e31565b5b8160040160019054906101000a900460ff16600981111561409357614092614e31565b5b14155b80156140d757506009808111156140b0576140af614e31565b5b8160040160019054906101000a900460ff1660098111156140d4576140d3614e31565b5b14155b1561410e576040517f4e19ad4700000000000000000000000000000000000000000000000000000000815260040160405180910390fd5b8273ffffffffffffffffffffffffffffffffffffffff16815f015f9054906101000a900473ffffffffffffffffffffffffffffffffffffffff1673ffffffffffffffffffffffffffffffffffffffff1614614195576040517f5ea782de00000000000000000000000000000000000000000000000000000000815260040160405180910390fd5b60065f8781526020019081526020015f2080549050851061428a578115614257575f60405180604001604052805f81526020015f60098111156141db576141da614e31565b5b815250905060065f8881526020019081526020015f2081908060018154018082558091505060019003905f5260205f2090600202015f909190919091505f820151815f01556020820151816001015f6101000a81548160ff0219169083600981111561424a57614249614e31565b5b0217905550505050614289565b6040517f4f82a3fd00000000000000000000000000000000000000000000000000000000815260040160405180910390fd5b5b5f60065f8881526020019081526020015f2086815481106142ae576142ad615606565b5b905f5260205f209060020201905084826002015410156142f3578160020154815f015f8282546142de91906154d8565b925050819055505f8260020181905550614327565b84826002015f82825461430691906154a5565b9250508190555084815f015f82825461431f91906154d8565b925050819055505b6003816001015f6101000a81548160ff0219169083600981111561434e5761434d614e31565b5b0217905550863373ffffffffffffffffffffffffffffffffffffffff167f241588f2f4ebae3791a97d90908f6d8d3087dca163700d057ce90a70070b26c088888860405161439e939291906156bc565b60405180910390a350505050505050565b5f806143ba856149dc565b90505f3373ffffffffffffffffffffffffffffffffffffffff163b111561443157614429338286868080601f0160208091040260200160405190810160405280939291908181526020018383808284375f81840152601f19601f82011690508083019250505050505050614a0c565b915050614473565b5f61443d828686614b2b565b90503373ffffffffffffffffffffffffffffffffffffffff168173ffffffffffffffffffffffffffffffffffffffff1614925050505b9392505050565b5f805f60015f9054906101000a900473ffffffffffffffffffffffffffffffffffffffff1673ffffffffffffffffffffffffffffffffffffffff1663d0fb02036040518163ffffffff1660e01b8152600401602060405180830381865afa1580156144e7573d5f803e3d5ffd5b505050506040513d601f19601f8201168201806040525081019061450b91906155db565b90505f73ffffffffffffffffffffffffffffffffffffffff168173ffffffffffffffffffffffffffffffffffffffff1603614572576040517f63c7cb9a00000000000000000000000000000000000000000000000000000000815260040160405180910390fd5b5f8190508073ffffffffffffffffffffffffffffffffffffffff166379c9fe44308a8a8a8a6040518663ffffffff1660e01b81526004016145b7959493929190615777565b6040805180830381865afa1580156145d1573d5f803e3d5ffd5b505050506040513d601f19601f820116820180604052508101906145f591906157dc565b8094508195505050505094509492505050565b60405163a9059cbb5f52826020528160405260205f6044601c5f885af13d1560015f5114171661463f576390b8ec185f526004601cfd5b8060405250505050565b5f60015f9054906101000a900473ffffffffffffffffffffffffffffffffffffffff1673ffffffffffffffffffffffffffffffffffffffff166361d027b36040518163ffffffff1660e01b8152600401602060405180830381865afa1580156146b4573d5f803e3d5ffd5b505050506040513d601f19601f820116820180604052508101906146d891906155db565b90505f73ffffffffffffffffffffffffffffffffffffffff168173ffffffffffffffffffffffffffffffffffffffff160361473f576040517fdc676cab00000000000000000000000000000000000000000000000000000000815260040160405180910390fd5b61474a838284614608565b505050565b6040516323b872dd5f5283602052826040528160605260205f6064601c5f895af13d1560015f5114171661478a57637939f4245f526004601cfd5b5f606052806040525050505050565b5f805f8060015f9054906101000a900473ffffffffffffffffffffffffffffffffffffffff1673ffffffffffffffffffffffffffffffffffffffff1663d0fb02036040518163ffffffff1660e01b8152600401602060405180830381865afa158015614807573d5f803e3d5ffd5b505050506040513d601f19601f8201168201806040525081019061482b91906155db565b90505f73ffffffffffffffffffffffffffffffffffffffff168173ffffffffffffffffffffffffffffffffffffffff1603614892576040517f63c7cb9a00000000000000000000000000000000000000000000000000000000815260040160405180910390fd5b5f8190508073ffffffffffffffffffffffffffffffffffffffff16635c5a62f3308b8b8b8b6040518663ffffffff1660e01b81526004016148d7959493929190615777565b606060405180830381865afa1580156148f2573d5f803e3d5ffd5b505050506040513d601f19601f82011682018060405250810190614916919061581a565b80955081965082975050505050509450945094915050565b5f8060065f8481526020019081526020015f208054905090505f5b818110156149d0576004600981111561496557614964614e31565b5b60065f8681526020019081526020015f20828154811061498857614987615606565b5b905f5260205f2090600202016001015f9054906101000a900460ff1660098111156149b6576149b5614e31565b5b146149c5575f925050506149d7565b806001019050614949565b5060019150505b919050565b5f816020527b19457468657265756d205369676e6564204d6573736167653a0a33325f52603c6004209050919050565b5f805f8573ffffffffffffffffffffffffffffffffffffffff168585604051602401614a399291906158e9565b604051602081830303815290604052631626ba7e60e01b6020820180517bffffffffffffffffffffffffffffffffffffffffffffffffffffffff8381831617835250505050604051614a8b9190615951565b5f60405180830381855afa9150503d805f8114614ac3576040519150601f19603f3d011682016040523d82523d5f602084013e614ac8565b606091505b5091509150818015614adc57506020815110155b8015614b205750631626ba7e60e01b7bffffffffffffffffffffffffffffffffffffffffffffffffffffffff191681806020019051810190614b1e919061597b565b145b925050509392505050565b5f60418203614b91576040516040846040377f7fffffffffffffffffffffffffffffff5d576e7357a4501ddfe92f46681b20a060605111614b8b57845f5260408401355f1a6020526020604060805f60015afa505f6060523d6060035191505b80604052505b9392505050565b5f73ffffffffffffffffffffffffffffffffffffffff82169050919050565b5f614bc182614b98565b9050919050565b614bd181614bb7565b82525050565b5f602082019050614bea5f830184614bc8565b92915050565b5f8115159050919050565b614c0481614bf0565b82525050565b5f602082019050614c1d5f830184614bfb565b92915050565b5f80fd5b5f80fd5b5f819050919050565b614c3d81614c2b565b8114614c47575f80fd5b50565b5f81359050614c5881614c34565b92915050565b5f80fd5b5f80fd5b5f80fd5b5f8083601f840112614c7f57614c7e614c5e565b5b8235905067ffffffffffffffff811115614c9c57614c9b614c62565b5b602083019150836001820283011115614cb857614cb7614c66565b5b9250929050565b5f805f60408486031215614cd657614cd5614c23565b5b5f614ce386828701614c4a565b935050602084013567ffffffffffffffff811115614d0457614d03614c27565b5b614d1086828701614c6a565b92509250509250925092565b5f7fffffffff0000000000000000000000000000000000000000000000000000000082169050919050565b614d5081614d1c565b82525050565b5f602082019050614d695f830184614d47565b92915050565b614d7881614bb7565b8114614d82575f80fd5b50565b5f81359050614d9381614d6f565b92915050565b5f60208284031215614dae57614dad614c23565b5b5f614dbb84828501614d85565b91505092915050565b5f819050919050565b614dd681614dc4565b8114614de0575f80fd5b50565b5f81359050614df181614dcd565b92915050565b5f60208284031215614e0c57614e0b614c23565b5b5f614e1984828501614de3565b91505092915050565b614e2b81614dc4565b82525050565b7f4e487b71000000000000000000000000000000000000000000000000000000005f52602160045260245ffd5b60058110614e6f57614e6e614e31565b5b50565b5f819050614e7f82614e5e565b919050565b5f614e8e82614e72565b9050919050565b614e9e81614e84565b82525050565b600a8110614eb557614eb4614e31565b5b50565b5f819050614ec582614ea4565b919050565b5f614ed482614eb8565b9050919050565b614ee481614eca565b82525050565b5f60c082019050614efd5f830189614bc8565b614f0a6020830188614bc8565b614f176040830187614e22565b614f246060830186614e22565b614f316080830185614e95565b614f3e60a0830184614edb565b979650505050505050565b5f602082019050614f5c5f830184614e22565b92915050565b5f80fd5b5f60a08284031215614f7b57614f7a614f62565b5b81905092915050565b5f8060c08385031215614f9a57614f99614c23565b5b5f614fa785828601614de3565b9250506020614fb885828601614f66565b9150509250929050565b5f8060408385031215614fd857614fd7614c23565b5b5f614fe585828601614de3565b9250506020614ff685828601614d85565b9150509250929050565b5f819050919050565b5f61502361501e61501984614b98565b615000565b614b98565b9050919050565b5f61503482615009565b9050919050565b5f6150458261502a565b9050919050565b6150558161503b565b82525050565b5f60208201905061506e5f83018461504c565b92915050565b60048110615080575f80fd5b50565b5f8135905061509181615074565b92915050565b5f805f805f60a086880312156150b0576150af614c23565b5b5f6150bd88828901614de3565b95505060206150ce88828901614de3565b94505060406150df88828901615083565b93505060606150f088828901614de3565b925050608061510188828901614de3565b9150509295509295909350565b6002811061511a575f80fd5b50565b5f8135905061512b8161510e565b92915050565b5f805f806080858703121561514957615148614c23565b5b5f61515687828801614de3565b945050602061516787828801614de3565b935050604061517887828801614de3565b92505060606151898782880161511d565b91505092959194509250565b600a81106151a1575f80fd5b50565b5f813590506151b281615195565b92915050565b5f80604083850312156151ce576151cd614c23565b5b5f6151db85828601614de3565b92505060206151ec858286016151a4565b9150509250929050565b5f806040838503121561520c5761520b614c23565b5b5f61521985828601614de3565b925050602061522a85828601614de3565b9150509250929050565b5f6040820190506152475f830185614e22565b6152546020830184614edb565b9392505050565b5f6152658261502a565b9050919050565b6152758161525b565b82525050565b5f60208201905061528e5f83018461526c565b92915050565b5f805f80608085870312156152ac576152ab614c23565b5b5f6152b987828801614de3565b94505060206152ca87828801614de3565b93505060406152db87828801614de3565b92505060606152ec87828801614d85565b91505092959194509250565b5f805f6060848603121561530f5761530e614c23565b5b5f61531c86828701614de3565b935050602061532d86828701614de3565b925050604061533e86828701614de3565b9150509250925092565b5f805f6060848603121561535f5761535e614c23565b5b5f61536c86828701614d85565b935050602061537d86828701614d85565b925050604061538e86828701614d85565b9150509250925092565b6153a181614bf0565b81146153ab575f80fd5b50565b5f813590506153bc81615398565b92915050565b5f805f805f60a086880312156153db576153da614c23565b5b5f6153e888828901614de3565b95505060206153f988828901614de3565b945050604061540a88828901614de3565b935050606061541b88828901614d85565b925050608061542c888289016153ae565b9150509295509295909350565b5f8151905061544781615398565b92915050565b5f6020828403121561546257615461614c23565b5b5f61546f84828501615439565b91505092915050565b7f4e487b71000000000000000000000000000000000000000000000000000000005f52601160045260245ffd5b5f6154af82614dc4565b91506154ba83614dc4565b92508282039050818111156154d2576154d1615478565b5b92915050565b5f6154e282614dc4565b91506154ed83614dc4565b925082820190508082111561550557615504615478565b5b92915050565b5f60408201905061551e5f830185614e22565b61552b6020830184614e22565b9392505050565b5f61553c82614dc4565b91507fffffffffffffffffffffffffffffffffffffffffffffffffffffffffffffffff820361556e5761556d615478565b5b600182019050919050565b60058110615585575f80fd5b50565b5f8135905061559681615579565b92915050565b5f602082840312156155b1576155b0614c23565b5b5f6155be84828501615588565b91505092915050565b5f815190506155d581614d6f565b92915050565b5f602082840312156155f0576155ef614c23565b5b5f6155fd848285016155c7565b91505092915050565b7f4e487b71000000000000000000000000000000000000000000000000000000005f52603260045260245ffd5b6004811061564457615643614e31565b5b50565b5f81905061565482615633565b919050565b5f61566382615647565b9050919050565b61567381615659565b82525050565b5f60808201905061568c5f830187614e22565b615699602083018661566a565b6156a66040830185614e22565b6156b36060830184614e22565b95945050505050565b5f6060820190506156cf5f830186614e22565b6156dc6020830185614e22565b6156e96040830184614bc8565b949350505050565b5f60a0820190506157045f830188614e22565b6157116020830187614e22565b61571e6040830186614e22565b61572b6060830185614e22565b6157386080830184614e22565b9695505050505050565b5f6060820190506157555f830186614e22565b6157626020830185614e22565b61576f6040830184614e22565b949350505050565b5f60a08201905061578a5f830188614bc8565b6157976020830187614e22565b6157a46040830186614bc8565b6157b16060830185614e22565b6157be6080830184614e95565b9695505050505050565b5f815190506157d681614dcd565b92915050565b5f80604083850312156157f2576157f1614c23565b5b5f6157ff858286016157c8565b9250506020615810858286016157c8565b9150509250929050565b5f805f6060848603121561583157615830614c23565b5b5f61583e868287016157c8565b935050602061584f868287016157c8565b9250506040615860868287016157c8565b9150509250925092565b61587381614c2b565b82525050565b5f81519050919050565b5f82825260208201905092915050565b8281835e5f83830152505050565b5f601f19601f8301169050919050565b5f6158bb82615879565b6158c58185615883565b93506158d5818560208601615893565b6158de816158a1565b840191505092915050565b5f6040820190506158fc5f83018561586a565b818103602083015261590e81846158b1565b90509392505050565b5f81905092915050565b5f61592b82615879565b6159358185615917565b9350615945818560208601615893565b80840191505092915050565b5f61595c8284615921565b915081905092915050565b5f8151905061597581614c34565b92915050565b5f602082840312156159905761598f614c23565b5b5f61599d84828501615967565b9150509291505056fea2646970667358221220362d1cbfbb697f748cd6c62b2013b23446c47e36ff43a4c569b3389b0ea1ebd064736f6c63430008190033","linkReferences":{}},"methodIdentifiers":{"adminApprove(uint256,uint256,uint256,address,bool)":"fa6c61e7","adminManager()":"a210b6a4","approve(uint256,uint256,uint256,address)":"a60429c9","approveReturn(uint256)":"5a3c88ea","cancelReturn(uint256,uint8)":"8588ea3d","claim(uint256,uint256)":"c3490263","claimAll(uint256,uint256,uint256)":"acd471c4","client()":"109e94cf","contractDetails(uint256)":"3330a55f","createDispute(uint256,uint256)":"f26999cd","deposit(uint256,(address,address,uint256,uint256,uint8))":"6a33e558","getCurrentContractId()":"99c4b24c","getWeeksCount(uint256)":"3c4979c4","initialize(address,address,address)":"c0c53b8b","initialized()":"158ef93e","isValidSignature(bytes32,bytes)":"1626ba7e","refill(uint256,uint256,uint256,uint8)":"7f82c613","registry()":"7b103999","requestReturn(uint256)":"58676582","resolveDispute(uint256,uint256,uint8,uint256,uint256)":"7df8ff5f","transferClientOwnership(address)":"cce3de81","transferContractorOwnership(uint256,address)":"6d079469","updateAdminManager(address)":"8c62e594","updateRegistry(address)":"1a5da6c8","weeklyEntries(uint256,uint256)":"8a843d49","withdraw(uint256)":"2e1a7d4d"},"id":55}