{"abi":[{"type":"constructor","inputs":[{"name":"_coverage","type":"uint16","internalType":"uint16"},{"name":"_claim","type":"uint16","internalType":"uint16"},{"name":"_owner","type":"address","internalType":"address"}],"stateMutability":"nonpayable"},{"type":"function","name":"MAX_BPS","inputs":[],"outputs":[{"name":"","type":"uint256","internalType":"uint256"}],"stateMutability":"view"},{"type":"function","name":"computeClaimableAmountAndFee","inputs":[{"name":"_instance","type":"address","internalType":"address"},{"name":"_contractId","type":"uint256","internalType":"uint256"},{"name":"_contractor","type":"address","internalType":"address"},{"name":"_claimedAmount","type":"uint256","internalType":"uint256"},{"name":"_feeConfig","type":"uint8","internalType":"enum Enums.FeeConfig"}],"outputs":[{"name":"claimableAmount","type":"uint256","internalType":"uint256"},{"name":"feeDeducted","type":"uint256","internalType":"uint256"},{"name":"clientFee","type":"uint256","internalType":"uint256"}],"stateMutability":"view"},{"type":"function","name":"computeDepositAmountAndFee","inputs":[{"name":"_instance","type":"address","internalType":"address"},{"name":"_contractId","type":"uint256","internalType":"uint256"},{"name":"_client","type":"address","internalType":"address"},{"name":"_depositAmount","type":"uint256","internalType":"uint256"},{"name":"_feeConfig","type":"uint8","internalType":"enum Enums.FeeConfig"}],"outputs":[{"name":"totalDepositAmount","type":"uint256","internalType":"uint256"},{"name":"feeApplied","type":"uint256","internalType":"uint256"}],"stateMutability":"view"},{"type":"function","name":"confirmOwner","inputs":[],"outputs":[],"stateMutability":"payable"},{"type":"function","name":"contractSpecificFees","inputs":[{"name":"instance","type":"address","internalType":"address"},{"name":"contractId","type":"uint256","internalType":"uint256"}],"outputs":[{"name":"coverage","type":"uint16","internalType":"uint16"},{"name":"claim","type":"uint16","internalType":"uint16"}],"stateMutability":"view"},{"type":"function","name":"defaultFees","inputs":[],"outputs":[{"name":"coverage","type":"uint16","internalType":"uint16"},{"name":"claim","type":"uint16","internalType":"uint16"}],"stateMutability":"view"},{"type":"function","name":"getApplicableFees","inputs":[{"name":"_instance","type":"address","internalType":"address"},{"name":"_contractId","type":"uint256","internalType":"uint256"},{"name":"_user","type":"address","internalType":"address"}],"outputs":[{"name":"","type":"tuple","internalType":"struct IEscrowFeeManager.FeeRates","components":[{"name":"coverage","type":"uint16","internalType":"uint16"},{"name":"claim","type":"uint16","internalType":"uint16"}]}],"stateMutability":"view"},{"type":"function","name":"instanceFees","inputs":[{"name":"instance","type":"address","internalType":"address"}],"outputs":[{"name":"coverage","type":"uint16","internalType":"uint16"},{"name":"claim","type":"uint16","internalType":"uint16"}],"stateMutability":"view"},{"type":"function","name":"owner","inputs":[],"outputs":[{"name":"","type":"address","internalType":"address"}],"stateMutability":"view"},{"type":"function","name":"renounceOwner","inputs":[],"outputs":[],"stateMutability":"payable"},{"type":"function","name":"resetAllToDefault","inputs":[{"name":"_instance","type":"address","internalType":"address"},{"name":"_contractId","type":"uint256","internalType":"uint256"},{"name":"_user","type":"address","internalType":"address"}],"outputs":[],"stateMutability":"nonpayable"},{"type":"function","name":"resetContractSpecificFees","inputs":[{"name":"_instance","type":"address","internalType":"address"},{"name":"_contractId","type":"uint256","internalType":"uint256"}],"outputs":[],"stateMutability":"nonpayable"},{"type":"function","name":"resetInstanceSpecificFees","inputs":[{"name":"_instance","type":"address","internalType":"address"}],"outputs":[],"stateMutability":"nonpayable"},{"type":"function","name":"resetUserSpecificFees","inputs":[{"name":"_user","type":"address","internalType":"address"}],"outputs":[],"stateMutability":"nonpayable"},{"type":"function","name":"setContractSpecificFees","inputs":[{"name":"_instance","type":"address","internalType":"address"},{"name":"_contractId","type":"uint256","internalType":"uint256"},{"name":"_coverage","type":"uint16","internalType":"uint16"},{"name":"_claim","type":"uint16","internalType":"uint16"}],"outputs":[],"stateMutability":"nonpayable"},{"type":"function","name":"setDefaultFees","inputs":[{"name":"_coverage","type":"uint16","internalType":"uint16"},{"name":"_claim","type":"uint16","internalType":"uint16"}],"outputs":[],"stateMutability":"nonpayable"},{"type":"function","name":"setInstanceFees","inputs":[{"name":"_instance","type":"address","internalType":"address"},{"name":"_coverage","type":"uint16","internalType":"uint16"},{"name":"_claim","type":"uint16","internalType":"uint16"}],"outputs":[],"stateMutability":"nonpayable"},{"type":"function","name":"setUserSpecificFees","inputs":[{"name":"_user","type":"address","internalType":"address"},{"name":"_coverage","type":"uint16","internalType":"uint16"},{"name":"_claim","type":"uint16","internalType":"uint16"}],"outputs":[],"stateMutability":"nonpayable"},{"type":"function","name":"transferOwnership","inputs":[{"name":"newOwner","type":"address","internalType":"address"}],"outputs":[],"stateMutability":"payable"},{"type":"function","name":"userSpecificFees","inputs":[{"name":"user","type":"address","internalType":"address"}],"outputs":[{"name":"coverage","type":"uint16","internalType":"uint16"},{"name":"claim","type":"uint16","internalType":"uint16"}],"stateMutability":"view"},{"type":"event","name":"ContractSpecificFeesReset","inputs":[{"name":"instance","type":"address","indexed":true,"internalType":"address"},{"name":"contractId","type":"uint256","indexed":true,"internalType":"uint256"}],"anonymous":false},{"type":"event","name":"ContractSpecificFeesSet","inputs":[{"name":"instance","type":"address","indexed":true,"internalType":"address"},{"name":"contractId","type":"uint256","indexed":true,"internalType":"uint256"},{"name":"coverage","type":"uint16","indexed":false,"internalType":"uint16"},{"name":"claim","type":"uint16","indexed":false,"internalType":"uint16"}],"anonymous":false},{"type":"event","name":"DefaultFeesSet","inputs":[{"name":"coverage","type":"uint16","indexed":false,"internalType":"uint16"},{"name":"claim","type":"uint16","indexed":false,"internalType":"uint16"}],"anonymous":false},{"type":"event","name":"InstanceFeesSet","inputs":[{"name":"instance","type":"address","indexed":true,"internalType":"address"},{"name":"coverage","type":"uint16","indexed":false,"internalType":"uint16"},{"name":"claim","type":"uint16","indexed":false,"internalType":"uint16"}],"anonymous":false},{"type":"event","name":"InstanceSpecificFeesReset","inputs":[{"name":"instance","type":"address","indexed":true,"internalType":"address"}],"anonymous":false},{"type":"event","name":"OwnerUpdateInitiated","inputs":[{"name":"user","type":"address","indexed":true,"internalType":"address"},{"name":"ownerCandidate","type":"address","indexed":true,"internalType":"address"}],"anonymous":false},{"type":"event","name":"OwnershipTransferred","inputs":[{"name":"user","type":"address","indexed":true,"internalType":"address"},{"name":"newOwner","type":"address","indexed":true,"internalType":"address"}],"anonymous":false},{"type":"event","name":"UserSpecificFeesReset","inputs":[{"name":"user","type":"address","indexed":true,"internalType":"address"}],"anonymous":false},{"type":"event","name":"UserSpecificFeesSet","inputs":[{"name":"user","type":"address","indexed":true,"internalType":"address"},{"name":"coverage","type":"uint16","indexed":false,"internalType":"uint16"},{"name":"claim","type":"uint16","indexed":false,"internalType":"uint16"}],"anonymous":false},{"type":"error","name":"EscrowFeeManager__FeeTooHigh","inputs":[]},{"type":"error","name":"EscrowFeeManager__UnsupportedFeeConfiguration","inputs":[]},{"type":"error","name":"EscrowFeeManager__ZeroAddressProvided","inputs":[]},{"type":"error","name":"Unauthorized","inputs":[]}],"bytecode":{"object":"0x608060405234801561000f575f80fd5b506040516126f63803806126f68339818101604052810190610031919061026a565b80805f806101000a81548173ffffffffffffffffffffffffffffffffffffffff021916908373ffffffffffffffffffffffffffffffffffffffff1602179055508073ffffffffffffffffffffffffffffffffffffffff165f73ffffffffffffffffffffffffffffffffffffffff167f8be0079c531659141344cd1fd0a4f28419497f9722a3daafe3b4186f6b6457e060405160405180910390a3506100dc83836100e460201b60201c565b5050506102f0565b6127108261ffff1611806100fd57506127108161ffff16115b15610134576040517f61c1195d00000000000000000000000000000000000000000000000000000000815260040160405180910390fd5b60405180604001604052808361ffff1681526020018261ffff1681525060025f820151815f015f6101000a81548161ffff021916908361ffff1602179055506020820151815f0160026101000a81548161ffff021916908361ffff1602179055509050507f032e5ddfa9f9a5b4eb50dd03b7d24478d00b76b0c0eb7224d375a24b5ab6522b82826040516101c99291906102c9565b60405180910390a15050565b5f80fd5b5f61ffff82169050919050565b6101ef816101d9565b81146101f9575f80fd5b50565b5f8151905061020a816101e6565b92915050565b5f73ffffffffffffffffffffffffffffffffffffffff82169050919050565b5f61023982610210565b9050919050565b6102498161022f565b8114610253575f80fd5b50565b5f8151905061026481610240565b92915050565b5f805f60608486031215610281576102806101d5565b5b5f61028e868287016101fc565b935050602061029f868287016101fc565b92505060406102b086828701610256565b9150509250925092565b6102c3816101d9565b82525050565b5f6040820190506102dc5f8301856102ba565b6102e960208301846102ba565b9392505050565b6123f9806102fd5f395ff3fe60806040526004361061011e575f3560e01c80638da5cb5b1161009f578063d11da9eb11610063578063d11da9eb146103c1578063f2fde38b146103e9578063f3b2cd4e14610405578063fcd2ce461461042d578063fd967f47146104555761011e565b80638da5cb5b146102eb578063935e9e8e14610315578063a9d5f34614610352578063b0a8b8991461037a578063bd9b6d86146103b75761011e565b806344ee781a116100e657806344ee781a146101f85780634d1b0857146102205780635a490388146102485780635c5a62f31461027057806379c9fe44146102ae5761011e565b806301999b3614610122578063118b48e51461015e57806320c559d51461018957806328c23a45146101c657806329413e43146101d0575b5f80fd5b34801561012d575f80fd5b5061014860048036038101906101439190611e7d565b61047f565b6040516101559190611f16565b60405180910390f35b348015610169575f80fd5b5061017261049b565b604051610180929190611f3e565b60405180910390f35b348015610194575f80fd5b506101af60048036038101906101aa9190611f65565b6104c6565b6040516101bd929190611f3e565b60405180910390f35b6101ce610500565b005b3480156101db575f80fd5b506101f660048036038101906101f19190611f65565b610603565b005b348015610203575f80fd5b5061021e60048036038101906102199190611fba565b610734565b005b34801561022b575f80fd5b506102466004803603810190610241919061201e565b610972565b005b348015610253575f80fd5b5061026e6004803603810190610269919061206e565b610b9f565b005b34801561027b575f80fd5b50610296600480360381019061029191906120cf565b610ce1565b6040516102a593929190612155565b60405180910390f35b3480156102b9575f80fd5b506102d460048036038101906102cf91906120cf565b610ebd565b6040516102e292919061218a565b60405180910390f35b3480156102f6575f80fd5b506102ff611013565b60405161030c91906121c0565b60405180910390f35b348015610320575f80fd5b5061033b60048036038101906103369190611f65565b611036565b604051610349929190611f3e565b60405180910390f35b34801561035d575f80fd5b5061037860048036038101906103739190611f65565b611070565b005b348015610385575f80fd5b506103a0600480360381019061039b919061206e565b6111a1565b6040516103ae929190611f3e565b60405180910390f35b6103bf6111e6565b005b3480156103cc575f80fd5b506103e760048036038101906103e29190611e7d565b6113f8565b005b61040360048036038101906103fe9190611f65565b61168f565b005b348015610410575f80fd5b5061042b6004803603810190610426919061201e565b6117b0565b005b348015610438575f80fd5b50610453600480360381019061044e91906121d9565b6119dd565b005b348015610460575f80fd5b50610469611a6f565b6040516104769190612217565b60405180910390f35b610487611dcc565b610492848484611a75565b90509392505050565b6002805f015f9054906101000a900461ffff1690805f0160029054906101000a900461ffff16905082565b6003602052805f5260405f205f91509050805f015f9054906101000a900461ffff1690805f0160029054906101000a900461ffff16905082565b5f8054906101000a900473ffffffffffffffffffffffffffffffffffffffff1673ffffffffffffffffffffffffffffffffffffffff163373ffffffffffffffffffffffffffffffffffffffff1614610584576040517f82b4290000000000000000000000000000000000000000000000000000000000815260040160405180910390fd5b5f806101000a81549073ffffffffffffffffffffffffffffffffffffffff02191690555f73ffffffffffffffffffffffffffffffffffffffff163373ffffffffffffffffffffffffffffffffffffffff167f8be0079c531659141344cd1fd0a4f28419497f9722a3daafe3b4186f6b6457e060405160405180910390a3565b5f8054906101000a900473ffffffffffffffffffffffffffffffffffffffff1673ffffffffffffffffffffffffffffffffffffffff163373ffffffffffffffffffffffffffffffffffffffff1614610687576040517f82b4290000000000000000000000000000000000000000000000000000000000815260040160405180910390fd5b60035f8273ffffffffffffffffffffffffffffffffffffffff1673ffffffffffffffffffffffffffffffffffffffff1681526020019081526020015f205f8082015f6101000a81549061ffff02191690555f820160026101000a81549061ffff021916905550508073ffffffffffffffffffffffffffffffffffffffff167fde8ad9d5abc3d2b73a26ee68778fabf8407b5832630eefa00a64e7f25d6cb53560405160405180910390a250565b5f8054906101000a900473ffffffffffffffffffffffffffffffffffffffff1673ffffffffffffffffffffffffffffffffffffffff163373ffffffffffffffffffffffffffffffffffffffff16146107b8576040517f82b4290000000000000000000000000000000000000000000000000000000000815260040160405180910390fd5b6127108261ffff1611806107d157506127108161ffff16115b15610808576040517f61c1195d00000000000000000000000000000000000000000000000000000000815260040160405180910390fd5b5f73ffffffffffffffffffffffffffffffffffffffff168473ffffffffffffffffffffffffffffffffffffffff160361086d576040517f0ea7a1eb00000000000000000000000000000000000000000000000000000000815260040160405180910390fd5b60405180604001604052808361ffff1681526020018261ffff1681525060055f8673ffffffffffffffffffffffffffffffffffffffff1673ffffffffffffffffffffffffffffffffffffffff1681526020019081526020015f205f8581526020019081526020015f205f820151815f015f6101000a81548161ffff021916908361ffff1602179055506020820151815f0160026101000a81548161ffff021916908361ffff160217905550905050828473ffffffffffffffffffffffffffffffffffffffff167ff5d1f5db04ae3338712d82b885bdbda3f0a065cd77f336c9714180ae5a88df318484604051610964929190611f3e565b60405180910390a350505050565b5f8054906101000a900473ffffffffffffffffffffffffffffffffffffffff1673ffffffffffffffffffffffffffffffffffffffff163373ffffffffffffffffffffffffffffffffffffffff16146109f6576040517f82b4290000000000000000000000000000000000000000000000000000000000815260040160405180910390fd5b6127108261ffff161180610a0f57506127108161ffff16115b15610a46576040517f61c1195d00000000000000000000000000000000000000000000000000000000815260040160405180910390fd5b5f73ffffffffffffffffffffffffffffffffffffffff168373ffffffffffffffffffffffffffffffffffffffff1603610aab576040517f0ea7a1eb00000000000000000000000000000000000000000000000000000000815260040160405180910390fd5b60405180604001604052808361ffff1681526020018261ffff1681525060035f8573ffffffffffffffffffffffffffffffffffffffff1673ffffffffffffffffffffffffffffffffffffffff1681526020019081526020015f205f820151815f015f6101000a81548161ffff021916908361ffff1602179055506020820151815f0160026101000a81548161ffff021916908361ffff1602179055509050508273ffffffffffffffffffffffffffffffffffffffff167fed6f30098548990116844acae3f34a77202fd0d5f67710cf7dbed2577b5149168383604051610b92929190611f3e565b60405180910390a2505050565b5f8054906101000a900473ffffffffffffffffffffffffffffffffffffffff1673ffffffffffffffffffffffffffffffffffffffff163373ffffffffffffffffffffffffffffffffffffffff1614610c23576040517f82b4290000000000000000000000000000000000000000000000000000000000815260040160405180910390fd5b60055f8373ffffffffffffffffffffffffffffffffffffffff1673ffffffffffffffffffffffffffffffffffffffff1681526020019081526020015f205f8281526020019081526020015f205f8082015f6101000a81549061ffff02191690555f820160026101000a81549061ffff02191690555050808273ffffffffffffffffffffffffffffffffffffffff167fc3377499d2be28e7566d760a8cc4fe2294ff3b0f37456804b1bee804f934b49160405160405180910390a35050565b5f805f80610cf0898989611a75565b90505f6004811115610d0557610d04612230565b5b856004811115610d1857610d17612230565b5b03610d59575f92506127108160200151825f0151610d36919061228a565b61ffff1687610d4591906122bf565b610d4f919061232d565b9150859350610eb1565b60026004811115610d6d57610d6c612230565b5b856004811115610d8057610d7f612230565b5b03610dbe57612710816020015161ffff1687610d9c91906122bf565b610da6919061232d565b92505f91508286610db7919061235d565b9350610eb0565b60016004811115610dd257610dd1612230565b5b856004811115610de557610de4612230565b5b03610e4257612710816020015161ffff1687610e0191906122bf565b610e0b919061232d565b9250612710815f015161ffff1687610e2391906122bf565b610e2d919061232d565b91508286610e3b919061235d565b9350610eaf565b60036004811115610e5657610e55612230565b5b856004811115610e6957610e68612230565b5b03610e7c575f92505f9150859350610eae565b6040517f0ed3d83400000000000000000000000000000000000000000000000000000000815260040160405180910390fd5b5b5b5b50955095509592505050565b5f805f610ecb888888611a75565b90505f6004811115610ee057610edf612230565b5b846004811115610ef357610ef2612230565b5b03610f3c576127108160200151825f0151610f0e919061228a565b61ffff1686610f1d91906122bf565b610f27919061232d565b91508185610f359190612390565b9250611008565b60016004811115610f5057610f4f612230565b5b846004811115610f6357610f62612230565b5b03610f9d57612710815f015161ffff1686610f7e91906122bf565b610f88919061232d565b91508185610f969190612390565b9250611007565b60036004811115610fb157610fb0612230565b5b846004811115610fc457610fc3612230565b5b03610fd4578492505f9150611006565b6040517f0ed3d83400000000000000000000000000000000000000000000000000000000815260040160405180910390fd5b5b5b509550959350505050565b5f8054906101000a900473ffffffffffffffffffffffffffffffffffffffff1681565b6004602052805f5260405f205f91509050805f015f9054906101000a900461ffff1690805f0160029054906101000a900461ffff16905082565b5f8054906101000a900473ffffffffffffffffffffffffffffffffffffffff1673ffffffffffffffffffffffffffffffffffffffff163373ffffffffffffffffffffffffffffffffffffffff16146110f4576040517f82b4290000000000000000000000000000000000000000000000000000000000815260040160405180910390fd5b60045f8273ffffffffffffffffffffffffffffffffffffffff1673ffffffffffffffffffffffffffffffffffffffff1681526020019081526020015f205f8082015f6101000a81549061ffff02191690555f820160026101000a81549061ffff021916905550508073ffffffffffffffffffffffffffffffffffffffff167f6f858a14168c5744689ba0833d89291e3019b504139ff21de28472eb2c1d48f960405160405180910390a250565b6005602052815f5260405f20602052805f5260405f205f9150915050805f015f9054906101000a900461ffff1690805f0160029054906101000a900461ffff16905082565b600160149054906101000a900460ff1615611355575f8054906101000a900473ffffffffffffffffffffffffffffffffffffffff1673ffffffffffffffffffffffffffffffffffffffff163373ffffffffffffffffffffffffffffffffffffffff161461127f576040517f82b4290000000000000000000000000000000000000000000000000000000000815260040160405180910390fd5b600160146101000a81549060ff02191690555f60015f9054906101000a900473ffffffffffffffffffffffffffffffffffffffff169050805f806101000a81548173ffffffffffffffffffffffffffffffffffffffff021916908373ffffffffffffffffffffffffffffffffffffffff1602179055508073ffffffffffffffffffffffffffffffffffffffff163373ffffffffffffffffffffffffffffffffffffffff167f8be0079c531659141344cd1fd0a4f28419497f9722a3daafe3b4186f6b6457e060405160405180910390a3506113f6565b60015f9054906101000a900473ffffffffffffffffffffffffffffffffffffffff1673ffffffffffffffffffffffffffffffffffffffff163373ffffffffffffffffffffffffffffffffffffffff16146113db576040517f82b4290000000000000000000000000000000000000000000000000000000000815260040160405180910390fd5b60018060146101000a81548160ff0219169083151502179055505b565b5f8054906101000a900473ffffffffffffffffffffffffffffffffffffffff1673ffffffffffffffffffffffffffffffffffffffff163373ffffffffffffffffffffffffffffffffffffffff161461147c576040517f82b4290000000000000000000000000000000000000000000000000000000000815260040160405180910390fd5b60055f8473ffffffffffffffffffffffffffffffffffffffff1673ffffffffffffffffffffffffffffffffffffffff1681526020019081526020015f205f8381526020019081526020015f205f8082015f6101000a81549061ffff02191690555f820160026101000a81549061ffff0219169055505060045f8473ffffffffffffffffffffffffffffffffffffffff1673ffffffffffffffffffffffffffffffffffffffff1681526020019081526020015f205f8082015f6101000a81549061ffff02191690555f820160026101000a81549061ffff0219169055505060035f8273ffffffffffffffffffffffffffffffffffffffff1673ffffffffffffffffffffffffffffffffffffffff1681526020019081526020015f205f8082015f6101000a81549061ffff02191690555f820160026101000a81549061ffff02191690555050818373ffffffffffffffffffffffffffffffffffffffff167fc3377499d2be28e7566d760a8cc4fe2294ff3b0f37456804b1bee804f934b49160405160405180910390a38273ffffffffffffffffffffffffffffffffffffffff167f6f858a14168c5744689ba0833d89291e3019b504139ff21de28472eb2c1d48f960405160405180910390a28073ffffffffffffffffffffffffffffffffffffffff167fde8ad9d5abc3d2b73a26ee68778fabf8407b5832630eefa00a64e7f25d6cb53560405160405180910390a2505050565b5f8054906101000a900473ffffffffffffffffffffffffffffffffffffffff1673ffffffffffffffffffffffffffffffffffffffff163373ffffffffffffffffffffffffffffffffffffffff1614611713576040517f82b4290000000000000000000000000000000000000000000000000000000000815260040160405180910390fd5b8060015f6101000a81548173ffffffffffffffffffffffffffffffffffffffff021916908373ffffffffffffffffffffffffffffffffffffffff1602179055508073ffffffffffffffffffffffffffffffffffffffff163373ffffffffffffffffffffffffffffffffffffffff167f365e8eca24e61548e99db9d948e4f9cf79224bcbf4fc81afe651e6e80921c87560405160405180910390a350565b5f8054906101000a900473ffffffffffffffffffffffffffffffffffffffff1673ffffffffffffffffffffffffffffffffffffffff163373ffffffffffffffffffffffffffffffffffffffff1614611834576040517f82b4290000000000000000000000000000000000000000000000000000000000815260040160405180910390fd5b6127108261ffff16118061184d57506127108161ffff16115b15611884576040517f61c1195d00000000000000000000000000000000000000000000000000000000815260040160405180910390fd5b5f73ffffffffffffffffffffffffffffffffffffffff168373ffffffffffffffffffffffffffffffffffffffff16036118e9576040517f0ea7a1eb00000000000000000000000000000000000000000000000000000000815260040160405180910390fd5b60405180604001604052808361ffff1681526020018261ffff1681525060045f8573ffffffffffffffffffffffffffffffffffffffff1673ffffffffffffffffffffffffffffffffffffffff1681526020019081526020015f205f820151815f015f6101000a81548161ffff021916908361ffff1602179055506020820151815f0160026101000a81548161ffff021916908361ffff1602179055509050508273ffffffffffffffffffffffffffffffffffffffff167f8d8b7af773615f28c13506165835ca59408dc30706fc9cb028b3923cde13726283836040516119d0929190611f3e565b60405180910390a2505050565b5f8054906101000a900473ffffffffffffffffffffffffffffffffffffffff1673ffffffffffffffffffffffffffffffffffffffff163373ffffffffffffffffffffffffffffffffffffffff1614611a61576040517f82b4290000000000000000000000000000000000000000000000000000000000815260040160405180910390fd5b611a6b8282611cdb565b5050565b61271081565b611a7d611dcc565b60055f8573ffffffffffffffffffffffffffffffffffffffff1673ffffffffffffffffffffffffffffffffffffffff1681526020019081526020015f205f8481526020019081526020015f206040518060400160405290815f82015f9054906101000a900461ffff1661ffff1661ffff1681526020015f820160029054906101000a900461ffff1661ffff1661ffff168152505090505f815f015161ffff16141580611b3157505f816020015161ffff1614155b611cd45760045f8573ffffffffffffffffffffffffffffffffffffffff1673ffffffffffffffffffffffffffffffffffffffff1681526020019081526020015f206040518060400160405290815f82015f9054906101000a900461ffff1661ffff1661ffff1681526020015f820160029054906101000a900461ffff1661ffff1661ffff168152505090505f815f015161ffff16141580611bda57505f816020015161ffff1614155b611cd45760035f8373ffffffffffffffffffffffffffffffffffffffff1673ffffffffffffffffffffffffffffffffffffffff1681526020019081526020015f206040518060400160405290815f82015f9054906101000a900461ffff1661ffff1661ffff1681526020015f820160029054906101000a900461ffff1661ffff1661ffff168152505090505f815f015161ffff16141580611c8357505f816020015161ffff1614155b611cd45760026040518060400160405290815f82015f9054906101000a900461ffff1661ffff1661ffff1681526020015f820160029054906101000a900461ffff1661ffff1661ffff168152505090505b9392505050565b6127108261ffff161180611cf457506127108161ffff16115b15611d2b576040517f61c1195d00000000000000000000000000000000000000000000000000000000815260040160405180910390fd5b60405180604001604052808361ffff1681526020018261ffff1681525060025f820151815f015f6101000a81548161ffff021916908361ffff1602179055506020820151815f0160026101000a81548161ffff021916908361ffff1602179055509050507f032e5ddfa9f9a5b4eb50dd03b7d24478d00b76b0c0eb7224d375a24b5ab6522b8282604051611dc0929190611f3e565b60405180910390a15050565b60405180604001604052805f61ffff1681526020015f61ffff1681525090565b5f80fd5b5f73ffffffffffffffffffffffffffffffffffffffff82169050919050565b5f611e1982611df0565b9050919050565b611e2981611e0f565b8114611e33575f80fd5b50565b5f81359050611e4481611e20565b92915050565b5f819050919050565b611e5c81611e4a565b8114611e66575f80fd5b50565b5f81359050611e7781611e53565b92915050565b5f805f60608486031215611e9457611e93611dec565b5b5f611ea186828701611e36565b9350506020611eb286828701611e69565b9250506040611ec386828701611e36565b9150509250925092565b5f61ffff82169050919050565b611ee381611ecd565b82525050565b604082015f820151611efd5f850182611eda565b506020820151611f106020850182611eda565b50505050565b5f604082019050611f295f830184611ee9565b92915050565b611f3881611ecd565b82525050565b5f604082019050611f515f830185611f2f565b611f5e6020830184611f2f565b9392505050565b5f60208284031215611f7a57611f79611dec565b5b5f611f8784828501611e36565b91505092915050565b611f9981611ecd565b8114611fa3575f80fd5b50565b5f81359050611fb481611f90565b92915050565b5f805f8060808587031215611fd257611fd1611dec565b5b5f611fdf87828801611e36565b9450506020611ff087828801611e69565b935050604061200187828801611fa6565b925050606061201287828801611fa6565b91505092959194509250565b5f805f6060848603121561203557612034611dec565b5b5f61204286828701611e36565b935050602061205386828701611fa6565b925050604061206486828701611fa6565b9150509250925092565b5f806040838503121561208457612083611dec565b5b5f61209185828601611e36565b92505060206120a285828601611e69565b9150509250929050565b600581106120b8575f80fd5b50565b5f813590506120c9816120ac565b92915050565b5f805f805f60a086880312156120e8576120e7611dec565b5b5f6120f588828901611e36565b955050602061210688828901611e69565b945050604061211788828901611e36565b935050606061212888828901611e69565b9250506080612139888289016120bb565b9150509295509295909350565b61214f81611e4a565b82525050565b5f6060820190506121685f830186612146565b6121756020830185612146565b6121826040830184612146565b949350505050565b5f60408201905061219d5f830185612146565b6121aa6020830184612146565b9392505050565b6121ba81611e0f565b82525050565b5f6020820190506121d35f8301846121b1565b92915050565b5f80604083850312156121ef576121ee611dec565b5b5f6121fc85828601611fa6565b925050602061220d85828601611fa6565b9150509250929050565b5f60208201905061222a5f830184612146565b92915050565b7f4e487b71000000000000000000000000000000000000000000000000000000005f52602160045260245ffd5b7f4e487b71000000000000000000000000000000000000000000000000000000005f52601160045260245ffd5b5f61229482611ecd565b915061229f83611ecd565b9250828201905061ffff8111156122b9576122b861225d565b5b92915050565b5f6122c982611e4a565b91506122d483611e4a565b92508282026122e281611e4a565b915082820484148315176122f9576122f861225d565b5b5092915050565b7f4e487b71000000000000000000000000000000000000000000000000000000005f52601260045260245ffd5b5f61233782611e4a565b915061234283611e4a565b92508261235257612351612300565b5b828204905092915050565b5f61236782611e4a565b915061237283611e4a565b925082820390508181111561238a5761238961225d565b5b92915050565b5f61239a82611e4a565b91506123a583611e4a565b92508282019050808211156123bd576123bc61225d565b5b9291505056fea264697066735822122051fa70f0af0468ae515fd79562081ad2fce186b9d50ac9bb2af0641adaf8ec9964736f6c63430008190033","linkReferences":{}},"methodIdentifiers":{"MAX_BPS()":"fd967f47","computeClaimableAmountAndFee(address,uint256,address,uint256,uint8)":"5c5a62f3","computeDepositAmountAndFee(address,uint256,address,uint256,uint8)":"79c9fe44","confirmOwner()":"bd9b6d86","contractSpecificFees(address,uint256)":"b0a8b899","defaultFees()":"118b48e5","getApplicableFees(address,uint256,address)":"01999b36","instanceFees(address)":"935e9e8e","owner()":"8da5cb5b","renounceOwner()":"28c23a45","resetAllToDefault(address,uint256,address)":"d11da9eb","resetContractSpecificFees(address,uint256)":"5a490388","resetInstanceSpecificFees(address)":"a9d5f346","resetUserSpecificFees(address)":"29413e43","setContractSpecificFees(address,uint256,uint16,uint16)":"44ee781a","setDefaultFees(uint16,uint16)":"fcd2ce46","setInstanceFees(address,uint16,uint16)":"f3b2cd4e","setUserSpecificFees(address,uint16,uint16)":"4d1b0857","transferOwnership(address)":"f2fde38b","userSpecificFees(address)":"20c559d5"},"id":69}